:0404000002046D3253
:01040B0032BE
:0104130032B6
:01041B0032AE
:0104230032A6
:01042B00329E
:010433003296
:01043B00328E
:010443003286
:01044B00327E
:010453003276
:01045B00326E
:03046300020A2C5E
:0B04C6007800E4F208F208F208F27877
:0A04D10004E4F208F208F208F278E1
:0304DB0008E4F240
:0305060002046686
:0504660012057380FE89
:0E05090075CB7075CF0075CD0075CE2475CC06
:0C05170024AFF15307DF8FF143F41822EA
:0C052300120A51AC82AD83AEF0FF7800EC
:0E052F00D3E29CF4B3FCB308E29DF4B3FDB339
:0E053D0008E29EF4B3FEB308E29FF4FFC3ECA5
:0E054B0094F4ED9401EE9400EF9400401A63D6
:0D055900FF02120A51AC82AD83AEF0FF78B4
:0C05660000ECF208EDF208EEF208EFF2F3
:010572002266
:0E057300120699120AB8AFFF5307FD8FFF63FF
:0C058100FF029000C8120A7D780DE4F221
:06058D00780DE2B4460007
:0E059300501763FF021206A61208CA900064F9
:0B05A100120A7D780DE22401F280E1D7
:0E05AC00AFFF5307FD8FFF75F40075FE00755D
:0E05BA00900075E40075CB0075EB0043FE86E3
:0D05C80043FE6075F4007590FF9003E8128B
:0E05D5000A7D7590FD90012C120A7D7590FB39
:0D05E30090012C120A7D75907F90012C1262
:0C05F0000A7D7590FF9001F4120A7D1244
:0E05FC00050975909E75CD6475CF329007D0BD
:0D060A00120A7D75CD0075CF007590FB9034
:0E06170003E8120A7D75907F75CD3275CF64B1
:0E0625009007D0120A7D75CD0075CF0075903C
:0E063300FF9003E8120A7D7590BC75CD6475CA
:0E064100CF649007D0120A7D75CD0075CF00F2
:0E064F0075907F9003E8120A7D7590DD75CDE1
:0E065D006475CF649007D0120A7D75CD0075CC
:0E066B00CF007590FF9001F4120A7D120A5123
:0C067900AC82AD83AEF0FF7800ECF2081C
:08068500EDF208EEF208EFF2BD
:07068D001206A61208CA12B2
:05069400052380F522A2
:06049C00E478FFF6D8FD34
:08047A007909E94400601B7AD6
:05048200019011CD788E
:0304870055759315
:0A048A00F0E493F2A308B8000205A5
:0804940093D9F4DAF27593FF2D
:0504DE00780E7480F2AD
:070699001206C01206AA12AE
:0606A0000A72120AB122E9
:0406A60012074B22CA
:0706AA00AFBE5307FB8FBE3A
:0E06B100E5BE30E6FB75C68043BE0475C7008B
:0106BF002218
:0A06C00075FF0075A00675F799227A
:0C06CA00120A51AC82AD83AEF0FF780E36
:0E06D600D3E29CF4FC24E65044E5FFC454013A
:0C06E400FF24FF9201400943FF107582C3
:0406F00002121131B0
:0E06F400AFF75307EF8FF7AFFF5307EF8FFFFE
:0C070200758201121131A2A4920043F78D
:07070E001030010343FF104E
:0C071500120A51AC82AD83AEF0FF780EEA
:02072100ECF2F8
:0107230022B3
:0E072400C2AF75D69F75820A12113175FF00A3
:0E07320075FE0075FD0075F50075F40075F399
:0B07400000900064120A7D02000622F7
:0E074B00E5FF20E20C75820A12113130A20384
:0307590012072460
:01075C00227A
:06075D001206CAA20022F0
:03076300A2A3222C
:08076600AFFF5307FE8FFF22D5
:06076E00D2A043FF0122AE
:0604E300750800C202C210
:0604E90003780FE4F27835
:0904EF0010E4F2781174FFF27EB2
:0404F800FD7F077805
:0604FC0012EEF208EFF21F
:0C0774007826740AF27582011210BA781F
:0B078000277440F27582041210EC7820
:0B078B00267440F27582041210BA7848
:050796001174FFF222C6
:0E079B0090F049E0FF53077FBF215590F04DCD
:0E07A900E0FEA3E0FF4E6006BE0147BF004425
:0A07B70090F04AE0FFBF2002800A24
:0507C100BF21028016BB
:0507C600BF2232802279
:0707CB0078247455F2087454
:0A07D200F0F2900007121085801F5E
:0707DC0078227455F2087445
:0A07E300F0F2900007121064800E7F
:0C07ED0090F04BE0FEA3E0780FEEF2125B
:0207F90010A648
:0107FB0022DB
:0107FC0022DA
:0107FD0022D9
:0C07FE007812E2F58208E2F58312046B29
:0E080A0090F055E0FCA3E0FDA3E0FEA3E0FFAC
:0D081800BC4D1DBD011ABE0017BF0014200D
:050825000311D20312D3
:0E082A000A51AC82AD83AEF0FF90F028ECF0E6
:01083800229D
:0A08390090F05CE0FFBF10028005A4
:05084300758200801A1F
:0E08480090DE0E7404F090DE14E0FF30E00944
:0908560090DE16E0FFF58280033C
:03085F007582009F
:010862002273
:0E08630090DE0E7404F090DE28E0FF90DE16AA
:0C087100E0FE700890DE14E054FEFEF083
:05087D00D2068F82226B
:0A088200AE82AF837814791CE2F314
:0B088C00781DEEF208EFF275820412F6
:0E0897000AB990DE16E0FF700890DE14E054FF
:0308A500FEFFF063
:0108A800222D
:0E08A90090DE0E7404F090DE11E0FF4401F0CA
:0808B7007440B50803D3800171
:0108BF00C375
:0508C000920492027594
:0508C5000800D206222C
:0708CA00120B31300319127B
:0E08D1000A51AC82AD83AEF090F028E0FFEC4F
:0A08DF00C39FFC24B9500312072444
:0A08E90090F05CE0FFBF10028002F7
:0208F30080790A
:0B08F50090DE0E7404F0E508700B307C
:0A090000020B90DE11E0FF20E1037E
:03090A001208A927
:0A090D0090DE0E7401F078107911ED
:09091700E2F5F0E3B5F002804EB8
:0E09200090DE11E0FF20E04690DE2274A1F090
:0E092E007420F0E4F090DE22F090DE22F090D3
:0C093C00DE22F090DE227402F0E4F0787D
:0C0948001090DE22E2F090DE22E4F0903D
:0C095400DE11E04401F07810E2FF5307D0
:0A096000837810EFF27810E2FF78C0
:04096A0011F2D206AE
:01096E002266
:0A096F0090F05CE0FFBF100280056D
:050979007582008027DB
:0E097E0090DE0E7404F090DE11E0FF30E11206
:09098C00EF30E0057582008010D7
:090995007440C39508F582800747
:07099E007480C39508F58287
:0109A500222F
:0409A600AE82AF83EB
:0A09AA007815E260517440C395080F
:0A09B400FD7815C3E29D500478158C
:0209BE00E2FD58
:0A09C000781FEDF27820EEF208EF48
:0E09CA00F2758204C007C006C005120AEED006
:0C09D80005D006D007ED2EFEE43FFF78AE
:0909E40015E2C39DF2ED2508F5B2
:0A09ED00087440B508B7C007C00643
:0909F7001208A9D006D00780AA5D
:010A000022D3
:0B0A0100E58290DE28F005087440B587
:050A0C0008031208A917
:010A110022C2
:060A1200780FE2F58222DC
:0A0A1800AF827810E2547C4F781092
:020A2200F222BE
:080A2400AF827810E24FF222CC
:0E1139001201000202000020FB1F0022000035
:04114700010203019D
:0E114B0009024300020100C032090400000145
:0E115900020201000524002001042402020508
:0E116700240600010524010001070581030A8A
:0E117500000109040100020A00000007050441
:0B11830002400000070584024000004D
:01118E00045C
:04118F000403090448
:0E119300260350006F006C006F006C007500AA
:0E11A100200043006F00720070006F007200AB
:0A11AF006100740069006F006E001B
:0C11B9000C0357006900780065006C0012
:0211C5008F1188
:0211C700931182
:0211C900B9115A
:0211CB00E60339
:0711CD00802500000000086E
:0C0A2C00C0E0C000C0D075D0007816E219
:0E0A38002401F208E23400F208E23400F20871
:0B0A4600E23400F2D0D0D000D0E0324B
:0C0A5100A2BCE433FFC2BC7816E2FB0834
:0E0A5D00E2FC08E2FD08E2FEEF24FF92BC8BF3
:070A6B00828C838DF0EE2266
:0B0A720075EDBBD2BC75EBFAD2AF22D1
:040A7D00AE82AF8313
:090A81008E048F051EBEFF011F4B
:0E0A8A00EC4D60227582FAC007C006121131D1
:0E0A98007582FA1211317582FA1211317582CF
:0A0AA600F9121131D006D00780D1FB
:010AB0002223
:0804A2007828E84400600A79A3
:0304AA0000759347
:0604AD00F0E4F309D8FCA5
:0804B300782DE84400600C798B
:0B04BB000190F000E4F0A3D8FCD9FA97
:070AB10075D22975D3F02274
:04050200C205C20666
:010AB800221B
:0E0AB900AF82E4CF25E0CF33FE74202FFF7410
:0A0AC700DE3EFE781CE2FD781DE221
:040AD100FB08E2FC40
:0E0AD500ED60131D8F828E83E0FA8B828C837E
:080AE300F0A3AB82AC8380EAB2
:030AEB00D206220E
:0E0AEE00AF82E4CF25E0CF33FE74202FFF74DB
:0A0AFC00DE3EFE781FE2FD7820E2E6
:040B0600FB08E2FC0A
:0E0B0A00ED60141D8B828C83E0FAA3AB82ACED
:090B1800838F828E83EAF080E9EC
:010B210022B1
:0C0B2200C20590DE017401F090DE0B743F
:030B2E0007F022AB
:0D0B310012075D4014AFBE53077F8FBE1248
:080B3E00076690F05CE4F0C2D0
:040B460005020D5641
:0E0B4A0090F05CE0FF701312076E43BE800057
:0C0B580000000090F05C7402F0120B2210
:0E0B640090DE06E0FF90DE02E0FEEF30E002E1
:020B7200D205AA
:0E0B7400EF30E21690F05C7404F090F05DE457
:0C0B8200F0C007C006120B22D006D007FE
:060B8E00EF30E102C20598
:070B9400EE20E003020D5604
:0C0B9B0090DE0EE4F090DE11E0FFD206C8
:0E0BA700EF30E40B90DE117480F090F05DE40E
:010BB500F04F
:0D0BB600EF30E20990DE11E4F090F05DF008
:070BC300EF20E003020CEC3F
:0A0BCA0090F05DE0FEBE0102800322
:030BD400020C729E
:0E0BD70090DE16E0FE90F051E0FCA3E0FD8EF3
:0C0BE500027B00C3EC9AED9B50028C06D2
:070BF100781CEEF2781A797E
:0C0BF8001DE2F308E209F3758200C0075B
:0C0C0400C006120AB9D006D007781AE228
:0E0C10002EF208E23400F290F051E0FCA3E076
:0E0C1E00FD7B0090F051ECC39EF0ED9BA3F027
:0E0C2C0090F051E0FDA3E0FE4D600990DE1156
:060C3A007440F0020CEC16
:0E0C400090F049E054606007C0071207FED034
:010C4E00079E
:0D0C4F0090DE0EE4F090F05DE0FE70099084
:080C5C00DE117468F0020CECDB
:0E0C640090DE117448F090F05DE4F0020CECAC
:0B0C720090DE16E0FEBE086C781D74DA
:070C7D0049F20874F0F2785F
:0C0C84001C7408F2758200C007120AB947
:0E0C9000D00790F05DE4F090F049E054607001
:0A0C9E0009C007120D57D0078007A8
:070CA800C00712079BD007F3
:0D0CAF0090DE0EE4F090F05DE0FE70089025
:070CBC00DE117460F08029D5
:0E0CC300BE012690F051E0FDA3E0FE4D60085A
:080CD10090DE117440F0801365
:0D0CD90090DE11744AF090F05DE4F08006AA
:060CE60090DE117440F0E5
:0D0CEC00EF20E16690F05DE0FEBE025E903C
:0E0CF900F051E0FDA3E0FEC3ED9420EE940068
:0B0D070050097F0A90F05DE4F08004CA
:040D12007F027D20BF
:070D1600781FEDF2781A7955
:0C0D1D0020E2F308E209F3758200C00731
:0E0D2900C005120AEED005D00790DE11EFF0E3
:0B0D3700781AE22DF208E23400F2907E
:0E0D4200F051E0FEA3E0FF7C0090F051EEC304
:060D50009DF0EF9CA3F0F2
:010D5600227A
:0A0D570090F053E4F090F054F09097
:0B0D6100F04AE0FF24F3500302100CE6
:070D6C00EF2F2F900D7373B0
:070D7300020F36020FF80227
:060D7A00100C020FF8024C
:060D8000100C020E7102CE
:060D86000D9A02100C02A0
:060D8C000ECF020E9202E0
:060D92000EF402100C0239
:020D98000FFD4D
:0E0D9A0090F04BE0FEA3E0FFFC7D00BC0105E5
:050DA800BD00028013F4
:080DAD00BC0205BD000280201C
:080DB500BC0305BD0002803BF8
:030DBD00020E3CE7
:070DC000781A7439F208747F
:0C0DC70011F290F0517412F0A3E4F0025D
:020DD3000E49C7
:060DD500EE600302100CA9
:070DDB00781A744BF2087452
:0C0DE20011F290114DE493FCA3E493FD8A
:0A0DEE0090F051ECF0A3EDF08051FD
:0E0DF8008E047D0090118EE493FB7A00C3EC14
:080E06009BED9A400302100C61
:0C0E0E00E4CE25E0CE33FFEE24C5F582D3
:0C0E1A00EF3411F583E493FEA3E493FF92
:0C0E2600781AEEF208EFF28E828F83E063
:0A0E3200FE90F051F0A3E4F0800DF3
:0B0E3C001207FC90F05DE0FF70030265
:020E4700100C8D
:0E0E490090F04FE0FEA3E0FF90F051E0FCA31C
:0E0E5700E0FDC3EE9CEF9D500890F051EEF0D0
:030E6500A3EFF008
:090E680090F05D7402F002100C20
:0E0E710090F04BE0FEA3E0FF90DE00EEF0EE0E
:060E7F0060047F08800200
:020E85007F04E8
:090E870090F05CEFF01210A602DD
:020E9000100C44
:0E0E920090F04BE0FEA3E0FFBE0005BF0002A3
:020EA0008008C8
:080EA200BE0121BF001E8011FA
:0E0EAA0090F05CE0FF24F7501690F05C7408A6
:030EB800F0800EB9
:0B0EBB0090F05C7410F01207748003CC
:030EC60002100C0B
:060EC9001210A602100C3D
:0C0ECF0090F05CE0FFBF10047F01800287
:020EDB007F0096
:080EDD0090F053EFF07822744D
:0A0EE50053F20874F0F290000112BD
:050EEF00106402100C6C
:080EF40090F05CE0FFBF10006C
:050EFC00500302100C80
:0B0F010090F04DE0FEA3E0FF7C4B7D74
:0C0F0C00118C828D83A3A3A3A3E493FDAA
:0C0F18007C00C3EE9DEF9C400302100C17
:070F240078227453F20874F7
:090F2B00F0F290000112106402C2
:020F3400100C9F
:0E0F360090F049E0541FFE7F00BE0005BF0092
:030F440002801414
:080F4700BE0105BF0002802E6F
:090F4F00BE0206BF0003020FC838
:030F5800020FF68F
:090F5B0012076350047F018002BB
:020F64007F000C
:080F660090F053EFF0782274C3
:0A0F6E0053F20874F0F29000021232
:050F7800106402100CE2
:080F7D0090F05CE0FFBF1000E2
:0E0F8500500E90F04DE0FEA3E0FF4E60030220
:020F9300100C40
:0B0F950090F04DE0FEA3E0FF7C4B7DE0
:0C0FA000118C828D83A3A3A3A3E493FD16
:0B0FAC007C00C3EE9DEF9C40028055CE
:070FB70078227453F2087464
:0A0FBE00F0F290000212106480446B
:0E0FC80090F04BE0FEA3E0FFEE540F600280BD
:010FD6000218
:020FD700803365
:080FD90090F05CE0FFBF100086
:040FE1005002802713
:070FE50078227453F2087436
:0A0FEC00F0F290000212106480166B
:020FF600801465
:050FF8001210A6800F9D
:070FFD0078227453F208741E
:08100400F0F2900002121064EA
:01100C0022C1
:03100D00A2052217
:0C101000AF8CA2BD9207C2BD438C10AE95
:06101C008C5306FE8E8CD1
:0E102200758900C2C5D2BDAEBE74FC5E44012D
:0E103000FE8EBE000000E5BE54036007D290A5
:05103E00438701C29090
:09104300C2BDE58930E702C205D7
:0C104C00300509C007120763D00750CA26
:0C105800E5BE30E6FB8F8CA20792BD22A3
:0E106400AE82AF8390F05D7402F090F051EE1A
:0C107200F0A3EFF07822E2FE08E2FF7825
:07107E001AEEF208EFF22266
:0E108500AE82AF8390F05D7401F090F051EEFA
:0C109300F0A3EFF07824E2FE08E2FF7802
:07109F001AEEF208EFF22245
:0E10A60090F05D7401F090F051E4F0A3F022A0
:0610B40090F05DE4F02263
:0C10BA00E58290DE0EF07826E2FE7F005A
:0E10C60074072EFEE43FFFC423CEC423541F44
:0C10D4006ECE541FCE6ECE30E40244E01D
:0C10E00090DE10EEF090DE127401F022A1
:0C10EC00E58290DE0EF07827E2FE7F0027
:0E10F80074072EFEE43FFFC423CEC423541F12
:0C1106006ECE541FCE6ECE30E40244E0EA
:0C11120090DE13EEF090DE157401F02268
:0111D400001A
:0111D5000019
:02046B00E47338
:03046D0075812076
:0A04700012111EE58260030204660B
:04111E0075820022B4
:0B1122000000000002112D0000000082
:04112D0000000000BE
:08113100E5826003D582EA2289
:00000001FF
