:0404000002046D3253
:01040B0032BE
:0104130032B6
:01041B0032AE
:0104230032A6
:01042B00329E
:010433003296
:01043B00328E
:010443003286
:01044B00327E
:010453003276
:01045B00326E
:030463000212671B
:0804C600750800750900E4F55A
:0504CE000AF50BE4F546
:0404D3000CF50D75A2
:0804D7000E007800E4F208F2C7
:0305090002046683
:0504660012072E80FECC
:0C050C0012146DE509600543FF04800730
:07051800AFFF5307FB8FFF4B
:08051F00AFFF5307FD8FFF221F
:0E05270012079D901C74E493FC7401937402FF
:0E0535009374039390DF06ECF090DF027410D5
:0D054300F090DF147414F090DF13E4F090DA
:0E055000F0AE7413F07ED97F0074DF2FFE90A2
:0C055E00F0A8EEF07ED990F0A9EEF07E3F
:06056A00487FF08F0690AF
:07057000F0AAEEF07E487FC7
:0C057700F090F0ABEEF090DF02E0FF0F20
:0E0583000F0F90F0ADEFF090F0AC7480F090A0
:0C059100F0AF7410F043D60275E10222B6
:0E059D00E5E930E46812083C505490F04AE062
:0605AB00FFB508028013F9
:0805B10090F04AE0F508E4F5C2
:0405B90009F50AF541
:0405BD000BF50CF539
:0305C1000DF50E27
:0C05C40012128CAC82AD837800ECF208BF
:0C05D000EDF20509120851E582FF339599
:0905DC00E0FEEF250AF50AEE35F8
:0405E5000BF50B12F5
:0A05E9000846AF827E00EF250CF5F6
:0505F3000CEE350DF5D2
:0305F8000D800271
:0205FB00050EEB
:0D05FD00AFE95307EF8FE943D60275E10225
:01060A0022CD
:08060B00120A69AF82BF400032
:05061300500302072D59
:07061800E50970030206DF93
:08061F0012128C85820F858305
:050627001085F011F543
:0A062C00127800E2FA08E2FBE4FE97
:0A063600FFE50FC39AFAE5109BFBE5
:0A064000E5119EFEE5129FFFC3EADC
:0A064A00942CEB9401500302072DDD
:090654007804E509F208E4F285DE
:06065D000C82850D8312E2
:0B066300074CAE82AF83AC097D00782D
:0A066E0020ECF208EDF2850A828507
:0B0678000B83C007C006C005C00412C1
:0E06830012ECAA82AB83D004D005D006D007BB
:0D069100C006C007C002C003C004C005744D
:0A069E0078C0E0741CC0E07480C056
:0A06A800E0745BC0E074F0C0E0E411
:0E06B200C0E012141AAE82E58124F4F58178BE
:0706C0000CEEF290F05B125A
:0D06C7000AA012128CAC82AD83AEF0FF7859
:0A06D40002ECF208EDF27509008057
:0106DE004ECD
:0806DF0012128C85820F858345
:0506E7001085F011F583
:0A06EC00127802E2FA08E2FBE4FED5
:0A06F600FFE50FC39AFAE5109BFB25
:0A070000E5119EFEE5129FFFC3EA1B
:0C070A00944CEB9404401C901C88780C6C
:0E0716007414F2120AA012128CAC82AD83AEE3
:09072400F0FF7802ECF208EDF29E
:01072D0022A9
:07072E0012118C120B2612C0
:050735000527120B2650
:07073A001211991209C4120B
:06074100050C12059D12DB
:05074700060B80EF220B
:041C740080000000EC
:0E1C78002533642C202535642C202535640D81
:021C86000A0052
:0E1C88002020302C2020202020302C20202056
:061C96002020300D0A00C1
:0A074C00AE82AF837C007D007B10BD
:0C075600EF235401FA24FF9200EFCE259F
:0C076200E0CE33FFEDCC25E0CC33FD30C1
:05076E0000034304013B
:0C0773007804C3E2F5F0EC95F008E2F524
:0C077F00F0ED95F040117804D3E29CF4FA
:0B078B00B3FCB308E29DF4FD4306013F
:07079600DBBE8E828F83227F
:06049C00E478FFF6D8FD34
:08047A007909E94400601B7AD6
:0504820001901D3B7814
:03048700C87593A2
:0A048A00F0E493F2A308B8000205A5
:0804940093D9F4DAF27593FF2D
:0D079D0090DF2E74FEF090DF097464F09080
:0E07AA00DF0A7425F090DF0BE4F090DF0F748F
:0E07B80043F090DF107487F090DF07740AF0B2
:0E07C60090DF08E4F090DF0C741DF090DF0D62
:0E07D40074DEF090DF0E7473F090DF1A74B6CE
:0E07E200F090DF1B7410F090DF15741DF09086
:0E07F000DF16741CF090DF1774C7F090DF184E
:0E07FE00E4F090DF1974B2F090DF1C74EAF0A2
:0E080C0090DF1D740AF090DF1EE4F090DF1FF5
:0E081A007411F090DF237488F090DF247431A5
:0E082800F090DF257409F090DF037404F09067
:06083600DF047445F0220E
:0A083C0090DF39E023540124FF226D
:0B08460090DF39E0FF747F5FF5822235
:0E08510090DF3AE0FFC2D575F002EF30E70409
:04085F00B2D5F40416
:060863008430D502F4040C
:0508690024B9F5822214
:0604DF00751300C201C20A
:0604E500027806E4F27843
:0904EB0007E4F2780874FFF27EC8
:0404F400F77F08780E
:0604F80009EEF208EFF22C
:0C086E007819740AF275820112112878C2
:0B087A001A7440F275820412115A78C3
:0B088500197440F275820412112878EB
:050890000874FFF222D4
:0E08950090F09CE0FF53077FBF215590F0A02C
:0E08A300E0FEA3E0FF4E6006BE0147BF00442A
:0A08B10090F09DE0FFBF2002800AD6
:0508BB00BF21028016C0
:0508C000BF223280227E
:0708C500781774C8F20874F3
:0A08CC00F0F29000071210F3801FF5
:0708D600781574C8F20874E4
:0A08DD00F0F29000071210D2800E16
:0C08E70090F09EE0FEA3E07806EEF21216
:0208F3001114DE
:0108F50022E0
:0108F60022DF
:0108F70022DE
:0C08F8007809E2F58208E2F58312046B37
:0E09040090F0C8E0FCA3E0FDA3E0FEA3E0FF3E
:0D091200BC4D1DBD011ABE0017BF00142012
:05091F000211D20212DA
:0E092400128CAC82AD83AEF0FF90F09BECF035
:0109320022A2
:0A09330090F0CFE0FFBF1002800536
:05093D00758200801A24
:0E09420090DE0E7404F090DE14E0FF30E00949
:0909500090DE16E0FFF582800341
:03095900758200A4
:01095C002278
:0E095D0090DE0E7404F090DE28E0FF90DE16AF
:0C096B00E0FE700890DE14E054FEFEF088
:05097700D2058F822271
:0A097C00AE82AF83780B790FE2F32F
:0B0986007810EEF208EFF27582041208
:0E0991000B2790DE16E0FF700890DE14E05495
:03099F00FEFFF068
:0109A2002232
:0E09A30090DE0E7404F090DE11E0FF4401F0CF
:0809B1007440B51303D380016B
:0109B900C37A
:0509BA0092039201759B
:0509BF001300D2052227
:0709C400120B9F3002191213
:0E09CB00128CAC82AD83AEF090F09BE0FFEC9E
:0A09D900C39FFC24B950031212174B
:0A09E30090F0CFE0FFBF1002800289
:0209ED0080790F
:0B09EF0090DE0E7404F0E513700B3076
:0A09FA00010B90DE11E0FF20E10385
:030A04001209A331
:0A0A070090DE0E7401F07807790804
:090A1100E2F5F0E3B5F002804EBD
:0E0A1A0090DE11E0FF20E04690DE2274A1F095
:0E0A28007420F0E4F090DE22F090DE22F090D8
:0C0A3600DE22F090DE227402F0E4F07882
:0C0A42000790DE22E2F090DE22E4F0904B
:0C0A4E00DE11E04401F07807E2FF5307DE
:0A0A5A00837807EFF27807E2FF78D7
:040A640008F2D205BD
:010A6800226B
:0A0A690090F0CFE0FFBF10028005FF
:050A73007582008027E0
:0E0A780090DE0E7404F090DE11E0FF30E1120B
:090A8600EF30E0057582008010DC
:090A8F007440C39513F582800741
:070A98007480C39513F58281
:010A9F002234
:040AA000AE82AF83F0
:0A0AA400780CE260517440C3951312
:0A0AAE00FD780CC3E29D5004780CA3
:020AB800E2FD5D
:0A0ABA007812EDF27813EEF208EF67
:0E0AC400F2758204C007C006C005120B5CD09C
:0C0AD20005D006D007ED2EFEE43FFF78B3
:090ADE000CE2C39DF2ED2513F5B5
:0A0AE700137440B513B7C007C00632
:090AF1001209A3D006D00780AA67
:010AFA0022D9
:0B0AFB00E58290DE28F005137440B582
:050B060013031209A316
:010B0B0022C7
:060B0C007806E2F58222EA
:0A0B1200AF827807E2547C4F7807A9
:020B1C00F222C3
:080B1E00AF827807E24FF222DA
:0E1C9C001201000202000020FB1F00220000C7
:041CAA00010203012F
:0E1CAE0009024300020100C0320904000001D7
:0E1CBC0002020100052400200104240202059A
:0E1CCA00240600010524010001070581030A1C
:0E1CD800000109040100020A000000070504D3
:0B1CE6000240000007058402400000DF
:011CF10004EE
:041CF20004030904DA
:0E1CF600260350006F006C006F006C0075003C
:0E1D0400200043006F00720070006F0072003C
:0A1D12006100740069006F006E00AC
:0C1D1C000C0357006900780065006C00A3
:021D2800F21CAB
:021D2A00F61CA5
:021D2C001C1D7C
:021D2E00E603CA
:071D3B0080250000000008F4
:0404FE00C204C2056D
:010B260022AC
:0E0B2700AF82E4CF25E0CF33FE74202FFF74A1
:0A0B3500DE3EFE780FE2FD7810E2CC
:040B3F00FB08E2FCD1
:0E0B4300ED60131D8F828E83E0FA8B828C830F
:080B5100F0A3AB82AC8380EA43
:030B5900D20522A0
:0E0B5C00AF82E4CF25E0CF33FE74202FFF746C
:0A0B6A00DE3EFE7812E2FD7813E291
:040B7400FB08E2FC9C
:0E0B7800ED60141D8B828C83E0FAA3AB82AC7F
:090B8600838F828E83EAF080E97E
:010B8F002243
:0C0B9000C20490DE017401F090DE0B74D2
:030B9C0007F0223D
:0D0B9F001212504014AFBE53077F8FBE12DC
:080BAC00125990F0CFE4F0C2F1
:040BB40004020DC466
:0E0BB80090F0CFE0FF701312126143BE800078
:0C0BC60000000090F0CF7402F0120B90C1
:0E0BD20090DE06E0FF90DE02E0FEEF30E00273
:020BE000D2043D
:0E0BE200EF30E21690F0CF7404F090F0D0E403
:0C0BF000F0C007C006120B90D006D00722
:060BFC00EF30E102C2042B
:070C0200EE20E003020DC427
:0C0C090090DE0EE4F090DE11E0FFD2055A
:0E0C1500EF30E40B90DE117480F090F0D0E42C
:010C2300F0E0
:0D0C2400EF30E20990DE11E4F090F0D0F026
:070C3100EF20E003020D5A61
:0A0C380090F0D0E0FEBE0102800340
:030C4200020CE0C1
:0E0C450090DE16E0FE90F0A4E0FCA3E0FD8E31
:0C0C5300027B00C3EC9AED9B50028C0663
:070C5F00780FEEF2780D7929
:0C0C660010E2F308E209F3758200C007F9
:0C0C7200C006120B27D006D007780DE258
:0E0C7E002EF208E23400F290F0A4E0FCA3E0B5
:0E0C8C00FD7B0090F0A4ECC39EF0ED9BA3F066
:0E0C9A0090F0A4E0FDA3E0FE4D600990DE1195
:060CA8007440F0020D5A39
:0E0CAE0090F09CE054606007C0071208F8D078
:010CBC000730
:0D0CBD0090DE0EE4F090F0D0E0FE700990A3
:080CCA00DE117468F0020D5AFE
:0E0CD20090DE117448F090F0D0E4F0020D5A5C
:0B0CE00090DE16E0FEBE086C78107479
:070CEB009CF20874F0F2789E
:0C0CF2000F7408F2758200C007120B2777
:0E0CFE00D00790F0D0E4F090F09CE0546070CD
:0A0D0C0009C007120DC5D0078007CB
:070D1600C007120895D00789
:0D0D1D0090DE0EE4F090F0D0E0FE70089043
:070D2A00DE117460F0802966
:0E0D3100BE012690F0A4E0FDA3E0FE4D600898
:080D3F0090DE117440F08013F6
:0D0D470090DE11744AF090F0D0E4F08006C8
:060D540090DE117440F076
:0D0D5A00EF20E16690F0D0E0FEBE025E905A
:0E0D6700F0A4E0FDA3E0FEC3ED9420EE9400A6
:0B0D750050097F0A90F0D0E4F08004E9
:040D80007F027D2051
:070D84007812EDF2780D7901
:0C0D8B0013E2F308E209F3758200C007D0
:0E0D9700C005120B5CD005D00790DE11EFF006
:0B0DA500780DE22DF208E23400F2901D
:0E0DB000F0A4E0FEA3E0FF7C0090F0A4EEC3F0
:060DBE009DF0EF9CA3F084
:010DC400220C
:0A0DC50090F0A6E4F090F0A7F09083
:0B0DCF00F09DE0FF24F3500302107AB7
:070DDA00EF2F2F900DE173D4
:070DE100020FA402106602DC
:060DE800107A0210660201
:060DEE00107A020EDF0284
:060DF4000E0802107A0255
:060DFA000F3D020F000294
:060E00000F6202107A02ED
:020E0600106B6F
:0E0E080090F09EE0FEA3E0FFFC7D00BC010523
:050E1600BD0002801385
:080E1B00BC0205BD00028020AD
:080E2300BC0305BD0002803B89
:030E2B00020EAA0A
:070E2E00780D749CF20874BA
:0C0E35001CF290F0A47412F0A3E4F00290
:020E41000EB7EA
:060E4300EE600302107ACC
:070E4900780D74AEF208748D
:0C0E50001CF2901CB0E493FCA3E493FDA2
:0A0E5C0090F0A4ECF0A3EDF080513B
:0E0E66008E047D00901CF1E493FB7A00C3EC37
:080E74009BED9A400302107A85
:0C0E7C00E4CE25E0CE33FFEE2428F58202
:0C0E8800EF341DF583E493FEA3E493FF18
:0C0E9400780DEEF208EFF28E828F83E002
:0A0EA000FE90F0A4F0A3E4F0800D32
:0B0EAA001208F690F0D0E0FF70030289
:020EB500107AB1
:0E0EB70090F0A2E0FEA3E0FF90F0A4E0FCA308
:0E0EC500E0FDC3EE9CEF9D500890F0A4EEF00F
:030ED300A3EFF09A
:090ED60090F0D07402F002107AD1
:0E0EDF0090F09EE0FEA3E0FF90DE00EEF0EE4D
:060EED0060047F08800292
:020EF3007F047A
:090EF50090F0CFEFF0121114028D
:020EFE00107A68
:0E0F000090F09EE0FEA3E0FFBE0005BF0002E1
:020F0E00800859
:080F1000BE0121BF001E80118B
:0E0F180090F0CFE0FF24F7501690F0CF740851
:030F2600F0800E4A
:0B0F290090F0CF7410F012086E8003EF
:030F340002107A2E
:060F370012111402107AF1
:0C0F3D0090F0CFE0FFBF10047F018002A5
:020F49007F0027
:080F4B0090F0A6EFF078157498
:0A0F5300A6F20874F0F290000112FB
:050F5D0010D202107A21
:080F620090F0CFE0FFBF10008A
:050F6A00500302107AA3
:0B0F6F0090F0A0E0FEA3E0FF7CAE7D50
:0C0F7A001C8C828D83A3A3A3A3E493FD31
:0C0F86007C00C3EE9DEF9C400302107A3B
:070F9200781574A6F2087443
:090F9900F0F29000011210D202E6
:020FA200107AC3
:0E0FA40090F09CE0541FFE7F00BE0005BF00D1
:030FB200028014A6
:080FB500BE0105BF0002802E01
:090FBD00BE0206BF00030210365B
:030FC600021064B2
:090FC90012125650047F0180024F
:020FD2007F009E
:080FD40090F0A6EFF07815740F
:0A0FDC00A6F20874F0F29000021271
:050FE60010D202107A98
:080FEB0090F0CFE0FFBF100001
:0E0FF300500E90F0A0E0FEA3E0FF4E6003025F
:02100100107A63
:0B10030090F0A0E0FEA3E0FF7CAE7DBB
:0C100E001C8C828D83A3A3A3A3E493FD9C
:0B101A007C00C3EE9DEF9C400280555F
:07102500781574A6F20874AF
:0A102C00F0F29000021210D280448E
:0E10360090F09EE0FEA3E0FFEE540F600280FB
:0110440002A9
:021045008033F6
:0810470090F0CFE0FFBF1000A4
:04104F0050028027A4
:07105300781574A6F2087481
:0A105A00F0F29000021210D280168E
:021064008014F6
:05106600121114800FBF
:07106B00781574A6F2087469
:08107200F0F29000021210D20E
:01107A002253
:03107B00A20422AA
:0C107E00AF8CA2BD9206C2BD438C10AE28
:06108A008C5306FE8E8C63
:0E109000758900C2C5D2BDAEBE74FC5E4401BF
:0E109E00FE8EBE000000E5BE54036007D29037
:0510AC00438701C29022
:0910B100C2BDE58930E702C2046A
:0C10BA00300409C007121256D00750CABB
:0C10C600E5BE30E6FB8F8CA20692BD2236
:0E10D200AE82AF8390F0D07402F090F0A4EEE6
:0C10E000F0A3EFF07815E2FE08E2FF78C4
:0710EC000DEEF208EFF22205
:0E10F300AE82AF8390F0D07401F090F0A4EEC6
:0C110100F0A3EFF07817E2FE08E2FF78A0
:07110D000DEEF208EFF222E3
:0E11140090F0D07401F090F0A4E4F0A3F0226B
:0611220090F0D0E4F02281
:0C112800E58290DE0EF07819E2FE7F00F8
:0E11340074072EFEE43FFFC423CEC423541FD5
:0C1142006ECE541FCE6ECE30E40244E0AE
:0C114E0090DE10EEF090DE127401F02232
:0C115A00E58290DE0EF0781AE2FE7F00C5
:0E11660074072EFEE43FFFC423CEC423541FA3
:0C1174006ECE541FCE6ECE30E40244E07C
:0C11800090DE13EEF090DE157401F022FA
:011D420000A0
:011D4300009F
:05050200781B7480F27B
:07118C001211B312119D12B4
:0611930012AD12135122FF
:0411990012123E22CE
:07119D00AFBE5307FB8FBE3C
:0E11A400E5BE30E6FB75C68043BE0475C7008D
:0111B200221A
:0A11B30075FF0075A00675F799227C
:0C11BD0012128CAC82AD83AEF0FF781BE8
:0E11C900D3E29CF4FC24E65044E5FFC454013C
:0C11D700FF24FF9208400943FF107582BE
:0411E30002121C6C6C
:0E11E700AFF75307EF8FF7AFFF5307EF8FFF00
:0C11F500758201121C6CA2A4920743F743
:071201001030080343FF1049
:0C12080012128CAC82AD83AEF0FF781B9C
:02121400ECF2FA
:0112160022B5
:0E121700C2AF75D69F75820A121C6C75FF005F
:0E12250075FE0075FD0075F50075F40075F39B
:0B123300009000641212B802000622B6
:0E123E00E5FF20E20C75820A121C6C30A20340
:03124C0012121764
:01124F00227C
:061250001211BDA20722ED
:03125600A2A3222E
:08125900AFFF5307FE8FFF22D7
:06126100D2A043FF0122B0
:0C126700C0E0C000C0D075D000781CE2D0
:0E1273002401F208E23400F208E23400F2082E
:0B128100E23400F2D0D0D000D0E03208
:0C128C00A2BCE433FFC2BC781CE2FB08EB
:0E129800E2FC08E2FD08E2FEEF24FF92BC8BB0
:0712A600828C838DF0EE2223
:0B12AD0075EDBBD2BC75EBFAD2AF228E
:0412B800AE82AF83D0
:0912BC008E048F051EBEFF011F08
:0E12C500EC4D60227582FAC007C006121C6C48
:0E12D3007582FA121C6C7582FA121C6C758200
:0A12E100F9121C6CD006D00780D172
:0112EB0022E0
:0804A2007848E84400600A7983
:0304AA0000759347
:0604AD00F0E4F309D8FCA5
:0804B3007880E84400600C7938
:0B04BB000190F000E4F0A3D8FCD9FA97
:0E12EC00AE82E583FF33E433FD6009C3E49E68
:0612FA00FBE49FFC8004F0
:041300008E038F04C5
:0A1304007821E233E433FF60107833
:0C130E0020E2D3F43400FA08E2F43400CA
:03131A00FE80074B
:07131D007820E2FA08E2FE6D
:0C1324007804EAF208EEF28B828C83C0A1
:0E13300007C00512074CAC82AE83D005D00773
:0E133E00EF6D600AC3E49CF582E49EF5832205
:05134C008C828E83225B
:0713510075D2A875D3F0224C
:0A135800C014858114C082058105D0
:0A136200810581E51424FBF8A914AD
:0D136C000909E6F70809E6F70809E6F7A801
:0C13790014080886820886830886F0129B
:0A1385001C24FAA3121C24FBA3127F
:0D138F001C24FF74012AFCE43BFD8F06A81E
:0C139C0014080886820886830886F0EC9E
:0B13A800121C44A3ED121C44A3EE1223
:0C13B3001C448A828B838FF0A81408E68B
:0713BF00121C44851481D0CB
:0213C6001422EF
:0C13C800AFF0AE83E5827826F208EEF26A
:0A13D40008EFF278377426F208E4FF
:0A13DE00F2087460F27822793AE216
:0C13E800F308E209F308E209F378257924
:0713F4003DE2F390135812D3
:0C13FB0015BDAE82AF837826E2FB08E24D
:0E140700FC08E2FD8B828C838DF0E4121C4405
:051415008E828F83228E
:06141A00C014858114E5F9
:071420001424F8783DF2E509
:0A1427001424FB7837F208E4F20801
:0A1431007440F2E51424F8F8793A4B
:0E143B00E6F30809E6F30809E6F390135812E9
:0C14490015BDAE82AF83E51424FBF886CD
:0E145500030886040886058B828C838DF0E4E4
:0A146300121C448E828F83D01422E5
:02046B00E47338
:02050700C20927
:05146D001005028015CE
:0A14720090DE0CE0FF7829F220095B
:0A147C000AD20990DE0CE0FF782A86
:01148600F273
:0C14870012107B400790F0CFE0FF7009CE
:09149300AEFF5306EF8EFF805EF0
:0C149C00BF104030093890DE0CE0FF7EED
:0C14A80000782AE2FC7D00EFC39CFFEE00
:0B14B4009DFEEF30E60543FF108007AF
:0714BF00AFFF5307EF8FFFA1
:0C14C60090DE0CE0FF7829D3E29FF4FFD9
:0814D200249F5024C209802070
:0514DA0043FF10801B20
:0E14DF0012128CAD83AEF0FFED035401FC60E1
:0614ED000543FF1080071B
:0714F300AFFF5307EF8FFF6D
:0114FA0022CF
:0C14FB00782DE2C0E008E2C0E008E2C08A
:0A150700E0741AC0E07415C0E0782B
:091511002BE2C0E008E2C0E02278
:0C151A001581158115817835E22401F25D
:0615260008E23400F2228D
:0E152C00AF8274302FFF24C6500A74072FFFC1
:06153A00300A0343072004
:051540008F820214FB84
:0E154500E582FFC4540FF582C00712152CD0AA
:0915530007740F5FF58202152CEC
:0A155C00AF827830E2F51A08E2F5DC
:081566001B08E2F51C08E2F588
:07156E001D7834E2FA7E2033
:0C157500EA2AFAE51D235401FD8A044215
:08158100048C02E51A251AF59D
:051589001AE51B33F51B
:05158E001BE51C33F514
:051593001CE51D33F50D
:0B1598001DC3EA9F4007EAC39FFA430F
:0215A3001A012B
:0915A500DECE7830E51AF208E50B
:0815AE001BF208E51CF208E540
:0715B6001DF27834EAF22275
:0C15BD00AE82AF83782BEEF208EFF278DC
:0A15C90037E2FD08E2FE08E2FF78B9
:0A15D3002DEDF208EEF208EFF278B9
:0515DD0035E4F208F204
:0C15E200783AE2FD08E2FE08E2FF8D828C
:0C15EE008E838FF0121C24FC783A7401EC
:0E15FA002DF2E43E08F208EFF2ECFF7003025F
:021608001C02C2
:05160A00BF2502800372
:03160F00021BFAC1
:05161200C20BC20CC276
:041617000DC20EC230
:04161B000FC210C228
:04161F0011C212786A
:0A1623003EE4F2783FE4F27CFF7829
:09162D003AE2FA08E2FB08E2FED1
:0E1636008A828B838EF0121C24FFA3AA82AB43
:0C16440083783AEAF208EBF208EEF2BFFD
:0916500025078F821214FB80892A
:091659008F1574D025155037E5FA
:0C1662001524C64031BCFF22C002C003AA
:0C166E00C006783FE275F00AA42F24D0DB
:0A167A00783FF2D006D003D00278CA
:081684003FE270AED20C80AA17
:0C168C00EC75F00AA4FD2F24D0FC809E19
:0A169800BF2E07BCFF987C00809471
:0916A2008F15749F2515500DE50C
:0A16AB0015248540075307DFD20A1B
:0216B5008002B1
:0216B700C20A65
:0516B900BF2002806D5E
:0516BE00BF2B02806358
:0516C300BF2D0280595B
:0516C800BF4202806337
:0516CD00BF430280682C
:0616D200BF44030218DD15
:0616D800BF46030218FBEF
:0616DE00BF4803021636AE
:0616E400BF49030218DDFE
:0616EA00BF4A03021636A0
:0516F000BF4C02804028
:0616F500BF4F030218E6DE
:0616FB00BF500302186657
:05170100BF53028060EF
:06170600BF540302163679
:06170C00BF55030218EDB9
:06171200BF58030218F4A9
:06171800BF5A0302163661
:03171E000218FFAF
:05172100D20B02163698
:05172600D20D02163691
:05172B00D20E0216368B
:05173000D21002163684
:05173500D2110216367E
:09173A0030100E783DE214FE7837
:081743003DF28E0187078013BF
:0A174B00783DE224FEFE783DF28EA8
:09175500018703098706198B07BF
:08175E008F821214FB02190A2C
:0A176600783DE224FDFE783DF28E8E
:0C17700001870209870309870619197810
:0C177C0030EAF208EBF208EEF28A828BF1
:0E178800838EF0C004121C0CAB82AE83D00422
:05179600BCFF028B0402
:0A179B00200B37783FC3E2F5F0EBB6
:0B17A50095F0502C783FE2C39BF278D7
:0317B0003FE2FE17
:0C17B3008E021E783FEEF2EA6014758290
:0E17BF0020C006C004C0031214FBD003D004E7
:0417CD00D00680E2E0
:0417D100783FEEF27D
:0217D5008C0680
:0C17D700C0037830E2FA08E2FB08E2FCF4
:0E17E3008A828B838CF0121C24FAFFD003EA5A
:0E17F100603C8E041EC3E464808CF063F080C4
:0D17FF0095F0502CC0038F82C006C003126D
:0C180C0014FBD003D0067830E2FA08E2AA
:09181800FB08E2FC0ABA00010B16
:0C1821007830EAF208EBF208ECF2D00399
:02182D0080A891
:06182F00200B0302190A60
:0C183500783FC3E2F5F0EB95F0400302B1
:02184100190A82
:0A184300783FE2C39BF2783FE2FE1B
:0B184D008E041E783FEEF2EC700302E8
:0218580019066F
:0C185A00758220C0061214FBD00680E747
:0A186600783DE224FDFC783DF28C91
:0C1870000187020987040987051919780F
:0A187C0030EAF208ECF208EDF27811
:0618860032E2FFBF80000A
:06188C0040047F438014BC
:03189200BF600034
:0618950040047F50800BAF
:03189B00BF40004B
:06189E0040047F498002B6
:0218A4007F586B
:0E18A6008F82C0071214FB75823A1214FB7574
:0E18B40082301214FB7582781214FBD007BF2D
:0418C2004902800D4A
:0518C600BF5002800884
:0818CB007831E2F582121545A7
:0A18D3007830E2F582121545802DF1
:0918DD00D20F783E740AF2802457
:0718E600783E7408F2801D3A
:0718ED00783E740AF2801638
:0718F400783E7410F2800F32
:0418FB00D212800B7A
:0718FF008F821214FB80042C
:04190600783FEEF246
:0A190A00301273783DE224FCFE78F1
:081914003DF28E0187160987E0
:06191C0017098718098776
:07192200191919197830E5CD
:0819290016F208E517F208E5CB
:0719310018F208E519F27835
:06193800307430F2087467
:06193E001DF2087480F2A6
:081944007830E2F51608E2F527
:08194C001708E2F518740125EB
:0719540016FAE43517FCAEA2
:0A195B00187830EAF208ECF208EE0A
:08196500F285168285178385C7
:0A196D0018F0121C24FEFF700302A4
:0219770015E277
:071979008F821214FB80C4F1
:08198000783EE270030215E25B
:081988007F4630104CC00778C7
:0A1990003DE214FC783DF28C01E703
:0C199A00FA3395E0FCFDFE7830EAF2081C
:0C19A600ECF208EDF208EEF2D007300F72
:0419B20003021A54BE
:0C19B600C0077830E2FA08E208E208E21C
:0C19C2007C007D007E007830EAF208EC2A
:0B19CE00F208EDF208EEF2D007807B7B
:0A19D90030112CC007783DE224FC19
:0C19E300FD783DF28D01870209870409A0
:0C19EF0087050987061919197830EAF2FB
:0D19FB0008ECF208EDF208EEF2D007804C87
:0A1A0800C007783DE224FEFD783DA2
:0E1A1200F28D01870409870519EDFA3395E07E
:0C1A2000FDFE7830ECF208EAF208EDF26E
:0B1A2C0008EEF2D007200F20C0077862
:0C1A370030E2FA08E2FC08E208E27D0060
:0C1A43007E007830EAF208ECF208EDF2C8
:051A4F0008EEF2D007D3
:0A1A5400300F2E7830E2FA08E2FCB1
:0E1A5E0008E2FD08E2FE30E71CC3E49AFAE459
:0C1A6C009CFCE49DFDE49EFE7830EAF254
:0B1A780008ECF208EDF208EEF280022C
:021A8300C20F90
:081A8500D2138F017840E4F256
:0A1A8D007834E4F2783EE2F582C0FE
:0A1A97000112155CD00120130E7837
:0C1AA10034E2C4FDE3FC4DF3198907801A
:011AAD000533
:051AAE007834E2FDF3B5
:0A1AB3007840E22401F27840E2FBE3
:0A1ABD00B2137830E2FA08E2FC08E8
:0E1AC700E2FD08E2FEEA4C4D4E70BB89077846
:091AD50040E2FB783FE270057865
:041ADE003F7401F25E
:0A1AE200200C2C200B29EB04FE78E9
:031AEC003FE2FDD9
:0E1AEF00C3EE9D5019758220C007C006C005C9
:0E1AFD00C0031214FBD003D005D006D0071D85
:021B0B0080E276
:041B0D00783FEDF23E
:0B1B1100300F1575822DC007C00312B5
:0C1B1C0014FBD003D007783FE214F280E5
:011B2800318B
:0C1B2900EB602E300D1575822BC007C03C
:0C1B3500031214FBD003D007783FE21429
:031B4100F2801619
:0B1B4400300E13758220C007C0031292
:0B1B4F0014FBD003D007783FE214F233
:071B5A00200B2C783FE2FE96
:0C1B61008E051E783FEEF2C3EB9D503560
:071B6D00300C047D30800202
:021B74007D20D2
:0E1B76008D82C007C006C0031214FBD003D03E
:051B840006D00780D827
:0C1B8900783FC3E2F5F0EB95F0500878CF
:071B95003FE2C39BF2800A4E
:061B9C00783FE4F2800432
:041BA200783FEEF2A8
:041BA6008F018B061A
:0A1BAA008E051EED602BB213201310
:0C1BB4000B09E3C4540FFD7834F28009E3
:091BC000E3FD53050F7834EDF24A
:0C1BC9007834E2F582C006C00112152C31
:061BD500D001D00680CF14
:061BDB00200B030215E2DD
:041BE100783FE2FE69
:091BE5008E051EED70030215E2ED
:0C1BEE00758220C0061214FBD00680EBAC
:081BFA008F821214FB0215E2B8
:0A1C02007835E2F58208E2F583224E
:0B1D30003C4E4F20464C4F41543E00FB
:041C0C00AA82AB837A
:081C1000121C246003A380F8FC
:0C1C1800C3E5829AF582E5839BF58322E8
:03046D0075812274
:0A047000121C40E5826003020466DE
:0E1C240020F71430F6148883A88220F507E616
:061C3200A8837583002267
:031C3800E280F750
:031C3B00E493220D
:021C3E00E022A2
:041C40007582002287
:0E1C440020F71030F6118883A88220F507F6ED
:051C5200A8837583006A
:011C5700226A
:031C5800F280F720
:021C5B00F02275
:0B1C5D0000000000021C6800000000F6
:041C68000000000078
:081C6C00E5826003D582EA2243
:00000001FF
