:0404000002046D3253
:01040B0032BE
:0104130032B6
:01041B0032AE
:0104230032A6
:01042B00329E
:010433003296
:01043B00328E
:010443003286
:01044B00327E
:010453003276
:01045B00326E
:03046300021385FC
:0504C600C200C2017834
:0A04CB0005E4F208F27807E4F208F5
:0104D500F234
:0304FE000204668F
:0504660012081E80FEDB
:0E050100121C4F90DF067480F090DF02741021
:0D050F00F090DF147414F090DF13E4F0900E
:0C051C00DF2F741BF090F08F7413F07E42
:060528004B7FF08F0690EE
:07052E00F089EEF07E4B7F27
:0C053500F090F08AEEF07ED97F0074DFB9
:0E0541002FFE90F08BEEF07ED990F08CEEF055
:0D054F0090F08E7411F090F08D7420F090FB
:0E055C00F0907440F090F04B7410F075E104D4
:01056A00226E
:0E056B0090DF3BE0FFBF0120AFE95307EF8FA9
:0C057900E943D60275E103D2011213AA77
:0C058500AC82AD83AEF0FF7807ECF2080A
:02059100EDF289
:010593002245
:0C0594001213AAAC82AD83AEF0FF300061
:0C05A000277805D3E29CF4B3FEB308E218
:0E05AC009DF4FFC3EE9464EF9400500543FFEE
:0305BA00028012AA
:0B05BD00AFFF5307FD8FFFC200800757
:0705C800AFFF5307FD8FFF99
:0A05CF003001277807D3E29CF4B353
:0E05D900FCB308E29DF4FDC3EC9464ED9400C5
:0705E700500543FF108012D4
:0B05EE00AFFF5307EF8FFFC201800733
:0705F900AFFF5307EF8FFF76
:0406000063FF04226E
:05060400AF82BF3000D1
:0E0609004028EF24C640238F057E00ED24D04C
:0C061700F582EE34FFF583781F7404F2C6
:0C06230008E4F212129CAD82AE83780451
:04062F00EDF2800662
:06063300780474035FF27D
:0B0639007804E2FE7F00C006C00774DA
:0A06440070C0E0741DC0E07480C0B7
:0A064E00E0745CC0E074F0C0E0E46A
:0E065800C0E01214D3AE82E58124F8F581785B
:070666000FEEF290F05C12B0
:05066D000AD5D20012C5
:0C06720013AAAC82AD837805ECF208ED11
:02067E00F22266
:05068000120968AF82C1
:0E068500EF601BC007120A9EAE82D007BE2097
:010693000066
:0E069400400DC007120992120604D0071F8005
:0106A200E275
:0106A3002234
:0C06A4007804C3E2F5F0740395F05003F5
:0306B00002081D20
:0B06B3007804E275F003A49006BE730B
:0706BE000206CA0207220236
:0506C50007750207CDDE
:0C06CA0090F04C7401F090F04DE4F090C2
:0A06D600F04EF090F04F7401F09028
:0B06E000F05074FFF090F051E4F09037
:0A06EB00F052F090F05374FFF0900D
:0B06F500F0547402F090F055E4F09017
:0A070000F056F090F0577401F090ED
:0B070A00F058E4F090F05974FFF090FC
:0B071500F05AE4F090F05B74FFF0027B
:02072000081DB2
:0C07220090F04C7401F090F04DE4F09069
:0A072E00F04EF090F04F7401F090CF
:09073800F050E4F090F051F09053
:0A074100F052F090F05374FFF090B6
:0B074B00F0547402F090F055E4F090C0
:0A075600F056F090F0577401F09097
:09076000F058E4F090F059F0901B
:0A076900F05AF090F05B74FFF0020C
:02077300081D5F
:0C07750090F04C7401F090F04DE4F09016
:0A078100F04EF090F04F7401F0907C
:09078B00F050E4F090F051F09000
:0C079400F05274FFF090F05374FFF090EE
:0B07A000F0547402F090F055E4F0906B
:0A07AB00F056F090F0577401F09042
:0C07B500F05874FFF090F05974FFF090C1
:0C07C100F05AE4F090F05B74FFF0805000
:0C07CD0090F04C7401F090F04DE4F090BE
:0A07D900F04EF090F04F7401F09024
:0907E300F050E4F090F051F090A8
:0A07EC00F052F090F05374FFF0900B
:0B07F600F0547402F090F055E4F09015
:0A080100F056F090F0577401F090EB
:09080B00F058E4F090F059F0906F
:09081400F05AF090F05B74FFF063
:01081D0022B8
:07081E001211C1120B5B1265
:0708250005017804E4F21262
:0C082C0013AAAC82AD83AEF0FF7800ECA4
:0A083800F208EDF208EEF208EFF20C
:070842001211CE1209F91298
:0608490006801205941266
:0C084F0013AAAC82AD83AEF0FF7800D39A
:0E085B00E29CF4B3FCB308E29DF4B3FDB308D5
:0E086900E29EF4B3FEB308E29FF4FFC3EC94EA
:0D087700E8ED9403EE9400EF940040BF12F2
:0C08840013AAAC82AD83AEF0FF7800EC4C
:0E089000F208EDF208EEF208EFF21206A412E2
:05089E00056B80A022A3
:0B1D700053746174653D25640D0A008A
:06049C00E478FFF6D8FD34
:08047A007909E94400601B7AD6
:0504820001901E1A7834
:03048700A97593C1
:0A048A00F0E493F2A308B8000205A5
:0804940093D9F4DAF27593FF2D
:0604D600750800C202C21D
:0604DC00037809E4F27848
:0904E2000AE4F2780B74FFF27ECB
:0404EB002C7F0978E1
:0604EF000CEEF208EFF232
:0C08A300781C740AF275820112115D7855
:0B08AF001D7440F275820412118F7856
:0B08BA001C7440F275820412115D787E
:0508C5000B74FFF2229C
:0E08CA0090F07DE0FF53077FBF215590F08135
:0E08D800E0FEA3E0FF4E6006BE0147BF0044F5
:0A08E60090F07EE0FFBF2002800AC0
:0508F000BF210280168B
:0508F500BF2232802249
:0708FA00781A74A9F20874DA
:0A090100F0F2900007121128801F89
:07090B00781874A9F20874CA
:0A091200F0F2900007121107800EAA
:0C091C0090F07FE0FEA3E07809EEF212FC
:02092800114973
:01092A0022AA
:01092B0022A9
:01092C0022A8
:0C092D00780CE2F58208E2F58312046BFE
:0E09390090F0A9E0FCA3E0FDA3E0FEA3E0FF28
:0D094700BC4D1DBD011ABE0017BF001420DD
:050954000311D20312A3
:0E09590013AAAC82AD83AEF0FF90F07CECF000
:01096700226D
:0A09680090F0B0E0FFBF1002800520
:05097200758200801AEF
:0E09770090DE0E7404F090DE14E0FF30E00914
:0909850090DE16E0FFF58280030C
:03098E007582006F
:010991002243
:0E09920090DE0E7404F090DE28E0FF90DE167A
:0C09A000E0FE700890DE14E054FEFEF053
:0509AC00D2068F82223B
:0A09B100AE82AF83780E7912E2F3F4
:0B09BB007813EEF208EFF275820412D0
:0E09C6000B5C90DE16E0FF700890DE14E0542B
:0309D400FEFFF033
:0109D70022FD
:0E09D80090DE0E7404F090DE11E0FF4401F09A
:0809E6007440B50803D3800141
:0109EE00C345
:0509EF00920492027564
:0509F4000800D20622FC
:0709F900120BD430031912A8
:0E0A000013AAAC82AD83AEF090F07CE0FFEC68
:0A0A0E00C39FFC24B9500312124CE0
:0A0A180090F0B0E0FFBF1002800272
:020A22008079D9
:0B0A240090DE0E7404F0E508700B304B
:0A0A2F00020B90DE11E0FF20E1034E
:030A39001209D8C7
:0A0A3C0090DE0E7401F0780A790BC9
:090A4600E2F5F0E3B5F002804E88
:0E0A4F0090DE11E0FF20E04690DE2274A1F060
:0E0A5D007420F0E4F090DE22F090DE22F090A3
:0C0A6B00DE22F090DE227402F0E4F0784D
:0C0A77000A90DE22E2F090DE22E4F09013
:0C0A8300DE11E04401F0780AE2FF5307A6
:0A0A8F0083780AEFF2780AE2FF789C
:040A99000BF2D20684
:010A9D002236
:0A0A9E0090F0B0E0FFBF10028005E9
:050AA8007582008027AB
:0E0AAD0090DE0E7404F090DE11E0FF30E112D6
:090ABB00EF30E0057582008010A7
:090AC4007440C39508F582800717
:070ACD007480C39508F58257
:010AD40022FF
:040AD500AE82AF83BB
:0A0AD900780FE260517440C39508E5
:0A0AE300FD780FC3E29D5004780F68
:020AED00E2FD28
:0A0AEF007815EDF27816EEF208EF2C
:0E0AF900F2758204C007C006C005120B91D032
:0C0B070005D006D007ED2EFEE43FFF787D
:090B13000FE2C39DF2ED2508F587
:0A0B1C00087440B508B7C007C00612
:090B26001209D8D006D00780AAFC
:010B2F0022A3
:0B0B3000E58290DE28F005087440B557
:050B3B0008031209D8B7
:010B40002292
:060B41007809E2F58222B2
:0A0B4700AF82780AE2547C4F780A6E
:020B5100F2228E
:080B5300AF82780AE24FF222A2
:0E1D7B001201000202000020FB1F00220000E7
:041D8900010203014F
:0E1D8D0009024300020100C0320904000001F7
:0E1D9B000202010005240020010424020205BA
:0E1DA900240600010524010001070581030A3C
:0E1DB700000109040100020A000000070504F3
:0B1DC5000240000007058402400000FF
:011DD000040E
:041DD10004030904FA
:0E1DD500260350006F006C006F006C0075005C
:0E1DE300200043006F00720070006F0072005D
:0A1DF1006100740069006F006E00CD
:0C1DFB000C0357006900780065006C00C4
:021E0700D11DEB
:021E0900D51DE5
:021E0B00FB1DBD
:021E0D00E603EA
:071E1A008025000000000814
:0404F500C205C20674
:010B5B002277
:0E0B5C00AF82E4CF25E0CF33FE74202FFF746C
:0A0B6A00DE3EFE7812E2FD7813E291
:040B7400FB08E2FC9C
:0E0B7800ED60131D8F828E83E0FA8B828C83DA
:080B8600F0A3AB82AC8380EA0E
:030B8E00D206226A
:0E0B9100AF82E4CF25E0CF33FE74202FFF7437
:0A0B9F00DE3EFE7815E2FD7816E256
:040BA900FB08E2FC67
:0E0BAD00ED60141D8B828C83E0FAA3AB82AC4A
:090BBB00838F828E83EAF080E949
:010BC400220E
:0C0BC500C20590DE017401F090DE0B749C
:030BD10007F02208
:0D0BD4001212854014AFBE53077F8FBE1272
:080BE100128E90F0B0E4F0C2A6
:040BE90005020DF9FB
:0E0BED0090F0B0E0FF701312129643BE80002D
:0C0BFB0000000090F0B07402F0120BC576
:0E0C070090DE06E0FF90DE02E0FEEF30E0023D
:020C1500D20506
:0E0C1700EF30E21690F0B07404F090F0B1E40B
:0C0C2500F0C007C006120BC5D006D007B7
:060C3100EF30E102C205F4
:070C3700EE20E003020DF9BD
:0C0C3E0090DE0EE4F090DE11E0FFD20624
:0E0C4A00EF30E40B90DE117480F090F0B1E416
:010C5800F0AB
:0D0C5900EF30E20990DE11E4F090F0B1F010
:070C6600EF20E003020D8FF7
:0A0C6D0090F0B1E0FEBE010280032A
:030C7700020D1556
:0E0C7A0090DE16E0FE90F085E0FCA3E0FD8E1B
:0C0C8800027B00C3EC9AED9B50028C062E
:070C94007812EEF2781079EE
:0C0C9B0013E2F308E209F3758200C007C1
:0C0CA700C006120B5CD006D0077810E2EB
:0E0CB3002EF208E23400F290F085E0FCA3E09F
:0E0CC100FD7B0090F085ECC39EF0ED9BA3F050
:0E0CCF0090F085E0FDA3E0FE4D600990DE117F
:060CDD007440F0020D8FCF
:0E0CE30090F07DE054606007C00712092DD02C
:010CF10007FB
:0D0CF20090DE0EE4F090F0B1E0FE7009908D
:080CFF00DE117468F0020D8F94
:0E0D070090DE117448F090F0B1E4F0020D8F10
:0B0D150090DE16E0FEBE086C78137440
:070D20007DF20874F0F27887
:0C0D2700127408F2758200C007120B5C09
:0E0D3300D00790F0B1E4F090F07DE0546070D5
:0A0D410009C007120DFAD007800761
:070D4B00C0071208CAD0071F
:0D0D520090DE0EE4F090F0B1E0FE7008902D
:070D5F00DE117460F0802931
:0E0D6600BE012690F085E0FDA3E0FE4D600882
:080D740090DE117440F08013C1
:0D0D7C0090DE11744AF090F0B1E4F08006B2
:060D890090DE117440F041
:0D0D8F00EF20E16690F0B1E0FEBE025E9044
:0E0D9C00F085E0FDA3E0FEC3ED9420EE940090
:0B0DAA0050097F0A90F0B1E4F08004D3
:040DB5007F027D201C
:070DB9007815EDF2781079C6
:0C0DC00016E2F308E209F3758200C00798
:0E0DCC00C005120B91D005D00790DE11EFF09C
:0B0DDA007810E22DF208E23400F290E5
:0E0DE500F085E0FEA3E0FF7C0090F085EEC3F9
:060DF3009DF0EF9CA3F04F
:010DF90022D7
:0A0DFA0090F087E4F090F088F0908C
:0B0E0400F07EE0FF24F350030210AF6B
:070E0F00EF2F2F900E167368
:070E1600020FD902109B023C
:060E1D0010AF02109B0261
:060E230010AF020F1402E3
:060E29000E3D0210AF02B5
:060E2F000F72020F3502F4
:060E35000F970210AF024E
:020E3B0010A005
:0E0E3D0090F07FE0FEA3E0FFFC7D00BC01050D
:050E4B00BD0002801350
:080E5000BC0205BD0002802078
:080E5800BC0305BD0002803B54
:030E6000020EDFA0
:070E63007810747BF20874A3
:0C0E6A001DF290F0857412F0A3E4F00279
:020E76000EEC80
:060E7800EE60030210AF62
:070E7E007810748DF2087476
:0C0E85001DF2901D8FE493FCA3E493FD8C
:0A0E910090F085ECF0A3EDF0805125
:0E0E9B008E047D00901DD0E493FB7A00C3EC22
:080EA9009BED9A40030210AF1B
:0C0EB100E4CE25E0CE33FFEE2407F582EE
:0C0EBD00EF341EF583E493FEA3E493FFE2
:0C0EC9007810EEF208EFF28E828F83E0CA
:0A0ED500FE90F085F0A3E4F0800D1C
:0B0EDF0012092B90F0B1E0FF7003023D
:020EEA0010AF47
:0E0EEC0090F083E0FEA3E0FF90F085E0FCA311
:0E0EFA00E0FDC3EE9CEF9D500890F085EEF0F9
:030F0800A3EFF064
:090F0B0090F0B17402F00210AF85
:0E0F140090F07FE0FEA3E0FF90DE00EEF0EE36
:060F220060047F0880025C
:020F28007F0444
:090F2A0090F0B0EFF01211490241
:020F330010AFFD
:0E0F350090F07FE0FEA3E0FFBE0005BF0002CB
:020F4300800824
:080F4500BE0121BF001E801156
:0E0F4D0090F0B0E0FF24F7501690F0B074085A
:030F5B00F0800E15
:0B0F5E0090F0B07410F01208A38003A4
:030F69000210AFC4
:060F6C001211490210AF52
:0C0F720090F0B0E0FFBF10047F0180028F
:020F7E007F00F2
:080F800090F087EFF07818747F
:0A0F880087F20874F0F290000112E5
:050F920011070210AF81
:080F970090F0B0E0FFBF100074
:050F9F0050030210AF39
:0B0FA40090F081E0FEA3E0FF7C8D7D5B
:0C0FAF001D8C828D83A3A3A3A3E493FDFB
:0C0FBB007C00C3EE9DEF9C40030210AFD1
:070FC70078187487F208742A
:090FCE00F0F2900001121107027B
:020FD70010AF59
:0E0FD90090F07DE0541FFE7F00BE0005BF00BB
:030FE70002801471
:080FEA00BE0105BF0002802ECC
:090FF200BE0206BF000302106BF1
:030FFB0002109948
:090FFE0012128B50047F018002E5
:021007007F0068
:0810090090F087EFF0781874F5
:0A10110087F20874F0F2900002125A
:05101B0011070210AFF7
:0810200090F0B0E0FFBF1000EA
:0E102800500E90F081E0FEA3E0FF4E60030248
:0210360010AFF9
:0B10380090F081E0FEA3E0FF7C8D7DC6
:0C1043001D8C828D83A3A3A3A3E493FD66
:0B104F007C00C3EE9DEF9C400280552A
:07105A0078187487F2087496
:0A106100F0F2900002121107804423
:0E106B0090F07FE0FEA3E0FFEE540F600280E5
:011079000274
:02107A008033C1
:08107C0090F0B0E0FFBF10008E
:04108400500280276F
:0710880078187487F2087468
:0A108F00F0F2900002121107801623
:021099008014C1
:05109B00121149800F55
:0710A00078187487F2087450
:0810A700F0F2900002121107A3
:0110AF00221E
:0310B000A2052274
:0C10B300AF8CA2BD9207C2BD438C10AEF2
:0610BF008C5306FE8E8C2E
:0E10C500758900C2C5D2BDAEBE74FC5E44018A
:0E10D300FE8EBE000000E5BE54036007D29002
:0510E100438701C290ED
:0910E600C2BDE58930E702C20534
:0C10EF00300509C00712128BD00750CA50
:0C10FB00E5BE30E6FB8F8CA20792BD2200
:0E110700AE82AF8390F0B17402F090F085EEEE
:0C111500F0A3EFF07818E2FE08E2FF788B
:0711210010EEF208EFF222CC
:0E112800AE82AF8390F0B17401F090F085EECE
:0C113600F0A3EFF0781AE2FE08E2FF7868
:0711420010EEF208EFF222AB
:0E11490090F0B17401F090F085E4F0A3F02274
:0611570090F0B1E4F0226B
:0C115D00E58290DE0EF0781CE2FE7F00C0
:0E11690074072EFEE43FFFC423CEC423541FA0
:0C1177006ECE541FCE6ECE30E40244E079
:0C11830090DE10EEF090DE127401F022FD
:0C118F00E58290DE0EF0781DE2FE7F008D
:0E119B0074072EFEE43FFFC423CEC423541F6E
:0C11A9006ECE541FCE6ECE30E40244E047
:0C11B50090DE13EEF090DE157401F022C5
:011E210000C0
:011E220000BF
:0504F900781E7480F282
:0711C1001211E81211D21215
:0611C80013CB12140A22F1
:0411CE001212732264
:0711D200AFBE5307FB8FBE07
:0E11D900E5BE30E6FB75C68043BE0475C70058
:0111E70022E5
:0A11E80075FF0075A00675F7992247
:0C11F2001213AAAC82AD83AEF0FF781E91
:0E11FE00D3E29CF4FC24E65044E5FFC4540107
:0C120C00FF24FF9209400943FF10758287
:0412180002121D6839
:0E121C00AFF75307EF8FF7AFFF5307EF8FFFCA
:0C122A00758201121D68A2A4920843F70F
:071236001030090343FF1013
:0C123D001213AAAC82AD83AEF0FF781E45
:02124900ECF2C5
:01124B002280
:0E124C00C2AF75D69F75820A121D6875FF002D
:0E125A0075FE0075FD0075F50075F40075F366
:0B126800009000641213D60200062262
:0E127300E5FF20E20C75820A121D6830A2030E
:0312810012124CFA
:011284002247
:061285001211F2A2082282
:03128B00A2A322F9
:08128E00AFFF5307FE8FFF22A2
:06129600D2A043FF01227B
:0E129C00AE82E583FF33E433FD6009C3E49EB8
:0612AA00FBE49FFC800440
:0412B0008E038F0416
:0A12B4007820E230E710781FE2D343
:0C12BE00F43400FE08E2F43400FF800766
:0712CA00781FE2FE08E2FFBD
:0C12D1007821EEF208EFF28B828C83C0D3
:0E12DD00051212F9AE82AF83D005ED600AC390
:0912EB00E49EF582E49FF58322E4
:0512F4008E828F8322B1
:0812F900AE82AF837D007C0092
:0A1301007822E2235401FB703E78CD
:0C130B0022E2F5F018E225E0C5F033C541
:0C131700F0F208E5F0F27821C3E2F5F0F6
:0D132300EE95F008E2F5F0EF95F05014782B
:0C13300021E2F5F008E2C313C5F0131829
:07133C00F2C5F008F2800584
:051343000C8C0580B9CF
:0C1348007821C3E2F5F0EE95F008E2F524
:0C135400F0EF95F0400E7821D3E29EF4FB
:08136000B3FEB308E29FF4FFA5
:0C1368007821E2F5F008E2C313C5F01391
:0E13740018F2C5F008F28D041DEC70C88E82D0
:031382008F832234
:0C138500C0E0C000C0D075D0007823E2AA
:0E1391002401F208E23400F208E23400F2080F
:0B139F00E23400F2D0D0D000D0E032E9
:0C13AA00A2BCE433FFC2BC7823E2FB08C5
:0E13B600E2FC08E2FD08E2FEEF24FF92BC8B91
:0713C400828C838DF0EE2204
:0B13CB0075EDBBD2BC75EBFAD2AF226F
:0413D600AE82AF83B1
:0913DA008E048F051EBEFF011FE9
:0E13E300EC4D60227582FAC007C006121D682C
:0E13F1007582FA121D687582FA121D687582E7
:0A13FF00F9121D68D006D00780D156
:0114090022C0
:0804A200784BE84400600A7980
:0304AA0000759347
:0604AD00F0E4F309D8FCA5
:0804B300785EE84400600C795A
:0B04BB000190F000E4F0A3D8FCD9FA97
:07140A0075D28975D3F022B1
:0A141100C009858109C0820581052C
:0A141B00810581E50924FBF8A90909
:0D1425000909E6F70809E6F70809E6F7A847
:0C14320009080886820886830886F012EC
:0A143E001D20FAA3121D20FBA312CB
:0D1448001D20FF74012AFCE43BFD8F06A867
:0C14550009080886820886830886F0ECEF
:0B146100121D40A3ED121D40A3EE126F
:0C146C001D408A828B838FF0A80908E6DF
:07147800121D40850981D01F
:02147F00092240
:0C148100AFF0AE83E582782BF208EEF2AB
:0A148D0008EFF2783A742BF208E43D
:0A149700F2087460F27827793DE254
:0C14A100F308E209F308E209F3782A7965
:0714AD0040E2F3901411125C
:0C14B40015E8AE82AF83782BE2FB08E263
:0E14C000FC08E2FD8B828C838DF0E4121D404F
:0514CE008E828F8322D5
:0614D300C009858109E556
:0714D9000924F87840F2E558
:0A14E0000924FB783AF208E4F20850
:0A14EA007440F2E50924F8F8793D9A
:0E14F400E6F30809E6F30809E6F39014111276
:0C15020015E8AE82AF83E50924FBF886F3
:0E150E00030886040886058B828C838DF0E42A
:0A151C00121D408E828F83D0092239
:02046B00E47338
:0C1526007830E2C0E008E2C0E008E2C05B
:0A153200E07445C0E07415C0E078D5
:09153C002EE2C0E008E2C0E0224A
:0C1545001581158115817838E22401F22F
:0615510008E23400F22262
:0E155700AF8274302FFF24C6500A74072FFF96
:06156500300A03430720D9
:05156B008F820215262D
:0E157000E582FFC4540FF582C007121557D054
:09157E0007740F5FF58202155796
:0A158700AF827833E2F50F08E2F5B9
:081591001008E2F51108E2F573
:07159900127837E2FA7E2010
:0C15A000EA2AFAE512235401FD8A0442F5
:0815AC00048C02E50F250FF588
:0515B4000FE51033F506
:0515B90010E51133F5FF
:0515BE0011E51233F5F8
:0B15C30012C3EA9F4007EAC39FFA43EF
:0215CE000F010B
:0915D000DECE7833E50FF208E5E8
:0815D90010F208E511F208E52B
:0715E10012F27837EAF22252
:0C15E800AE82AF83782EEEF208EFF278AE
:0A15F4003AE2FD08E2FE08E2FF788B
:0A15FE0030EDF208EEF208EFF2788B
:0516080038E4F208F2D5
:0C160D00783DE2FD08E2FE08E2FF8D825D
:0C1619008E838FF0121D20FC783D7401C0
:0E1625002DF2E43E08F208EFF2ECFF70030233
:021633001C2D6C
:05163500BF2502800347
:03163A00021C256A
:05163D00C20BC20CC24B
:041642000DC20EC205
:041646000FC210C2FD
:04164A0011C212783F
:0A164E0041E4F27842E4F27CFF78F8
:091658003DE2FA08E2FB08E2FEA3
:0E1661008A828B838EF0121D20FFA3AA82AB1B
:0C166F0083783DEAF208EBF208EEF2BFCF
:09167B0025078F821215268089D3
:091684008F0A74D0250A5037E5E5
:0C168D000A24C64031BCFF22C002C0038A
:0C169900C0067842E275F00AA42F24D0AD
:0A16A5007842F2D006D003D002789C
:0816AF0042E270AED20C80AAE9
:0C16B700EC75F00AA4FD2F24D0FC809EEE
:0A16C300BF2E07BCFF987C00809446
:0916CD008F0A749F250A500DE5F7
:0A16D6000A248540075307DFD20AFB
:0216E000800286
:0216E200C20A3A
:0516E400BF2002806D33
:0516E900BF2B0280632D
:0516EE00BF2D02805930
:0516F300BF420280630C
:0516F800BF4302806801
:0616FD00BF4403021908BE
:06170300BF460302192697
:06170900BF480302166157
:06170F00BF4903021908A6
:06171500BF4A0302166149
:05171B00BF4C028040FC
:06172000BF4F0302191186
:06172600BF500302189100
:05172C00BF53028060C4
:06173100BF540302166123
:06173700BF550302191862
:06173D00BF580302191F52
:06174300BF5A030216610B
:0317490002192A58
:05174C00D20B02166142
:05175100D20D0216613B
:05175600D20E02166135
:05175B00D2100216612E
:05176000D21102166128
:0917650030100E7840E214FE7809
:08176E0040F28E018707801391
:0A1776007840E224FEFE7840F28E77
:09178000018703098706198B0794
:081789008F82121526021935AA
:0A1791007840E224FDFE7840F28E5D
:0C179B00018702098703098706191978E5
:0C17A70033EAF208EBF208EEF28A828BC3
:0E17B300838EF0C004121C37AB82AE83D004CC
:0517C100BCFF028B04D7
:0A17C600200B377842C3E2F5F0EB88
:0B17D00095F0502C7842E2C39BF278A9
:0317DB0042E2FEE9
:0C17DE008E021E7842EEF2EA6014758262
:0E17EA0020C006C004C003121526D003D00490
:0417F800D00680E2B5
:0417FC007842EEF24F
:021800008C0654
:0C180200C0037833E2FA08E2FB08E2FCC5
:0E180E008A828B838CF0121D20FAFFD003EA31
:0E181C00603C8E041EC3E464808CF063F08098
:0D182A0095F0502CC0038F82C006C0031241
:0C1837001526D003D0067833E2FA08E250
:09184300FB08E2FC0ABA00010BEB
:0C184C007833EAF208EBF208ECF2D0036B
:0218580080A866
:06185A00200B030219350A
:0C1860007842C3E2F5F0EB95F040030283
:02186C0019352C
:0A186E007842E2C39BF27842E2FEEA
:0B1878008E041E7842EEF2EC700302BA
:02188300193119
:0C188500758220C006121526D00680E7F0
:0A1891007840E224FDFC7840F28C60
:0C189B00018702098704098705191978E4
:0A18A70033EAF208ECF208EDF278E3
:0618B10035E2FFBF8000DC
:0618B70040047F43801491
:0318BD00BF600009
:0618C00040047F50800B84
:0318C600BF400020
:0618C90040047F4980028B
:0218CF007F5840
:0E18D1008F82C00712152675823A12152675F1
:0E18DF008230121526758278121526D007BFAA
:0418ED004902800D1F
:0518F100BF5002800859
:0818F6007834E2F5821215704E
:0A18FE007833E2F582121570802D98
:09190800D20F7841740AF2802428
:0719110078417408F2801D0B
:071918007841740AF2801609
:07191F0078417410F2800F03
:04192600D212800B4E
:07192A008F821215268004D4
:041931007842EEF218
:0A1935003012737840E224FCFE78C3
:08193F0040F28E01870B0987BD
:061947000C09870D098761
:07194D000E1919197833E5AA
:081954000BF208E50CF208E5B6
:07195C000DF208E50EF27820
:0619630033740FF208745A
:061969001EF2087480F27A
:08196F007833E2F50B08E2F504
:081977000C08E2F50D740125D6
:07197F000BFAE4350CFCAE8D
:0A1986000D7833EAF208ECF208EEE7
:08199000F2850B82850C8385B2
:0A1998000DF0121D20FEFF70030287
:0219A200160D20
:0719A4008F8212152680C49A
:0819AB007841E2700302160D01
:0819B3007F4930104CC0077899
:0A19BB0040E214FC7840F28C01E7D2
:0C19C500FA3395E0FCFDFE7833EAF208EE
:0C19D100ECF208EDF208EEF2D007300F47
:0419DD0003021A7F68
:0C19E100C0077833E2FA08E208E208E2EE
:0C19ED007C007D007E007833EAF208ECFC
:0B19F900F208EDF208EEF2D007807B50
:0A1A040030112CC0077840E224FCEA
:0C1A0E00FD7840F28D0187020987040971
:0C1A1A0087050987061919197833EAF2CC
:0D1A260008ECF208EDF208EEF2D007804C5B
:0A1A3300C0077840E224FEFD784071
:0E1A3D00F28D01870409870519EDFA3395E053
:0C1A4B00FDFE7833ECF208EAF208EDF240
:0B1A570008EEF2D007200F20C0077837
:0C1A620033E2FA08E2FC08E208E27D0032
:0C1A6E007E007833EAF208ECF208EDF29A
:051A7A0008EEF2D007A8
:0A1A7F00300F2E7833E2FA08E2FC83
:0E1A890008E2FD08E2FE30E71CC3E49AFAE42E
:0C1A97009CFCE49DFDE49EFE7833EAF226
:0B1AA30008ECF208EDF208EEF2800201
:021AAE00C20F65
:081AB000D2138F017843E4F228
:0A1AB8007837E4F27841E2F582C0CD
:0A1AC20001121587D00120130E78E1
:0C1ACC0037E2C4FDE3FC4DF319890780EC
:011AD8000508
:051AD9007837E2FDF387
:0A1ADE007843E22401F27843E2FBB2
:0A1AE800B2137833E2FA08E2FC08BA
:0E1AF200E2FD08E2FEEA4C4D4E70BB8907781B
:091B000043E2FB7842E270057833
:041B0900427401F22F
:0A1B0D00200C2C200B29EB04FE78BD
:031B170042E2FDAA
:0E1B1A00C3EE9D5019758220C007C006C0059D
:0E1B2800C003121526D003D005D006D0071D2D
:021B360080E24B
:041B38007842EDF210
:0B1B3C00300F1575822DC007C003128A
:0C1B47001526D003D0077842E214F2808B
:011B53003160
:0C1B5400EB602E300D1575822BC007C011
:0C1B600003121526D003D0077842E214CF
:031B6C00F28016EE
:0B1B6F00300E13758220C007C0031267
:0B1B7A001526D003D0077842E214F2D9
:071B8500200B2C7842E2FE68
:0C1B8C008E051E7842EEF2C3EB9D503532
:071B9800300C047D308002D7
:021B9F007D20A7
:0E1BA1008D82C007C006C003121526D003D0E7
:051BAF0006D00780D8FC
:0C1BB4007842C3E2F5F0EB95F0500878A1
:071BC00042E2C39BF2800A20
:061BC7007842E4F2800404
:041BCD007842EEF27A
:041BD1008F018B06EF
:0A1BD5008E051EED602BB2132013E5
:0C1BDF000B09E3C4540FFD7837F28009B5
:091BEB00E3FD53050F7837EDF21C
:0C1BF4007837E2F582C006C001121557D8
:061C0000D001D00680CFE8
:061C0600200B0302160D85
:041C0C007842E2FE3A
:091C10008E051EED700302160D95
:0C1C1900758220C006121526D00680EB54
:081C25008F8212152602160D34
:0A1C2D007838E2F58208E2F5832220
:0B1E0F003C4E4F20464C4F41543E001B
:041C3700AA82AB834F
:081C3B00121D206003A380F8D4
:0C1C4300C3E5829AF582E5839BF58322BD
:0D1C4F0090DF2E74FEF090DF097464F090B9
:0E1C5C00DF0A7425F090DF0BE4F090DF0F74C8
:0E1C6A0043F090DF107487F090DF07740AF0EB
:0E1C780090DF08E4F090DF0C741DF090DF0D9B
:0E1C860074DEF090DF0E7473F090DF1A74B607
:0E1C9400F090DF1B7410F090DF15741DF090BF
:0E1CA200DF16741CF090DF1774C7F090DF1887
:0E1CB000E4F090DF1974B2F090DF1C74EAF0DB
:0E1CBE0090DF1D740AF090DF1EE4F090DF1F2F
:0E1CCC007411F090DF237488F090DF247431DF
:0E1CDA00F090DF257409F090DF037404F090A1
:061CE800DF047445F02248
:0A1CEE0090DF39E023540124FF22A7
:0B1CF80090DF39E0FF747F5FF582226F
:0E1D030090DF3AE0FFC2D575F002EF30E70442
:041D1100B2D5F4044F
:061D15008430D502F40445
:051D1B0024B9F582224D
:03046D0075812274
:0A047000121D3CE5826003020466E1
:0E1D200020F71430F6148883A88220F507E619
:061D2E00A883758300226A
:031D3400E280F753
:031D3700E4932210
:021D3A00E022A5
:041D3C00758200228A
:0E1D400020F71030F6118883A88220F507F6F0
:051D4E00A8837583006D
:011D5300226D
:031D5400F280F723
:021D5700F02278
:0B1D590000000000021D6400000000FC
:041D6400000000007B
:081D6800E5826003D582EA2246
:00000001FF
