:0404000002046D3253
:01040B0032BE
:0104130032B6
:01041B0032AE
:0104230032A6
:01042B00329E
:010433003296
:01043B00328E
:010443003286
:01044B00327E
:010453003276
:01045B00326E
:0304630002164737
:0504C600C200C2017834
:0904CB0000E4F278017401F278FA
:0A04D400027402F278037403F27858
:0A04DE00047404F27805E4F208F259
:0C04E80008F208F27809E4F208F208F2C9
:0C04F40008F2780DE4F208F208F208F2B9
:0A0500007811E4F208F27813E4F237
:0A050A0008F27817E4F208F27819FD
:08051400E4F208F2781BE4F2A6
:0305440002046648
:05046600120C3980FEBC
:0E054700AFFF5307FB8FFF63FF049000C81245
:0605550016987816E4F28E
:06055B007816E2B4140062
:0E056100501463FF041215799000641216986E
:08056F007816E22401F280E499
:08057700AFFF5307FB8FFF22C9
:0E057F00121F1190DF067480F090DF027440AE
:0D058D00F090DF147414F090DF13E4F09090
:0C059A00DF2F741BF090F1687413F07EEA
:0605A600707FF08F06904B
:0705AC00F162EEF07E707FAA
:0C05B300F090F163EEF07ED97F0074DF61
:0E05BF002FFE90F164EEF07ED990F165EEF023
:0D05CD0090F1677441F090F1667420F09099
:0E05DA00F1697440F090F0707440F075E10427
:0105E80022F0
:0E05E90090DF3BE0FFBF0134AFE95307EF8F17
:0C05F700E943D60275E103D20112166C34
:0C060300AC82AD837813ECF208EDF2122B
:0C060F00166CAC82AD83AEF0FF7809ECF5
:0A061B00F208EDF208EEF208EFF22B
:0106250022B2
:0C06260012166CAC82AD83AEF0FF300009
:0C063200277811D3E29CF4B3FEB308E279
:0E063E009DF4FFC3EE9464EF9400500543FF5B
:03064C0002801217
:0B064F00AFFF5307FD8FFFC2008007C4
:07065A00AFFF5307FD8FFF06
:0A0661003001277813D3E29CF4B3B4
:0E066B00FEB308E29DF4FFC3EE9464EF94002A
:07067900500543FF10801241
:0B068000AFFF5307EF8FFFC2018007A0
:07068B00AFFF5307EF8FFFE3
:050692008C088D0975C4
:060697000A00750B00785B
:0A069D000DD3E29508F4B3FAB30898
:0A06A700E29509F4B3FBB308E295F5
:0A06B1000AF4B3FEB308E2950BF45F
:0E06BB00FFC3EA94F4EB9401401463FF04784B
:0606C9000DE508F208E552
:0806CF0009F208E50AF208E552
:0206D7000BF224
:0106D90022FE
:0A06DA007815E4F27800E2B4400263
:0206E400803D57
:0B06E6007800E2FE7F00C006C0077431
:0A06F10032C0E07420C0E07480C045
:0A06FB00E07415C0E074F1C0E0E403
:0E070500C0E0121795AE82E58124F8F58178E8
:0807130015EEF27838EEF290C9
:06071B00F115120E800230
:020721000A507C
:040723007F007E00D5
:03072700BE04000D
:0C072A00505BEEC454F0240F24B1F582A3
:0C073600E434F0F583E0FDBDFF028040DC
:090742008F047D000CBC00010DC8
:0A074B00C004C0057455C0E074201E
:0B075500C0E07480C0E07415C0E074C8
:0C076000F1C0E0E4C0E0121795AC82E5A7
:0A076C008124F8F5817815ECF2788D
:0707760038ECF290F11512BE
:05077D000E80020A508D
:050782000E8E0780A0AF
:020787007F00F1
:03078900BF40006E
:0A078C00501FEF04FE2470FCE4345B
:09079600F0FDEF24B1F582E4341A
:0C079F00F0F583E0FB8C828D83F08E0768
:0207AB0080DCF0
:0607AD001205E9D2001262
:0C07B300166CAC82AD837811ECF208EDFE
:0C07BF00F212166CAC82AD83AEF0FF7835
:0C07CB0005ECF208EDF208EEF208EFF287
:0E07D70090F0B2E0FE7F0090F0B3E0FD7C00F9
:0C07E5007820ED4FF2EC4E08F290F0B4DA
:0E07F100E0FC7D0090F0B5E07A004205EA429F
:0A07FF000490F0B6E0FB781BF290C6
:0A080900F0B7E0FABA1403020A0A7D
:0E081300C005C00490F0B8E0FC7D0090F0B984
:0C082100E0FF7E00781CEF4DF2EE4C086A
:0E082D00F290F0BAE0FE7F0090F0BBE0FD7CA0
:0C083B0000781EED4FF2EC4E08F2BA10EF
:0708470006D004D005802358
:09084E00D004D005BA1102804665
:05085700BA1202806DE1
:06085C00BA13030208F5C7
:06086200BA140302092193
:06086800BA150302094C61
:03086E0002097705
:0A087100C005C004747DC0E07420CF
:0B087B00C0E07480C0E07422C0E07494
:0C088600F0C0E07460C0E0121795E5813E
:0B08920024FAF581D004D0050209A073
:0A089D00C005C0047482C0E074209E
:0B08A700C0E07480C0E07422C0E07468
:0C08B200F0C0E07460C0E0121795E58112
:0B08BE0024FAF581D004D0050209A047
:0A08C900C005C0047488C0E074206C
:0B08D300C0E07480C0E07422C0E0743C
:0C08DE00F0C0E07460C0E0121795E581E6
:0B08EA0024FAF581D004D0050209A01B
:0A08F500C005C004748DC0E074203B
:0B08FF00C0E07480C0E07422C0E07410
:0C090A00F0C0E07460C0E0121795E581B9
:0B09160024FAF581D004D0050209A0EE
:0A092100C005C0047491C0E074200A
:0B092B00C0E07480C0E07422C0E074E3
:0C093600F0C0E07460C0E0121795E5818D
:0A09420024FAF581D004D00580549A
:0A094C00C005C0047495C0E07420DB
:0B095600C0E07480C0E07422C0E074B8
:0C096100F0C0E07460C0E0121795E58162
:0A096D0024FAF581D004D00580299A
:0A097700C005C004749FC0E07420A6
:0B098100C0E07480C0E07422C0E0748D
:0C098C00F0C0E07460C0E0121795E58137
:0809980024FAF581D004D0051A
:0A09A000781BE2FEE23395E0FF78D9
:0A09AA001EE2C0E008E2C0E0781C85
:0C09B400E2C0E008E2C0E07422C0E07481
:0C09C000F0C0E07460C0E0C006C007C0DA
:0C09CC0005C0047820E2C0E008E2C0E0B2
:0A09D80074A7C0E07420C0E0748032
:0A09E200C0E07415C0E074F1C0E03D
:0E09EC00E4C0E0121795AE82E58124EDF5819E
:0909FA007815EEF27838EEF29067
:070A0300F115120E80804680
:0E0A0A00EB3395E0FFC003C007C005C00478C1
:0A0A180020E2C0E008E2C0E074D65E
:0B0A2200C0E07420C0E07480C0E074ED
:0A0A2D0015C0E074F1C0E0E4C0E081
:0C0A3700121795AE82E58124F4F5817859
:080A430015EEF27838EEF29096
:050A4B00F115120E8000
:010A50002283
:0C0A510012166CAC82AD83AEF0FF78058D
:0E0A5D00D3E29CF4B3FCB308E29DF4B3FDB306
:0E0A6B0008E29EF4B3FEB308E29FF4FFC3EC72
:0E0A79009460ED94EAEE9400EF9400500302B6
:020A87000B71F1
:020A89007F00EC
:030A8B00BF0400A5
:050A8E004003020B27EC
:0C0A9300EFC454F0FE0EEE2470F582E477
:0A0A9F0034F0F583EF2401F9E3F0D1
:0A0AA900EE042470F582E434F0F549
:0C0AB30083E4F074022E2470F582E43419
:0A0ABF00F0F583E4F074032E2470B8
:0C0AC900F582E434F0F583E4F074042EB0
:0A0AD5002470F582E434F0F583E4A8
:0A0ADF00F074052E2470F582E43453
:0A0AE900F0F583E4F074062E24708B
:0C0AF300F582E434F0F5837410F07D0708
:030AFF00BD0F0028
:0A0B02005010ED2E2470F582E4344B
:080B0C00F0F583E4F00D80EB2D
:0A0B1400740F2E2470F582E434F013
:090B1E00F58374FFF00F020A8B4D
:080B27001205E974F7C0E07447
:0A0B2F0020C0E07480C0E07415C01F
:0C0B3900E074F1C0E0E4C0E0121795AEDB
:0C0B450082E58124FAF5817815EEF27843
:070B510038EEF290F11512DD
:0D0B58000E8012166CAC82AD83AEF0FF78FB
:0C0B650005ECF208EDF208EEF208EFF2E9
:010B71002261
:0C0B7200120D13E58260327800E2B464DA
:010B7E000076
:0B0B7F00502A120D3DAF827800E224E6
:0A0B8A00B1F582E434F0F583EFF0DA
:0A0B94007800E22401F27800E2B4D8
:020B9E00400015
:0B0BA00040D01206DA7800E4F280C7B3
:010BAB002227
:070BAC0012054712156C123F
:060BB3000F0612057F127F
:0C0BB900166CAC82AD83AEF0FF7805EC4A
:0E0BC500F208EDF208EEF208EFF212166CAC38
:0C0BD30082AD83AEF0FF7809ECF208ED73
:0E0BDF00F208EEF208EFF212166CAC82AD8353
:0C0BED00AEF0FF780DECF208EDF208EE1F
:0E0BF900F208EFF290DF02E0FF7E00C007C0BE
:0A0C0700067433C0E07421C0E074ED
:0A0C110080C0E07415C0E074F1C06B
:0E0C1B00E0E4C0E0121795AE82E58124F8F502
:0A0C2900817815EEF27838EEF290B3
:060C3300F115120E8022F3
:030C3900120BACEF
:070C3C00121579120DA4123C
:060C43000B72120A5112AF
:050C4900062680EF22E9
:0E2032004552524F523A2045787065637465EE
:0E204000642036342062797465732C20676F3B
:07204E00742025640D0A0057
:0E2055004552524F523A20496E76616C6964D2
:0E2063002064656C696D6974657220666F7229
:0C20710020736C6176652025640D0A0068
:05207D0053544F500018
:06208200474F5F544F00C0
:0520880050524550001C
:04208D0052554E005A
:04209100415558005D
:0A20950043414C49425241544500BA
:08209F00554E4B4E4F574E0009
:0E20A700536C617665203120506F733A20280B
:0E20B50025642C2025642C2025642920434D11
:0E20C300442025732025642C2025642C2065E4
:0520D10074630D0A001C
:0E20D6004155583A20536C61766520312050F8
:0E20E4006F733A202825642C2025642C2025BB
:0520F20064290D0A0045
:0E20F7005B54494D454F55545D204E6F20738C
:0E210500657269616C206461746120666F729E
:0E211300203630732C2073656E742053544FA9
:0E2121005020746F20616C6C20736C617665C9
:04212F00730D0A0022
:0E2133004D617374657220576978656C205297
:0E21410065616479202D203420534C415645B1
:0E214F00532048415244434F444544202850F9
:0C215D004B544C454E3D2564290D0A00F2
:06049C00E478FFF6D8FD34
:08047A007909E94400601B7AD6
:05048200019022087842
:03048700827593E8
:0A048A00F1E493F2A308B8000205A4
:0804940093D9F4DAF27593FF2D
:06051C00750C00C202C2D2
:06052200037832E4F278D8
:0905280033E4F2783474FFF27E32
:04053100D77F0C78EC
:0605350035EEF208EFF2C2
:0C0C4E007845740AF275820112150878CE
:0B0C5A00467440F275820412153A78CF
:0B0C6500457440F275820412150878F7
:050C70003474FFF222C4
:0E0C750090F156E0FF53077FBF215590F15AD2
:0E0C8300E0FEA3E0FF4E6006BE0147BF004446
:0A0C910090F157E0FFBF2002800A37
:050C9B00BF21028016DC
:050CA000BF223280229A
:070CA50078437482F2087429
:0A0CAC00F1F29000071214D3801F2C
:070CB60078417482F208741A
:0A0CBD00F1F29000071214B2800E4D
:0C0CC70090F158E0FEA3E07832EEF2124B
:020CD30014F417
:010CD50022FC
:010CD60022FB
:010CD70022FA
:0C0CD8007835E2F58208E2F58312046B27
:0E0CE40090F182E0FCA3E0FDA3E0FEA3E0FFA0
:0D0CF200BC4D1DBD011ABE0017BF0014202F
:050CFF000311D20312F5
:0E0D0400166CAC82AD83AEF0FF90F155ECF0B2
:010D120022BE
:0A0D130090F189E0FFBF1002800597
:050D1D00758200801A40
:0E0D220090DE0E7404F090DE14E0FF30E00965
:090D300090DE16E0FFF58280035D
:030D3900758200C0
:010D3C002294
:0E0D3D0090DE0E7404F090DE28E0FF90DE16CB
:0C0D4B00E0FE700890DE14E054FEFEF0A4
:050D5700D2068F82228C
:0A0D5C00AE82AF837837793BE2F3F3
:0B0D6600783CEEF208EFF275820412F8
:0E0D71000F0790DE16E0FF700890DE14E054CD
:030D7F00FEFFF084
:010D8200224E
:0E0D830090DE0E7404F090DE11E0FF4401F0EB
:080D91007440B50C03D380018E
:010D9900C396
:050D9A009204920275B5
:050D9F000C00D2062249
:070DA400120F7F300319124A
:0E0DAB00166CAC82AD83AEF090F155E0FFEC1B
:0A0DB900C39FFC24B950031215F784
:0A0DC30090F189E0FFBF10028002EA
:020DCD0080792B
:0B0DCF0090DE0E7404F0E50C700B3099
:0A0DDA00020B90DE11E0FF20E103A0
:030DE400120D836A
:0A0DE70090DE0E7401F078337934C9
:090DF100E2F5F0E3B5F002804EDA
:0E0DFA0090DE11E0FF20E04690DE2274A1F0B2
:0E0E08007420F0E4F090DE22F090DE22F090F4
:0C0E1600DE22F090DE227402F0E4F0789E
:0C0E22003390DE22E2F090DE22E4F0903B
:0C0E2E00DE11E04401F07833E2FF5307CE
:0A0E3A00837833EFF27833E2FF789B
:040E440034F2D206AC
:010E48002287
:0A0E490090F189E0FFBF1002800560
:050E53007582008027FC
:0E0E580090DE0E7404F090DE11E0FF30E11227
:090E6600EF30E0057582008010F8
:090E6F007440C3950CF582800764
:070E78007480C3950CF582A4
:010E7F002250
:040E8000AE82AF830C
:0A0E84007838E260517440C3950C09
:0A0E8E00FD7838C3E29D5004783867
:020E9800E2FD79
:0A0E9A00783EEDF2783FEEF208EF2B
:0E0EA400F2758204C007C006C005120F3CD0D4
:0C0EB20005D006D007ED2EFEE43FFF78CF
:090EBE0038E2C39DF2ED250CF5AC
:0A0EC7000C7440B50CB7C007C0065C
:090ED100120D83D006D00780AA9F
:010EDA0022F5
:0B0EDB00E58290DE28F0050C7440B5A5
:050EE6000C03120D8356
:010EEB0022E4
:060EEC007832E2F58222DB
:0A0EF200AF827833E2547C4F78336E
:020EFC00F222E0
:080EFE00AF827833E24FF222CB
:0E2169001201000202000020FB1F00220000F5
:04217700010203015D
:0E217B0009024300020100C032090400000105
:0E2189000202010005240020010424020205C8
:0E219700240600010524010001070581030A4A
:0E21A500000109040100020A00000007050401
:0B21B30002400000070584024000000D
:0121BE00041C
:0421BF000403090408
:0E21C300260350006F006C006F006C0075006A
:0E21D100200043006F00720070006F0072006B
:0A21DF006100740069006F006E00DB
:0C21E9000C0357006900780065006C00D2
:0221F500BF2108
:0221F700C32102
:0221F900E921DA
:0221FB00E603F9
:072208008025000000000822
:04053B00C205C2062D
:010F060022C8
:0E0F0700AF82E4CF25E0CF33FE74202FFF74BD
:0A0F1500DE3EFE783BE2FD783CE290
:040F1F00FB08E2FCED
:0E0F2300ED60131D8F828E83E0FA8B828C832B
:080F3100F0A3AB82AC8380EA5F
:030F3900D20622BB
:0E0F3C00AF82E4CF25E0CF33FE74202FFF7488
:0A0F4A00DE3EFE783EE2FD783FE255
:040F5400FB08E2FCB8
:0E0F5800ED60141D8B828C83E0FAA3AB82AC9B
:090F6600838F828E83EAF080E99A
:010F6F00225F
:0C0F7000C20590DE017401F090DE0B74ED
:030F7C0007F02259
:0D0F7F001216304014AFBE53077F8FBE1214
:080F8C00163990F189E4F0C26E
:040F9400050211A49D
:0E0F980090F189E0FF701312164143BE8000F5
:0C0FA60000000090F1897402F0120F703E
:0E0FB20090DE06E0FF90DE02E0FEEF30E0028F
:020FC000D20558
:0E0FC200EF30E21690F1897404F090F18AE4A9
:0C0FD000F0C007C006120F70D006D0075A
:060FDC00EF30E102C20546
:070FE200EE20E0030211A460
:0C0FE90090DE0EE4F090DE11E0FFD20676
:0E0FF500EF30E40B90DE117480F090F18AE48E
:01100300F0FC
:0D100400EF30E20990DE11E4F090F18AF087
:07101100EF20E00302113A99
:0A10180090F18AE0FEBE01028003A1
:031022000210C0F9
:0E10250090DE16E0FE90F15EE0FCA3E0FD8E92
:0C103300027B00C3EC9AED9B50028C067F
:07103F00783BEEF2783979ED
:0C1046003CE2F308E209F3758200C007E9
:0C105200C006120F07D006D0077839E264
:0E105E002EF208E23400F290F15EE0FCA3E016
:0E106C00FD7B0090F15EECC39EF0ED9BA3F0C7
:0E107A0090F15EE0FDA3E0FE4D600990DE11F6
:061088007440F002113A71
:0E108E0090F156E054606007C007120CD8D0F5
:01109C00074C
:0D109D0090DE0EE4F090F18AE0FE70099004
:0810AA00DE117468F002113A36
:0E10B20090DE117448F090F18AE4F002113AD9
:0B10C00090DE16E0FEBE086C783C7469
:0710CB0056F20874F1F278FF
:0C10D2003B7408F2758200C007120F0783
:0E10DE00D00790F18AE4F090F156E054607073
:0A10EC0009C0071211A5D007800704
:0710F600C007120C75D007C2
:0D10FD0090DE0EE4F090F18AE0FE700890A5
:07110A00DE117460F0802982
:0E111100BE012690F15EE0FDA3E0FE4D6008F9
:08111F0090DE117440F0801312
:0D11270090DE11744AF090F18AE4F0800629
:0611340090DE117440F092
:0D113A00EF20E16690F18AE0FEBE025E90BB
:0E114700F15EE0FDA3E0FEC3ED9420EE940007
:0B11550050097F0A90F18AE4F080044A
:041160007F027D206D
:07116400783EEDF2783979C5
:0C116B003FE2F308E209F3758200C007C0
:0E117700C005120F3CD005D00790DE11EFF03E
:0B1185007839E22DF208E23400F2900D
:0E119000F15EE0FEA3E0FF7C0090F15EEEC396
:06119E009DF0EF9CA3F0A0
:0111A4002228
:0A11A50090F160E4F090F161F09029
:0B11AF00F157E0FF24F3500302145A34
:0711BA00EF2F2F9011C1730C
:0711C1000213840214460230
:0611C800145A0214460255
:0611CE00145A0212BF02D8
:0611D40011E802145A02AA
:0611DA00131D0212E002E9
:0611E000134202145A0242
:0211E600144BA8
:0E11E80090F158E0FEA3E0FFFC7D00BC010585
:0511F600BD00028013A2
:0811FB00BC0205BD00028020CA
:08120300BC0305BD0002803BA5
:03120B0002128A42
:07120E0078397469F20874DD
:0C12150021F290F15E7412F0A3E4F002EC
:02122100129722
:06122300EE600302145A04
:071229007839747BF20874B0
:0C12300021F290217DE493FCA3E493FDE7
:0A123C0090F15EECF0A3EDF080519C
:0E1246008E047D009021BEE493FB7A00C3EC81
:081254009BED9A400302145ABD
:0C125C00E4CE25E0CE33FFEE24F5F58251
:0C126800EF3421F583E493FEA3E493FF30
:0C1274007839EEF208EFF28E828F83E0F2
:0A128000FE90F15EF0A3E4F0800D93
:0B128A00120CD690F18AE0FF70030206
:02129500145AE9
:0E12970090F15CE0FEA3E0FF90F15EE0FCA3AE
:0E12A500E0FDC3EE9CEF9D500890F15EEEF070
:0312B300A3EFF0B6
:0912B60090F18A7402F002145A4E
:0E12BF0090F158E0FEA3E0FF90DE00EEF0EEAE
:0612CD0060047F088002AE
:0212D3007F0496
:0912D50090F189EFF01214F4020B
:0212DE00145AA0
:0E12E00090F158E0FEA3E0FFBE0005BF000243
:0212EE00800876
:0812F000BE0121BF001E8011A8
:0E12F80090F189E0FF24F7501690F1897408F8
:03130600F0800E66
:0B13090090F1897410F0120C4E80036C
:0313140002145A66
:061317001214F402145A46
:0C131D0090F189E0FFBF10047F01800206
:021329007F0043
:08132B0090F160EFF0784174CD
:0A13330060F20874F1F2900001125C
:05133D0014B202145A75
:0813420090F189E0FFBF1000EB
:05134A00500302145ADB
:0B134F0090F15AE0FEA3E0FF7C7B7DE4
:0C135A00218C828D83A3A3A3A3E493FD48
:0C1366007C00C3EE9DEF9C400302145A73
:0713720078417460F2087479
:09137900F1F29000011214B2021D
:02138200145AFB
:0E13840090F156E0541FFE7F00BE0005BF0032
:03139200028014C2
:08139500BE0105BF0002802E1D
:09139D00BE0206BF000302141693
:0313A600021444EA
:0913A90012163650047F01800287
:0213B2007F00BA
:0813B40090F160EFF078417444
:0A13BC0060F20874F1F290000212D2
:0513C60014B202145AEC
:0813CB0090F189E0FFBF100062
:0E13D300500E90F15AE0FEA3E0FF4E600302C0
:0213E100145A9C
:0B13E30090F15AE0FEA3E0FF7C7B7D50
:0C13EE00218C828D83A3A3A3A3E493FDB4
:0B13FA007C00C3EE9DEF9C400280557C
:0714050078417460F20874E5
:0A140C00F1F29000021214B28044C5
:0E14160090F158E0FEA3E0FFEE540F6002805C
:0114240002C5
:02142500803312
:0814270090F189E0FFBF100005
:04142F0050028027C0
:0714330078417460F20874B7
:0A143A00F1F29000021214B28016C5
:02144400801412
:051446001214F4800FF8
:07144B0078417460F208749F
:08145200F1F29000021214B245
:01145A00226F
:03145B00A20522C5
:0C145E00AF8CA2BD9207C2BD438C10AE43
:06146A008C5306FE8E8C7F
:0E147000758900C2C5D2BDAEBE74FC5E4401DB
:0E147E00FE8EBE000000E5BE54036007D29053
:05148C00438701C2903E
:09149100C2BDE58930E702C20585
:0C149A00300509C007121636D00750CAF2
:0C14A600E5BE30E6FB8F8CA20792BD2251
:0E14B200AE82AF8390F18A7402F090F15EEE8C
:0C14C000F0A3EFF07841E2FE08E2FF78B4
:0714CC0039EEF208EFF222F5
:0E14D300AE82AF8390F18A7401F090F15EEE6C
:0C14E100F0A3EFF07843E2FE08E2FF7891
:0714ED0039EEF208EFF222D4
:0E14F40090F18A7401F090F15EE4F0A3F02212
:0615020090F18AE4F022E2
:0C150800E58290DE0EF07845E2FE7F00E8
:0E15140074072EFEE43FFFC423CEC423541FF1
:0C1522006ECE541FCE6ECE30E40244E0CA
:0C152E0090DE10EEF090DE127401F0224E
:0C153A00E58290DE0EF07846E2FE7F00B5
:0E15460074072EFEE43FFFC423CEC423541FBF
:0C1554006ECE541FCE6ECE30E40244E098
:0C15600090DE13EEF090DE157401F02216
:01220F0000CE
:0122100000CD
:05053F0078477480F212
:07156C0012159312157D1208
:06157300168D1216CC22B9
:0415790012161E2206
:07157D00AFBE5307FB8FBE58
:0E158400E5BE30E6FB75C68043BE0475C700A9
:011592002236
:0A15930075FF0075A00675F7992298
:0C159D0012166CAC82AD83AEF0FF7847F4
:0E15A900D3E29CF4FC24E65044E5FFC4540158
:0C15B700FF24FF9209400943FF107582D9
:0415C3000212202AC6
:0E15C700AFF75307EF8FF7AFFF5307EF8FFF1C
:0C15D50075820112202AA2A4920843F79C
:0715E1001030090343FF1065
:0C15E80012166CAC82AD83AEF0FF7847A9
:0215F400ECF217
:0115F60022D2
:0E15F700C2AF75D69F75820A12202A75FF00BA
:0E16050075FE0075FD0075F50075F40075F3B7
:0B1613000090006412169802000622EE
:0E161E00E5FF20E20C75820A12202A30A2039A
:03162C001215F79D
:01162F002298
:0616300012159DA2082224
:03163600A2A3224A
:08163900AFFF5307FE8FFF22F3
:06164100D2A043FF0122CC
:0C164700C0E0C000C0D075D0007848E2C0
:0E1653002401F208E23400F208E23400F2084A
:0B166100E23400F2D0D0D000D0E03224
:0C166C00A2BCE433FFC2BC7848E2FB08DB
:0E167800E2FC08E2FD08E2FEEF24FF92BC8BCC
:07168600828C838DF0EE223F
:0B168D0075EDBBD2BC75EBFAD2AF22AA
:04169800AE82AF83EC
:09169C008E048F051EBEFF011F24
:0E16A500EC4D60227582FAC007C00612202AA2
:0E16B3007582FA12202A7582FA12202A758298
:0A16C100F912202AD006D00780D1CC
:0116CB0022FC
:0804A2007870E84400600A795B
:0304AA0000759347
:0604AD00F0E4F309D8FCA5
:0804B3007812E84401600C79A5
:0B04BB000290F000E4F0A3D8FCD9FA96
:0716CC0075D26275D3F12213
:0A16D300C00D85810DC08205810560
:0A16DD00810581E50D24FBF8A90D3D
:0D16E7000909E6F70809E6F70809E6F7A883
:0C16F4000D080886820886830886F01224
:0A1700001FE2FAA3121FE2FBA3127E
:0D170A001FE2FF74012AFCE43BFD8F06A8DE
:0C1717000D080886820886830886F0EC26
:0B172300122002A3ED122002A3EE1220
:0C172E0020028A828B838FF0A80D08E651
:07173A00122002850D81D091
:021741000D2277
:0C174300AFF0AE83E5827850F208EEF2C1
:0A174F0008EFF2785F7450F208E42E
:0A175900F2087460F2784C7962E245
:0C176300F308E209F308E209F3784F797B
:07176F0065E2F39016D312AE
:0C17760018AAAE82AF837850E2FB08E2B4
:0E178200FC08E2FD8B828C838DF0E4122002C5
:051790008E828F832210
:06179500C00D85810DE589
:07179B000D24F87865F2E56A
:0A17A2000D24FB785FF208E4F20862
:0A17AC007440F2E50D24F8F87962AC
:0E17B600E6F30809E6F30809E6F39016D312ED
:0C17C40018AAAE82AF83E50D24FBF88666
:0E17D000030886040886058B828C838DF0E466
:0A17DE001220028E828F83D00D22AC
:02046B00E47338
:0C17E8007855E2C0E008E2C0E008E2C072
:0A17F400E07407C0E07418C0E0784C
:0917FE0053E2C0E008E2C0E02261
:0C180700158115811581785DE22401F245
:0618130008E23400F2229D
:0E181900AF8274302FFF24C6500A74072FFFD1
:06182700300A0343072014
:05182D008F820217E8A4
:0E183200E582FFC4540FF582C007121819D0CA
:0918400007740F5FF5820218190C
:0A184900AF827858E2F51308E2F5CB
:081853001408E2F51508E2F5A6
:07185B0016785CE2FA7E2022
:0C186200EA2AFAE516235401FD8A04422C
:08186E00048C02E5132513F5BB
:0518760013E51433F539
:05187B0014E51533F532
:0518800015E51633F52B
:0B18850016C3EA9F4007EAC39FFA4326
:02189000130142
:09189200DECE7858E513F208E5FA
:08189B0014F208E515F208E55E
:0718A30016F2785CEAF22264
:0C18AA00AE82AF837853EEF208EFF278C4
:0A18B6005FE2FD08E2FE08E2FF78A1
:0A18C00055EDF208EEF208EFF278A1
:0518CA005DE4F208F2EC
:0C18CF007862E2FD08E2FE08E2FF8D8274
:0C18DB008E838FF0121FE2FC7862740113
:0E18E7002DF2E43E08F208EFF2ECFF7003026F
:0218F5001EEFE4
:0518F700BF2502800383
:0318FC00021EE7E2
:0518FF00C20BC20CC287
:041904000DC20EC240
:041908000FC210C238
:04190C0011C212787A
:0A19100066E4F27867E4F27CFF78E9
:09191A0062E2FA08E2FB08E2FEB9
:0E1923008A828B838EF0121FE2FFA3AA82AB92
:0C193100837862EAF208EBF208EEF2BFE5
:09193D0025078F821217E880894A
:091946008F0E74D0250E5037E518
:0C194F000E24C64031BCFF22C002C003C1
:0C195B00C0067867E275F00AA42F24D0C3
:0A1967007867F2D006D003D00278B2
:0819710067E270AED20C80AAFF
:0C197900EC75F00AA4FD2F24D0FC809E29
:0A198500BF2E07BCFF987C00809481
:09198F008F0E749F250E500DE52A
:0A1998000E248540075307DFD20A32
:0219A2008002C1
:0219A400C20A75
:0519A600BF2002806D6E
:0519AB00BF2B02806368
:0519B000BF2D0280596B
:0519B500BF4202806347
:0519BA00BF430280683C
:0619BF00BF4403021BCA35
:0619C500BF4603021BE80F
:0619CB00BF4803021923CE
:0619D100BF4903021BCA1E
:0619D700BF4A03021923C0
:0519DD00BF4C02804038
:0619E200BF4F03021BD3FE
:0619E800BF5003021B5377
:0519EE00BF5302806000
:0619F300BF54030219239A
:0619F900BF5503021BDADA
:0619FF00BF5803021BE1CA
:061A0500BF5A0302192381
:031A0B00021BECCF
:051A0E00D20B021923B8
:051A1300D20D021923B1
:051A1800D20E021923AB
:051A1D00D210021923A4
:051A2200D2110219239E
:091A270030100E7865E214FE781F
:081A300065F28E0187078013A7
:0A1A38007865E224FEFE7865F28E68
:091A4200018703098706198B07CF
:081A4B008F821217E8021BF75D
:0A1A53007865E224FDFE7865F28E4E
:0C1A5D0001870209870309870619197820
:0C1A690058EAF208EBF208EEF28A828BD9
:0E1A7500838EF0C004121EF9AB82AE83D00443
:051A8300BCFF028B0412
:0A1A8800200B377867C3E2F5F0EB9E
:0B1A920095F0502C7867E2C39BF278BF
:031A9D0067E2FEFF
:0C1AA0008E021E7867EEF2EA6014758278
:0E1AAC0020C006C004C0031217E8D003D00407
:041ABA00D00680E2F0
:041ABE007867EEF265
:021AC2008C0690
:0C1AC400C0037858E2FA08E2FB08E2FCDC
:0E1AD0008A828B838CF0121FE2FAFFD003EAA9
:0E1ADE00603C8E041EC3E464808CF063F080D4
:0D1AEC0095F0502CC0038F82C006C003127D
:0C1AF90017E8D003D0067858E2FA08E2A3
:091B0500FB08E2FC0ABA00010B26
:0C1B0E007858EAF208EBF208ECF2D00381
:021B1A0080A8A1
:061B1C00200B03021BF781
:0C1B22007867C3E2F5F0EB95F040030299
:021B2E001BF7A3
:0A1B30007867E2C39BF27867E2FEDB
:0B1B3A008E041E7867EEF2EC700302D0
:021B45001BF390
:0C1B4700758220C0061217E8D00680E767
:0A1B53007865E224FDFC7865F28C51
:0C1B5D000187020987040987051919781F
:0A1B690058EAF208ECF208EDF278F9
:061B73005AE2FFBF8000F2
:061B790040047F438014CC
:031B7F00BF600044
:061B820040047F50800BBF
:031B8800BF40005B
:061B8B0040047F498002C6
:021B91007F587B
:0E1B93008F82C0071217E875823A1217E875A4
:0E1BA10082301217E87582781217E8D007BF5D
:041BAF004902800D5A
:051BB300BF5002800894
:081BB8007859E2F5821218329F
:0A1BC0007858E2F582121832802DE9
:091BCA00D20F7866740AF280243F
:071BD30078667408F2801D22
:071BDA007866740AF2801620
:071BE10078667410F2800F1A
:041BE800D212800B8A
:071BEC008F821217E880044C
:041BF3007867EEF22F
:0A1BF7003012737865E224FCFE78DA
:081C010065F28E01870F0987CF
:061C090010098711098794
:071C0F00121919197858E5BC
:081C16000FF208E510F208E5E9
:071C1E0011F208E512F27853
:061C25005874FDF2087482
:061C2B0021F2087480F2B2
:081C31007858E2F50F08E2F516
:081C39001008E2F51174012509
:071C41000FFAE43510FCAEC0
:0A1C4800117858EAF208ECF208EEF9
:081C5200F2850F8285108385E5
:0A1C5A0011F0121FE2FEFF700302FA
:021C640018CF97
:071C66008F821217E880C411
:081C6D007866E270030218CF53
:081C75007F6E30104CC00778AF
:0A1C7D0065E214FC7865F28C01E7C3
:0C1C8700FA3395E0FCFDFE7858EAF20804
:0C1C9300ECF208EDF208EEF2D007300F82
:041C9F0003021D41DE
:0C1CA300C0077858E2FA08E208E208E204
:0C1CAF007C007D007E007858EAF208EC12
:0B1CBB00F208EDF208EEF2D007807B8B
:0A1CC60030112CC0077865E224FC01
:0C1CD000FD7865F28D0187020987040988
:0C1CDC0087050987061919197858EAF2E3
:0D1CE80008ECF208EDF208EEF2D007804C97
:0A1CF500C0077865E224FEFD786563
:0E1CFF00F28D01870409870519EDFA3395E08F
:0C1D0D00FDFE7858ECF208EAF208EDF256
:0B1D190008EEF2D007200F20C0077872
:0C1D240058E2FA08E2FC08E208E27D0048
:0C1D30007E007858EAF208ECF208EDF2B0
:051D3C0008EEF2D007E3
:0A1D4100300F2E7858E2FA08E2FC99
:0E1D4B0008E2FD08E2FE30E71CC3E49AFAE469
:0C1D59009CFCE49DFDE49EFE7858EAF23C
:0B1D650008ECF208EDF208EEF280023C
:021D7000C20FA0
:081D7200D2138F017868E4F23E
:0A1D7A00785CE4F27866E2F582C0BE
:0A1D840001121849D00120130E7857
:0C1D8E005CE2C4FDE3FC4DF31989078002
:011D9A000543
:051D9B00785CE2FDF39D
:0A1DA0007868E22401F27868E2FBA3
:0A1DAA00B2137858E2FA08E2FC08D0
:0E1DB400E2FD08E2FEEA4C4D4E70BB89077856
:091DC20068E2FB7867E270057825
:041DCB00677401F246
:0A1DCF00200C2C200B29EB04FE78F9
:031DD90067E2FDC1
:0E1DDC00C3EE9D5019758220C007C006C005D9
:0E1DEA00C0031217E8D003D005D006D0071DA5
:021DF80080E287
:041DFA007867EDF227
:0B1DFE00300F1575822DC007C00312C6
:0C1E090017E8D003D0077867E214F280DD
:011E1500319B
:0C1E1600EB602E300D1575822BC007C04C
:0C1E2200031217E8D003D0077867E21421
:031E2E00F2801629
:0B1E3100300E13758220C007C00312A2
:0B1E3C0017E8D003D0077867E214F22B
:071E4700200B2C7867E2FE7E
:0C1E4E008E051E7867EEF2C3EB9D503548
:071E5A00300C047D30800212
:021E61007D20E2
:0E1E63008D82C007C006C0031217E8D003D05E
:051E710006D00780D837
:0C1E76007867C3E2F5F0EB95F0500878B7
:071E820067E2C39BF2800A36
:061E89007867E4F280041A
:041E8F007867EEF290
:041E93008F018B062A
:0A1E97008E051EED602BB213201320
:0C1EA1000B09E3C4540FFD785CF28009CB
:091EAD00E3FD53050F785CEDF232
:0C1EB600785CE2F582C006C00112181929
:061EC200D001D00680CF24
:061EC800200B030218CFFD
:041ECE007867E2FE51
:091ED2008E051EED70030218CF0D
:0C1EDB00758220C0061217E8D00680EBCC
:081EE7008F821217E80218CFE8
:0A1EEF00785DE2F58208E2F5832237
:0B21FD003C4E4F20464C4F41543E002A
:041EF900AA82AB838B
:081EFD00121FE26003A380F84C
:0C1F0500C3E5829AF582E5839BF58322F8
:0D1F110090DF2E74FEF090DF097464F090F4
:0E1F1E00DF0A7425F090DF0BE4F090DF0F7403
:0E1F2C0043F090DF107487F090DF07740AF026
:0E1F3A0090DF08E4F090DF0C741DF090DF0DD6
:0E1F480074DEF090DF0E7473F090DF1A74B642
:0E1F5600F090DF1B7410F090DF15741DF090FA
:0E1F6400DF16741CF090DF1774C7F090DF18C2
:0E1F7200E4F090DF1974B2F090DF1C74EAF016
:0E1F800090DF1D740AF090DF1EE4F090DF1F6A
:0E1F8E007411F090DF237488F090DF2474311A
:0E1F9C00F090DF257409F090DF037404F090DC
:061FAA00DF047445F02283
:0A1FB00090DF39E023540124FF22E2
:0B1FBA0090DF39E0FF747F5FF58222AA
:0E1FC50090DF3AE0FFC2D575F002EF30E7047E
:041FD300B2D5F4048B
:061FD7008430D502F40481
:051FDD0024B9F5822289
:03046D0075812274
:0A047000121FFEE58260030204661D
:0E1FE20020F71430F6148883A88220F507E655
:061FF000A88375830022A6
:031FF600E280F78F
:031FF900E493224C
:021FFC00E022E1
:041FFE0075820022C6
:0E20020020F71030F6118883A88220F507F62B
:05201000A883758300A8
:0120150022A8
:03201600F280F75E
:02201900F022B3
:0B201B00000000000220260000000072
:0420260000000000B6
:08202A00E5826003D582EA2281
:00000001FF
