:0404000002048D3233
:01040B0032BE
:0104130032B6
:01041B0032AE
:0104230032A6
:01042B00329E
:010433003296
:01043B00328E
:010443003286
:01044B00327E
:010453003276
:01045B00326E
:03046300021886F6
:01046B00325E
:010473003256
:01047B00324E
:03048300020C6800
:0404E6007802E4F2C2
:030530000204863C
:050486001208E780FEF2
:0E053300121AF890DF3BE0FFBF110543FF02F4
:02054100800731
:07054300AFFF5307FD8FFF1E
:0A054A0012095B500543FF0480070F
:07055400AFFF5307FB8FFF0F
:01055B00227D
:0E055C00E582540FFF24F6400A8F0674302EFD
:05056A00FEF582800592
:05056F0074372FF58236
:010574002264
:0E0575001209EBAE82AF838E048F05EE4F703D
:04058300030206CD9C
:0E058700C005C004121088AF82D004D0058CCD
:0E059500828D83E075F002A4241EFBE435F095
:0E05A300FE7A00C3EF9BEA64808EF063F08066
:0705B10095F050030206CD96
:0E05B800C005C004120A0CAF827E00C007C04E
:0A05C600067443C0E07423C0E07423
:0A05D00080C0E07449C0E074F0C080
:0E05DA00E0E4C0E01219D4AE82AF83E58124C4
:0C05E800F8F581D004D0057800EEF27820
:0305F40001E4F22D
:0C05F7008C828D83E0FB7801C3E29B4006
:040603000302069058
:0A0607007800E2FB7800E22401F223
:09061100EB2449FBE434F0FA7813
:0A061A0001E2FE7F000EBE00010F9A
:0E062400EE2CFEEF3DFFC004C0058E828F83DA
:0E063200E0C4540FF582C007C006C004C00328
:0E064000C00212055CAD82D002D003D004D0FF
:0C064E0006D0078B828A83EDF07800E272
:0A065A00FD7800E22401F2ED2449CE
:0C066400FDE434F0FC8E828F83E0F58210
:0E067000C005C00412055CAF82D004D0058D19
:0C067E00828C83EFF07801E22401F2D0BE
:06068A0005D0040205F793
:0A0690007800E2FF7800E22401F296
:0A069A00EF2449F582E434F0F58303
:0A06A400740DF07800E2FF7800E228
:0A06AE002401F2EF2449F582E43440
:0A06B800F0F583740AF0120A1F78AF
:0606C20000790FE2F39045
:0506C800F0491210BF13
:0B06CD00300217121088AF82BF0B0034
:0806D800400DC20290233778A7
:0706E0000F740BF21210BFB2
:0106E70022F0
:0D06E80090F0C97454F090F0CA7458F0906E
:0C06F500F0CB7420F090F0CC746EF0900C
:0C070100F0CD746FF090F0CE7474F090A6
:0C070D00F0CF7420F090F0D07461F090F8
:0C071900F0D17476F090F0D27461F09092
:0C072500F0D37469F090F0D4746CF09084
:0C073100F0D57461F090F0D67462F09086
:0C073D00F0D7746CF090F0D87465F09068
:0C074900F0D97421F090F0DA740DF090FB
:0B075500F0DB740AF090F0DCE4F0121E
:090760000F52E58270030208E665
:08076900121088AF82BF3200BC
:0507710050030208E640
:0E077600120F7CAD82BD3F6090DF3BE0FE7D48
:0507840000851108755D
:0407890009008510CE
:05078D000A750B008558
:030792000F0C75D4
:0A0795000D00AA0E7C00C006C0058E
:05079F00C008C009C004
:0407A4000AC00BC0BC
:0807A8000CC00DC002C0047476
:0A07B0004CC0E07423C0E07480C068
:0A07BA00E074DDC0E074F0C0E0E47C
:0E07C400C0E01219D4AD82E58124F0F58178F1
:0707D2000FEDF290F0DD12C3
:0507D90010BF0208E65C
:0307DE00BD6100FA
:0507E10050030208E6D0
:0807E600ED249850030208E61F
:0C07EE00C0051209747803E582F208E5EA
:0C07FA0083F2D0057803E2F5F008E24538
:0C080600F0700E780F7414F290F0C9121C
:0508120010BF0208E622
:0C0817007803E2F58208E2F5837403F038
:0C0823007803E22401FB08E23400FC8BA7
:0C082F00828C83EDF07803E22402FA08CA
:0C083B00E23400FFED048A828F83F07825
:0A08470003E22403F50C08E234007C
:09085100F50D74022D850C828561
:0A085A000D83F07802E2F582C0077A
:0E086400C004C003C002120998D002D003D015
:0A08720004D007850C82850D83E099
:0E087C00FE7D008A828F83E0FA7F008B828CE3
:09088A0083E0FB8B0C750D007876
:0C08930002E2FB7C00C006C005C002C0F1
:0A089F0007C00CC00DC003C00474B4
:0A08A9006BC0E07423C0E07480C04F
:0A08B300E074DDC0E074F0C0E0E482
:0E08BD00C0E01219D4AE82E58124F2F58178F4
:0708CB000FEEF290F0DD12C8
:0908D20010BF7802E2B40F0678B1
:0508DB0002E4F28006BA
:0608E0007802E22401F29F
:0108E60022EF
:0708E7001217AB12114512BC
:0E08EE0009141222D743FEC090DF307408F0C8
:0608FC0090DF2F741BF0D9
:070902001217B812053312B1
:0609090005751206E8125C
:05090F000FE380EF2260
:0C23370052583A2052455345540D0A00FC
:0923430052583A202532642000B2
:0E234C003F2052583D25642F25642C20545804
:0E235A003D25642F25642C204D3D2530327822
:032368000D0A005B
:0E236B0054583A20253264202530327825302F
:092379003278253032780D0A009B
:0704EA00750E00750F00758F
:0604F100100075110075FA
:0504F7001200C200C26A
:0104FC0001FE
:060914001222EFD203C223
:0C091A000490DF027413F0902382E49339
:0E092600FC74019374029374039390DF06EC4B
:07093400F0D201120D8FD279
:05093B0000120D8922ED
:0A094000E512243750047FFA80020C
:02094A007F012B
:0E094C00C007120E50E582D00754032FF5822B
:01095A00227A
:04095B00A200B32221
:0A095F00E511C3951014540FF58242
:01096900226B
:0A096A00E510C39511540FF5822229
:0C09740012095FE58270059000008017FA
:0A098000E51075F014A4249FFE7426
:09098A00F135F0FF0EBE00010F73
:040993008E828F833E
:01099700223D
:0A099800AF82E51075F014A4249F4F
:0A09A200FD74F135F0FEE51075F06C
:0A09AC0014A4249FFB74F135F0FC45
:0E09B6008B828C83A3E0FC0C8D828E83ECF090
:0A09C400E51075F014A4249FFD74E3
:0C09CE00F135F0FE8D828E83A3EF2FFF29
:0A09DA00F0740FB5100575100080D1
:0109E4000210
:0209E5000510FB
:0409E700120D892242
:0A09EB00E50FB50E05900000801620
:0A09F500E50E75F016A4245DFEE483
:0809FF0034F1FF0EBE00010FF0
:040A07008E828F83C9
:010A0B0022C8
:0A0A0C00E50E75F016A4245DF582D6
:090A1600E434F1F583E0F58222DD
:0A0A1F007402B50E05750E0080028A
:020A2900050EB8
:010A2B0022A8
:0D0A2C0090F2DF7401F090F2E074C0F090E1
:080A3900F2DF120E1174012519
:050A4100124002051245
:010A4600228D
:0A0A4700AF82E51175F014A4249F9E
:0B0A5100FD74F135F0FE0DBD00010E3C
:0A0A5C00E51175F014A4249FFB744B
:0C0A6600F135F0FC8B828C83A3E0541E61
:0C0A72004207A204E43342078D828E8309
:0A0A7E00EFF0E51175F014A4249FB9
:0C0A8800F58274F135F0F583120E117444
:070A940001251240020512CA
:010A9B002238
:070A9C00300007120A2CD202
:030AA300058027A4
:070AA600E510B51102800A02
:0A0AAD00758200120A47D205801678
:0A0AB700E50F75F016A4245DF5822A
:0A0AC100E434F1F5837807E4F21243
:020ACB000DB369
:010ACD002206
:0B0ACE00AF82BF2106120A9C020C67D9
:0A0AD900BF1E28E50F75F016A424D7
:0A0AE3005DFDE434F1FEC006C0051D
:0C0AED00120940AC82D005D0067807EC5E
:0B0AF900F28D828E83120DB3020C6799
:050B0400BF1F02800389
:030B0900020C617A
:090B0C00E50F75F016A47805242C
:080B15005DF2E434F108F21274
:070B1D001AC64031E510B5D6
:040B24001102801723
:0A0B2800120940AC827807ECF27865
:0C0B320005E2F58208E2F583120DB380A5
:010B3E0010A6
:0A0B3F007807E4F27805E2F5820879
:060B4900E2F583120DB37A
:030B4F00020C672E
:0C0B52007805E22401FB08E23400FC8B73
:0D0B5E00828C83E0FA74C05AFEBEC01BD228
:040B6B0003D202901F
:0C0B6F00F2DF7401F090F2E07480F0906E
:060B7B00F2DF120E11D2A0
:040B810005020C67F6
:0D0B8500C003C00474C05AFCBC800280068E
:060B9200D004D0038038FE
:090B9800D004D003100002800714
:070BA100751200C204802858
:070BA800E510B511028021E8
:0A0BAF00740FB511057511008002E6
:020BB900051124
:0A0BBB00C003C004751200A204E498
:0B0BC50033640124FF9204D004D0032D
:0B0BD0007805E2F58208E2F583E0F50D
:0A0BDB001324FE507C7E80200114DC
:0C0BE500C00674015AFDA203E433FEB503
:060BF1000504D00680425D
:020BF700D00626
:090BF9007402B50F047D008004B4
:040C0200E50F04FDF9
:060C0600EDB50E02802B8B
:0A0C0C00C006EA540124FF9203C25F
:0A0C16000153021EEAC313FAE513AE
:0C0C2000148B828C83F07805E2F58208CA
:0B0C2C00E2F583EAF08D0FD006800295
:020C37007E40FD
:070C3900E510B51102800770
:070C40008E82120A478011A9
:0C0C470090F2DF7401F090F2E0EEF0900B
:050C5300F2DF120E119A
:040C5800D20580033E
:030C5C00120A9CDD
:020C5F0080060D
:060C6100BF2003120A9CF3
:010C6700226A
:0423820080000000D7
:0604FD00751400C206C2E6
:0305030007C20824
:0C0C6800C024C0E0C0F0C082C083C00700
:0E0C7400C006C005C004C003C002C001C0001D
:0E0C8200C0D0E4F5D0F59BE5E930E41874032A
:0B0C9000B5140875821E120D27800BA2
:0B0C9B007402B5140675821F120D27AD
:0B0CA600E5E930E506758220120D27FD
:0A0CB1003006427403B51402804FB0
:0C0CBB007402B5142390DF3BE0FFBF0D76
:0E0CC7001B90DF3CE0FF20E33A90DF12E0FFDD
:080CD500530707BF0702800668
:060CDD0074F625A4502767
:0A0CE30090DF3BE0FFBF0D0280032D
:030CED0075E104AA
:060CF000758221120D27A0
:0A0CF600E5E930E705D20875E97F53
:0A0D0000E5E930E605D20775E9BF0A
:0E0D0A00D0D0D000D001D002D003D004D0054C
:0D0D1800D006D007D083D082D0F0D0E0D03C
:020D2500243276
:0C0D2700AF8290DF3BE0FEBE1202801E97
:0A0D330090DF3BE0FEBE01028014D9
:0E0D3D0090DF3BE0FE600D90DF3BE0FEBE1558
:030D4B0002800320
:030D4E0075E1004C
:0C0D510075D682AED15306FD8ED175140C
:0E0D5D000290DF127407F08F82120ACE75E941
:080D6B00CFAF14BF02028005A6
:050D7300BF0310800821
:080D780043D60275E10280067A
:060D800043D60275E103F9
:030D8600C2062280
:060D8900D206439B032289
:0E0D8F00121A2790DF147414F090DF1374050D
:0E0D9D00F090DF127407F0439A017591F0D2C6
:080DAB00AF90F2F47413F02282
:0C0DB300AE82AF837807E2601290DF127E
:0C0DBF00E4F075A2007807E2F5A475A32B
:030DCB000080069F
:060DCE0090DF127407F033
:0E0DD4007CD97D0074DF2DFC90F2EEECF07CFB
:0E0DE200D990F2EFECF08F0590F2F0EDF0906A
:0D0DF000F2F1EEF090DF02E0FF0F0F0F9028
:0B0DFD00F2F3EFF090F2F27480F0903F
:090E0800F2F57410F075140222D9
:0E0E1100AE82AF838F0590F2EEEDF090F2EF1F
:0E0E1F00EEF07ED97F0074DF2FFE90F2F0EE31
:0E0E2D00F07ED990F2F1EEF090DF02E0FF0FC0
:0C0E3B0090F2F3EFF090F2F27420F090CF
:090E4700F2F57440F07514032269
:0604BC00E478FFF6D8FD14
:080E5000E5B4540C600280F8C7
:0C0E580085BC82743055B44407F5B42208
:0A0E6400AF827808E27003EF600926
:090E6E007808E2B40308BF800516
:050E7700780874AAF2E6
:0B0E7C008FBC7808E2F5BC120E50128B
:060E87000E50120E502275
:08049A007909E94400601B7AB6
:0504A200019024257803
:0304A7000E75933C
:0A04AA00F3E493F2A308B800020582
:0804B40093D9F4DAF27593FF0D
:06050600751500C209C2D8
:06050C000A7809E4F27810
:090512000AE4F2780B74FFF27E9A
:04051B00167F0F78C0
:06051F000CEEF208EFF201
:0C0E8D00781C740AF27582011217477875
:0B0E99001D7440F27582041217797876
:0B0EA4001C7440F2758204121747789E
:050EAF000B74FFF222AC
:0E0EB40090F2E2E0FF53077FBF215590F2E677
:0E0EC200E0FEA3E0FF4E6006BE0147BF004405
:0A0ED00090F2E3E0FFBF2002800A69
:050EDA00BF210280169B
:050EDF00BF2232802259
:070EE400781A740EF2087485
:0A0EEB00F3F2900007121712801FA7
:070EF5007818740EF2087476
:0A0EFC00F3F29000071216F1800EC9
:0C0F060090F2E4E0FEA3E07809EEF212A5
:020F1200173393
:010F140022BA
:010F150022B9
:010F160022B8
:0C0F1700780CE2F58208E2F58312048BEE
:0E0F230090F30EE0FCA3E0FDA3E0FEA3E0FFD0
:0D0F3100BC4D1DBD011ABE0017BF001420ED
:050F3E000A11D20A12A5
:0E0F430018ABAC82AD83AEF0FF90F2E1ECF0A3
:010F5100227D
:0A0F520090F315E0FFBF10028005C8
:050F5C00758200801AFF
:0E0F610090DE0E7404F090DE14E0FF30E00924
:090F6F0090DE16E0FFF58280031C
:030F78007582007F
:010F7B002253
:0E0F7C0090DE0E7404F090DE28E0FF90DE168A
:0C0F8A00E0FE700890DE14E054FEFEF063
:050F9600D20D8F822244
:0A0F9B00AE82AF83780E7912E2F304
:0B0FA5007813EEF208EFF275820412E0
:0E0FB000114690DE16E0FF700890DE14E0544B
:030FBE00FEFFF043
:010FC100220D
:0E0FC20090DE0E7404F090DE11E0FF4401F0AA
:080FD0007440B51503D3800144
:010FD800C355
:050FD900920B92097566
:050FDE001500D20D22F8
:070FE3001211BE300A1912C1
:0E0FEA0018ABAC82AD83AEF090F2E1E0FFEC0C
:0A0FF800C39FFC24B9500312183601
:0A10020090F315E0FFBF100280021A
:02100C008079E9
:0B100E0090DE0E7404F0E515700B304E
:0A101900090B90DE11E0FF20E10357
:03102300120FC2E7
:0A10260090DE0E7401F0780A790BD9
:09103000E2F5F0E3B5F002804E98
:0E10390090DE11E0FF20E04690DE2274A1F070
:0E1047007420F0E4F090DE22F090DE22F090B3
:0C105500DE22F090DE227402F0E4F0785D
:0C1061000A90DE22E2F090DE22E4F09023
:0C106D00DE11E04401F0780AE2FF5307B6
:0A10790083780AEFF2780AE2FF78AC
:041083000BF2D20D8D
:011087002246
:0A10880090F315E0FFBF1002800591
:051092007582008027BB
:0E10970090DE0E7404F090DE11E0FF30E112E6
:0910A500EF30E0057582008010B7
:0910AE007440C39515F58280071A
:0710B7007480C39515F5825A
:0110BE00220F
:0410BF00AE82AF83CB
:0A10C300780FE260517440C39515E8
:0A10CD00FD780FC3E29D5004780F78
:0210D700E2FD38
:0A10D9007815EDF27816EEF208EF3C
:0E10E300F2758204C007C006C00512117BD052
:0C10F10005D006D007ED2EFEE43FFF788E
:0910FD000FE2C39DF2ED2515F58B
:0A110600157440B515B7C007C00608
:09111000120FC2D006D00780AA1C
:0111190022B3
:0B111A00E58290DE28F005157440B55A
:051125001503120FC2CA
:01112A0022A2
:06112B007809E2F58222C2
:0A113100AF82780AE2547C4F780A7E
:02113B00F2229E
:08113D00AF82780AE24FF222B2
:0E2386001201000202000020FB1F00220000D6
:04239400010203013E
:0E23980009024300020100C0320904000001E6
:0E23A6000202010005240020010424020205A9
:0E23B400240600010524010001070581030A2B
:0E23C200000109040100020A000000070504E2
:0B23D0000240000007058402400000EE
:0123DB0004FD
:0423DC0004030904E9
:0E23E000260350006F006C006F006C0075004B
:0E23EE00200043006F00720070006F0072004C
:0A23FC006100740069006F006E00BC
:0C2406000C0357006900780065006C00B2
:02241200DC23C9
:02241400E023C3
:0224160006249A
:02241800E603D9
:072425008025000000000803
:04052500C20CC20D35
:011145002287
:0E114600AF82E4CF25E0CF33FE74202FFF747C
:0A115400DE3EFE7812E2FD7813E2A1
:04115E00FB08E2FCAC
:0E116200ED60131D8F828E83E0FA8B828C83EA
:08117000F0A3AB82AC8380EA1E
:03117800D20D2273
:0E117B00AF82E4CF25E0CF33FE74202FFF7447
:0A118900DE3EFE7815E2FD7816E266
:04119300FB08E2FC77
:0E119700ED60141D8B828C83E0FAA3AB82AC5A
:0911A500838F828E83EAF080E959
:0111AE00221E
:0C11AF00C20C90DE017401F090DE0B74A5
:0311BB0007F02218
:0D11BE0012186F4014AFBE53077F8FBE1292
:0811CB00187890F315E4F0C25E
:0411D3000C0213E314
:0E11D70090F315E0FF701312188043BE8000E5
:0C11E50000000090F3157402F01211AF2E
:0E11F10090DE06E0FF90DE02E0FEEF30E0024E
:0211FF00D20C10
:0E120100EF30E21690F3157404F090F316E44B
:0C120F00F0C007C0061211AFD006D007D7
:06121B00EF30E102C20CFD
:07122100EE20E0030213E3DD
:0C12280090DE0EE4F090DE11E0FFD20D2D
:0E123400EF30E40B90DE117480F090F316E4BE
:01124200F0BB
:0D124300EF30E20990DE11E4F090F316F0B8
:07125000EF20E00302137917
:0A12570090F316E0FEBE01028003D2
:031261000212FF77
:0E12640090DE16E0FE90F2EAE0FCA3E0FD8EC4
:0C127200027B00C3EC9AED9B50028C063E
:07127E007812EEF2781079FE
:0C12850013E2F308E209F3758200C007D1
:0C129100C006121146D006D0077810E20B
:0E129D002EF208E23400F290F2EAE0FCA3E048
:0E12AB00FD7B0090F2EAECC39EF0ED9BA3F0F9
:0E12B90090F2EAE0FDA3E0FE4D600990DE1128
:0612C7007440F0021379EF
:0E12CD0090F2E2E054606007C007120F17D0E5
:0112DB00070B
:0D12DC0090DE0EE4F090F316E0FE70099035
:0812E900DE117468F0021379B4
:0E12F10090DE117448F090F316E4F0021379C9
:0B12FF0090DE16E0FEBE086C78137451
:07130A00E2F20874F2F27830
:0C131100127408F2758200C00712114629
:0E131D00D00790F316E4F090F2E2E054607016
:0A132B0009C0071213E4D007800781
:07133500C007120EB4D0073F
:0D133C0090DE0EE4F090F316E0FE700890D5
:07134900DE117460F0802941
:0E135000BE012690F2EAE0FDA3E0FE4D60082B
:08135E0090DE117440F08013D1
:0D13660090DE11744AF090F316E4F080065A
:0613730090DE117440F051
:0D137900EF20E16690F316E0FEBE025E90EC
:0E138600F2EAE0FDA3E0FEC3ED9420EE940039
:0B13940050097F0A90F316E4F080047B
:04139F007F027D202C
:0713A3007815EDF2781079D6
:0C13AA0016E2F308E209F3758200C007A8
:0E13B600C00512117BD005D00790DE11EFF0BC
:0B13C4007810E22DF208E23400F290F5
:0E13CF00F2EAE0FEA3E0FF7C0090F2EAEEC33B
:0613DD009DF0EF9CA3F05F
:0113E30022E7
:0A13E40090F2ECE4F090F2EDF090CE
:0B13EE00F2E3E0FF24F3500302169925
:0713F900EF2F2F9014007389
:071400000215C3021685026C
:0614070016990216850291
:06140D0016990214FE0214
:06141300142702169902E5
:06141900155C02151F0224
:06141F001581021699027E
:02142500168A25
:0E14270090F2E4E0FEA3E0FFFC7D00BC0105B6
:05143500BD0002801360
:08143A00BC0205BD0002802088
:08144200BC0305BD0002803B64
:03144A000214C9C0
:07144D0078107486F20874A8
:0C14540023F290F2EA7412F0A3E4F0021C
:0214600014D6A0
:06146200EE600302169982
:0714680078107498F208747B
:0C146F0023F290239AE493FCA3E493FD85
:0A147B0090F2EAECF0A3EDF08051CE
:0E1485008E047D009023DBE493FB7A00C3EC21
:081493009BED9A40030216993B
:0C149B00E4CE25E0CE33FFEE2412F582F3
:0C14A700EF3424F583E493FEA3E493FFEC
:0C14B3007810EEF208EFF28E828F83E0DA
:0A14BF00FE90F2EAF0A3E4F0800DC5
:0B14C900120F1590F316E0FF700302F5
:0214D400169967
:0E14D60090F2E8E0FEA3E0FF90F2EAE0FCA353
:0E14E400E0FDC3EE9CEF9D500890F2EAEEF0A2
:0314F200A3EFF075
:0914F50090F3167402F00216993E
:0E14FE0090F2E4E0FEA3E0FF90DE00EEF0EEE0
:06150C0060047F0880026C
:021512007F0454
:0915140090F315EFF012173302F9
:02151D0016991D
:0E151F0090F2E4E0FEA3E0FFBE0005BF000274
:02152D00800834
:08152F00BE0121BF001E801166
:0E15370090F315E0FF24F7501690F31574089A
:03154500F0800E25
:0B15480090F3157410F0120E8D80035C
:03155300021699E4
:0615560012173302169982
:0C155C0090F315E0FFBF10047F01800237
:021568007F0002
:08156A0090F2ECEFF078187428
:0A157200ECF20874F2F2900001128E
:05157C0016F1021699B2
:0815810090F315E0FFBF10001C
:05158900500302169959
:0B158E0090F2E6E0FEA3E0FF7C987DF9
:0C159900238C828D83A3A3A3A3E493FD05
:0C15A5007C00C3EE9DEF9C4003021699F1
:0715B100781874ECF20874D5
:0915B800F2F29000011216F1029A
:0215C100169979
:0E15C30090F2E2E0541FFE7F00BE0005BF0064
:0315D10002801481
:0815D400BE0105BF0002802EDC
:0915DC00BE0206BF000302165511
:0315E50002168368
:0915E80012187550047F01800205
:0215F1007F0079
:0815F30090F2ECEFF07818749F
:0A15FB00ECF20874F2F29000021204
:0516050016F102169928
:08160A0090F315E0FFBF100092
:0E161200500E90F2E6E0FEA3E0FF4E600302F1
:02162000169919
:0B16220090F2E6E0FEA3E0FF7C987D64
:0C162D00238C828D83A3A3A3A3E493FD70
:0B1639007C00C3EE9DEF9C400280553A
:07164400781874ECF2087441
:0A164B00F2F29000021216F1804442
:0E16550090F2E4E0FEA3E0FFEE540F6002808E
:011663000284
:021664008033D1
:0816660090F315E0FFBF100036
:04166E00500280277F
:07167200781874ECF2087413
:0A167900F2F29000021216F1801642
:021683008014D1
:05168500121733800F75
:07168A00781874ECF20874FB
:08169100F2F29000021216F1C2
:01169900222E
:03169A00A20C227D
:0C169D00AF8CA2BD920EC2BD438C10AEFB
:0616A9008C5306FE8E8C3E
:0E16AF00758900C2C5D2BDAEBE74FC5E44019A
:0E16BD00FE8EBE000000E5BE54036007D29012
:0516CB00438701C290FD
:0916D000C2BDE58930E702C20C3D
:0C16D900300C09C007121875D00750CA69
:0C16E500E5BE30E6FB8F8CA20E92BD2209
:0E16F100AE82AF8390F3167402F090F2EAEE30
:0C16FF00F0A3EFF07818E2FE08E2FF789C
:07170B0010EEF208EFF222DC
:0E171200AE82AF8390F3167401F090F2EAEE0F
:0C172000F0A3EFF0781AE2FE08E2FF7878
:07172C0010EEF208EFF222BB
:0E17330090F3167401F090F2EAE4F0A3F022B5
:0617410090F316E4F02213
:0C174700E58290DE0EF0781CE2FE7F00D0
:0E17530074072EFEE43FFFC423CEC423541FB0
:0C1761006ECE541FCE6ECE30E40244E089
:0C176D0090DE10EEF090DE127401F0220D
:0C177900E58290DE0EF0781DE2FE7F009D
:0E17850074072EFEE43FFFC423CEC423541F7E
:0C1793006ECE541FCE6ECE30E40244E057
:0C179F0090DE13EEF090DE157401F022D5
:01242C0000AF
:01242D0000AE
:05052900781E7480F251
:0717AB001217D21217BC1245
:0617B20018CC12190B22F5
:0417B80012185D2284
:0717BC00AFBE5307FB8FBE17
:0E17C300E5BE30E6FB75C68043BE0475C70068
:0117D10022F5
:0A17D20075FF0075A00675F7992257
:0C17DC001218ABAC82AD83AEF0FF781E9B
:0E17E800D3E29CF4FC24E65044E5FFC4540117
:0C17F600FF24FF9210400943FF10758291
:041802000212232F7C
:0E180600AFF75307EF8FF7AFFF5307EF8FFFDA
:0C18140075820112232FA2A4920F43F74B
:071820001030100343FF101C
:0C1827001218ABAC82AD83AEF0FF781E4F
:02183300ECF2D5
:011835002290
:0E183600C2AF75D69F75820A12232F75FF0070
:0E18440075FE0075FD0075F50075F40075F376
:0B185200009000641218D7020006226C
:0E185D00E5FF20E20C75820A12232F30A20351
:03186B001218361A
:01186E002257
:06186F001217DCA20F229B
:03187500A2A32209
:08187800AFFF5307FE8FFF22B2
:06188000D2A043FF01228B
:0C188600C0E0C000C0D075D000781FE2A8
:0E1892002401F208E23400F208E23400F20809
:0B18A000E23400F2D0D0D000D0E032E3
:0C18AB00A2BCE433FFC2BC781FE2FB08C3
:0E18B700E2FC08E2FD08E2FEEF24FF92BC8B8B
:0718C500828C838DF0EE22FE
:0B18CC0075EDBBD2BC75EBFAD2AF2269
:0418D700AE82AF83AB
:0918DB008E048F051EBEFF011FE3
:0E18E400EC4D60227582FAC007C00612232F59
:0E18F2007582FA12232F7582FA12232F758247
:0A190000F912232FD006D00780D182
:01190A0022BA
:0804C2007849E84400600A7962
:0304CA0000759327
:0604CD00F0E4F309D8FC85
:0804D30078C5E84402600C79D1
:0B04DB000390F000E4F0A3D8FCD9FA75
:07190B0075D2EE75D3F22244
:0A191200C016858116C0820581050C
:0A191C00810581E51624FBF8A916E9
:0D1926000909E6F70809E6F70809E6F7A841
:0C19330016080886820886830886F012D9
:0A193F0022AFFAA31222AFFBA3129D
:0D19490022AFFF74012AFCE43BFD8F06A8CD
:0C19560016080886820886830886F0ECDC
:0B196200122307A3ED122307A3EE12CF
:0C196D0023078A828B838FF0A81608E6FF
:07197900122307851681D03F
:0219800016222D
:0C198200AFF0AE83E5827827F208EEF2A9
:0A198E0008EFF278387427F208E43D
:0A199800F2087460F27823793BE254
:0C19A200F308E209F308E209F378267963
:0719AE003EE2F39019121252
:0C19B5001C48AE82AF837827E2FB08E2FA
:0E19C100FC08E2FD8B828C838DF0E41223077C
:0519CF008E828F8322CF
:0619D400C016858116E536
:0719DA001624F8783EF2E547
:0A19E1001624FB7838F208E4F2083F
:0A19EB007440F2E51624F8F8793B89
:0E19F500E6F30809E6F30809E6F3901912126A
:0C1A03001C48AE82AF83E51624FBF88679
:0E1A0F00030886040886058B828C838DF0E424
:0A1A1D001223078E828F83D0162259
:0D1A270090DF2E74FEF090DF097464F090E3
:0E1A3400DF0A7425F090DF0BE4F090DF0F74F2
:0E1A420043F090DF107487F090DF07740AF015
:0E1A500090DF08E4F090DF0C741DF090DF0DC5
:0E1A5E0074DEF090DF0E7473F090DF1A74B631
:0E1A6C00F090DF1B7410F090DF15741DF090E9
:0E1A7A00DF16741CF090DF1774C7F090DF18B1
:0E1A8800E4F090DF1974B2F090DF1C74EAF005
:0E1A960090DF1D740AF090DF1EE4F090DF1F59
:0E1AA4007411F090DF237488F090DF24743109
:0E1AB200F090DF257409F090DF037404F090CB
:061AC000DF047445F02272
:0A1AC60090DF39E023540124FF22D1
:0B1AD00090DF39E0FF747F5FF5822299
:0E1ADB0090DF3AE0FFC2D575F002EF30E7046D
:041AE900B2D5F4047A
:061AED008430D502F40470
:051AF30024B9F5822278
:02048B00E47318
:02052E00C211F8
:051AF800100D02801535
:0A1AFD0090DE0CE0FF782AF22011C1
:0A1B07000AD21190DE0CE0FF782BEB
:011B1100F2E1
:0C1B120012169A400790F315E0FF7009CE
:091B1E00AEFF5306EF8EFF805E5E
:0C1B2700BF104030113890DE0CE0FF7E53
:0C1B330000782BE2FC7D00EFC39CFFEE6D
:0B1B3F009DFEEF30E60543FF1080071D
:071B4A00AFFF5307EF8FFF0F
:0C1B510090DE0CE0FF782AD3E29FF4FF46
:081B5D00249F5024C2118020D6
:051B650043FF10801B8E
:0E1B6A001218ABAD83AEF0FFED035401FC602A
:061B78000543FF10800789
:071B7E00AFFF5307EF8FFFDB
:011B8500223D
:0C1B8600782EE2C0E008E2C0E008E2C0F7
:0A1B9200E074A5C0E0741BC0E07809
:091B9C002CE2C0E008E2C0E022E6
:0C1BA5001581158115817836E22401F2CB
:061BB10008E23400F222FC
:0E1BB700AF8274302FFF24C6500A74072FFF30
:061BC5003012034307206B
:051BCB008F82021B8661
:0E1BD000E582FFC4540FF582C007121BB7D088
:091BDE0007740F5FF582021BB7CA
:0A1BE700AF827831E2F51C08E2F548
:081BF1001D08E2F51E08E2F5F3
:071BF9001F7835E2FA7E209F
:0C1C0000EA2AFAE51F235401FD8A044281
:081C0C00048C02E51C251CF507
:051C14001CE51D33F585
:051C19001DE51E33F57E
:051C1E001EE51F33F577
:0B1C23001FC3EA9F4007EAC39FFA437B
:021C2E001C0197
:091C3000DECE7831E51CF208E576
:081C39001DF208E51EF208E5AA
:071C41001FF27835EAF222E0
:0C1C4800AE82AF83782CEEF208EFF27849
:0A1C540038E2FD08E2FE08E2FF7826
:0A1C5E002EEDF208EEF208EFF27826
:051C680036E4F208F271
:0C1C6D00783BE2FD08E2FE08E2FF8D82F9
:0C1C79008E838FF01222AFFC783B7401C8
:0E1C85002DF2E43E08F208EFF2ECFF700302CD
:021C9300228DA0
:051C9500BF25028003E1
:031C9A000222859E
:051C9D00C213C214C2D5
:041CA20015C216C28F
:041CA60017C218C287
:041CAA0019C21A78C9
:0A1CAE003FE4F27840E4F27CFF7896
:091CB8003BE2FA08E2FB08E2FE3F
:0E1CC1008A828B838EF01222AFFFA3AA82AB21
:0C1CCF0083783BEAF208EBF208EEF2BF6B
:091CDB0025078F82121B86808907
:091CE4008F1774D025175037E565
:0C1CED001724C64031BCFF22C002C00317
:0C1CF900C0067840E275F00AA42F24D049
:0A1D05007840F2D006D003D0027837
:081D0F0040E270AED21480AA7C
:0C1D1700EC75F00AA4FD2F24D0FC809E87
:0A1D2300BF2E07BCFF987C008094DF
:091D2D008F17749F2517500DE576
:0A1D360017248540075307DFD2127F
:021D400080021F
:021D4200C212CB
:051D4400BF2002806DCC
:051D4900BF2B028063C6
:051D4E00BF2D028059C9
:051D5300BF42028063A5
:051D5800BF430280689A
:061D5D00BF4403021F68F1
:061D6300BF4603021F86CB
:061D6900BF4803021CC18B
:061D6F00BF4903021F68DA
:061D7500BF4A03021CC17D
:051D7B00BF4C02804096
:061D8000BF4F03021F71BA
:061D8600BF5003021EF134
:051D8C00BF530280605E
:061D9100BF5403021CC157
:061D9700BF5503021F7896
:061D9D00BF5803021F7F86
:061DA300BF5A03021CC13F
:031DA900021F8A8C
:051DAC00D213021CC16E
:051DB100D215021CC167
:051DB600D216021CC161
:051DBB00D218021CC15A
:051DC000D219021CC154
:091DC50030180E783EE214FE789D
:081DCE003EF28E01870780132D
:0A1DD600783EE224FEFE783EF28E15
:091DE000018703098706198B072E
:081DE9008F82121B86021F9578
:0A1DF100783EE224FDFE783EF28EFB
:0C1DFB000187020987030987061919787F
:0C1E070031EAF208EBF208EEF28A828B5E
:0E1E1300838EF0C004122297AB82AE83D004FF
:051E2100BCFF028B0470
:0A1E26002013377840C3E2F5F0EB1B
:0B1E300095F0502C7840E2C39BF27844
:031E3B0040E2FE84
:0C1E3E008E021E7840EEF2EA60147582FD
:0E1E4A0020C006C004C003121B86D003D004C3
:041E5800D00680E24E
:041E5C007840EEF2EA
:021E60008C06EE
:0C1E6200C0037831E2FA08E2FB08E2FC61
:0E1E6E008A828B838CF01222AFFAFFD003EA37
:0E1E7C00603C8E041EC3E464808CF063F08032
:0D1E8A0095F0502CC0038F82C006C00312DB
:0C1E97001B86D003D0067831E2FA08E286
:091EA300FB08E2FC0ABA00010B85
:0C1EAC007831EAF208EBF208ECF2D00307
:021EB80080A800
:061EBA00201303021F9536
:0C1EC0007840C3E2F5F0EB95F04003021F
:021ECC001F9560
:0A1ECE007840E2C39BF27840E2FE88
:0B1ED8008E041E7840EEF2EC70030256
:021EE3001F914D
:0C1EE500758220C006121B86D00680E724
:0A1EF100783EE224FDFC783EF28CFE
:0C1EFB000187020987040987051919787E
:0A1F070031EAF208ECF208EDF2787E
:061F110033E2FFBF800077
:061F170040047F4380142A
:031F1D00BF6000A2
:061F200040047F50800B1D
:031F2600BF4000B9
:061F290040047F49800224
:021F2F007F58D9
:0E1F31008F82C007121B8675823A121B8675BE
:0E1F3F008230121B86758278121B86D007BF77
:041F4D004902800DB8
:051F5100BF50028008F2
:081F56007832E2F582121BD083
:0A1F5E007831E2F582121BD0802DCD
:091F6800D217783F740AF28024BC
:071F7100783F7408F2801DA7
:071F7800783F740AF28016A5
:071F7F00783F7410F2800F9F
:041F8600D21A800BE0
:071F8A008F82121B86800408
:041F91007840EEF2B4
:0A1F9500301A73783EE224FCFE7857
:081F9F003EF28E01871809874C
:061FA7001909871A0987E1
:071FAD001B1919197831E539
:081FB40018F208E519F208E536
:071FBC001AF208E51BF278A0
:061FC30031741AF20874EB
:061FC90024F2087480F20E
:081FCF007831E2F51808E2F593
:081FD7001908E2F51A74012556
:071FDF0018FAE43519FCAE0D
:0A1FE6001A7831EAF208ECF208EE76
:081FF000F28518828519838532
:0A1FF8001AF01222AFFEFF70030280
:022002001C6D53
:072004008F82121B8680C4CD
:08200B00783FE27003021C6D36
:082013007F4730184CC007782C
:0A201B003EE214FC783EF28C01E76F
:0C202500FA3395E0FCFDFE7831EAF20889
:0C203100ECF208EDF208EEF2D0073017D8
:04203D00030220DF9B
:0C204100C0077831E2FA08E208E208E289
:0C204D007C007D007E007831EAF208EC97
:0B205900F208EDF208EEF2D007807BE9
:0A20640030192CC007783EE224FC7E
:0C206E00FD783EF28D018702098704090D
:0C207A0087050987061919197831EAF268
:0D20860008ECF208EDF208EEF2D007804CF5
:0A209300C007783EE224FEFD783E0F
:0E209D00F28D01870409870519EDFA3395E0ED
:0C20AB00FDFE7831ECF208EAF208EDF2DC
:0B20B70008EEF2D007201720C00778C9
:0C20C20031E2FA08E2FC08E208E27D00CE
:0C20CE007E007831EAF208ECF208EDF236
:0520DA0008EEF2D00742
:0A20DF0030172E7831E2FA08E2FC17
:0E20E90008E2FD08E2FE30E71CC3E49AFAE4C8
:0C20F7009CFCE49DFDE49EFE7831EAF2C2
:0B21030008ECF208EDF208EEF280029A
:02210E00C217F6
:08211000D21B8F017841E4F2BB
:0A2118007835E4F2783FE2F582C06A
:0A21220001121BE7D001201B0E780C
:0C212C0035E2C4FDE3FC4DF31989078087
:0121380005A1
:052139007835E2FDF322
:0A213E007841E22401F27841E2FB4F
:0A214800B21B7831E2FA08E2FC084D
:0E215200E2FD08E2FEEA4C4D4E70BB890778B4
:0921600041E2FB7840E2700578D1
:04216900407401F2CB
:0A216D0020142C201329EB04FE7847
:0321770040E2FD46
:0E217A00C3EE9D5019758220C007C006C00537
:0E218800C003121B86D003D005D006D0071D61
:0221960080E2E5
:042198007840EDF2AC
:0B219C0030171575822DC007C003121C
:0C21A7001B86D003D0077840E214F280C1
:0121B30031FA
:0C21B400EB602E30151575822BC007C0A3
:0C21C00003121B86D003D0077840E21405
:0321CC00F2801688
:0B21CF00301613758220C007C00312F9
:0B21DA001B86D003D0077840E214F20F
:0721E50020132C7840E2FEFC
:0C21EC008E051E7840EEF2C3EB9D5035CE
:0721F8003014047D30800269
:0221FF007D2041
:0E2201008D82C007C006C003121B86D003D01A
:05220F0006D00780D895
:0C2214007840C3E2F5F0EB95F05008783C
:0722200040E2C39BF2800ABB
:062227007840E4F280049F
:04222D007840EEF215
:042231008F018B0688
:0A2235008E051EED602BB21B201B6E
:0C223F000B09E3C4540FFD7835F2800950
:09224B00E3FD53050F7835EDF2B7
:0C2254007835E2F582C006C001121BB70D
:06226000D001D00680CF82
:06226600201303021C6DB1
:04226C007840E2FED6
:092270008E051EED7003021C6DC9
:0C227900758220C006121B86D00680EB88
:082285008F82121B86021C6D02
:0A228D007836E2F58208E2F58322BC
:0B241A003C4E4F20464C4F41543E000A
:04229700AA82AB83E9
:08229B001222AF6003A380F8DA
:0C22A300C3E5829AF582E5839BF5832257
:03048D0075812452
:0A049000122303E5826003020486D4
:0E22AF0020F71430F6148883A88220F507E685
:0622BD00A88375830022D6
:0322C300E280F7BF
:0322C600E493227C
:0222C900E02211
:0522CB00C28D75B68E06
:0722D000308DFD85BA82226A
:0E22D7001222CBAF82C0071222CBAE82D007FC
:0A22E5007808EEF28F82120E6422D8
:0C22EF009003E0E493FF9003E1E4937897
:0822FB0008F28F82120E64222A
:0423030075820022BD
:0E23070020F71030F6118883A88220F507F623
:05231500A883758300A0
:01231A0022A0
:03231B00F280F756
:02231E00F022AB
:0B2320000000000002232B0000000062
:04232B0000000000AE
:08232F00E5826003D582EA2279
:00000001FF
