:0404000002046D3253
:01040B0032BE
:0104130032B6
:01041B0032AE
:0104230032A6
:01042B00329E
:010433003296
:01043B00328E
:010443003286
:01044B00327E
:010453003276
:01045B00326E
:030463000209D1BA
:0904C6007800E4F27801E4F27818
:0504CF0002E4F208F256
:0304FE000204668F
:0504660012062680FED5
:0C0501001210C3AFFF5307FB8FFF7801FF
:04050D00E2B46400F0
:0E051100E433FF3395E0FE4F600543FF0280A8
:01051F0007D4
:07052000AFFF5307FD8FFF41
:0105270022B1
:0E05280012115190123DE493FC740193FD7486
:0E053600029374039390DF06ECF090DF0274E2
:0E05440010F090DF147414F090DF13E4F090C8
:0C055200DF2F741BF090F0387413F07E63
:06055E00207FF08F0690E3
:07056400F032EEF07E207F73
:0C056B00F090F033EEF07ED97F0074DFDA
:0E0577002FFE90F034EEF07ED990F035EEF0CD
:0D05850090F0377411F090F0367420F09073
:07059200F0397440F07F0115
:03059900BF11008F
:0A059C005014EF2420F582E434F03F
:0C05A600F5838F0674412EFEF00F80E7F5
:0A05B20090F0207410F075E10422AF
:0C05BC001209F6AC82AD837802D3E29CF9
:0E05C800F4B3FEB308E29DF4FFC374E89E7422
:0C05D600039F50117802ECF208EDF2785F
:0905E20000E22401F27801E4F2C8
:0605EB007801E2B4640097
:0C05F100503290DF3BE0FFBF012A780190
:0B05FD00E2540190F021F090F0227811
:0706080000E2F090F02378FE
:0A060F0001E2F07801E22401F2AFED
:0C061900E95307EF8FE943D60275E103B7
:0106250022B2
:0706260012063E120A5D12EC
:02062D0005289E
:07062F0012064B1205011237
:08063600086F1205BC80F222DE
:04123D00800000002D
:06049C00E478FFF6D8FD34
:08047A007909E94400601B7AD6
:05048200019012D57885
:030487005E75930C
:0A048A00F0E493F2A308B8000205A5
:0804940093D9F4DAF27593FF2D
:0504D40078047480F2C1
:07063E0012066512064F12BF
:060645000A17120A5622FA
:04064B001206F02281
:07064F00AFBE5307FB8FBE95
:0E065600E5BE30E6FB75C68043BE0475C700E6
:010664002273
:0A06650075FF0075A00675F79922D5
:0C066F001209F6AC82AD83AEF0FF7804F7
:0E067B00D3E29CF4FC24E65044E5FFC4540195
:0C068900FF24FF9201400943FF1075821E
:040695000212123506
:0E069900AFF75307EF8FF7AFFF5307EF8FFF59
:0C06A700758201121235A2A4920043F7E4
:0706B3001030010343FF10AA
:0C06BA001209F6AC82AD83AEF0FF7804AC
:0206C600ECF254
:0106C800220F
:0E06C900C2AF75D69F75820A12123575FF00FA
:0E06D70075FE0075FD0075F50075F40075F3F5
:0B06E50000900064120A2202000622AE
:0E06F000E5FF20E20C75820A12123530A203DB
:0306FE001206C918
:0107010022D5
:0607020012066FA20022A6
:03070800A2A32287
:08070B00AFFF5307FE8FFF2230
:06071300D2A043FF012209
:0604D900750800C202C21A
:0604DF00037805E4F27849
:0904E50006E4F2780774FFF27ED0
:0404EE00A27F07786A
:0604F20008EEF208EFF233
:0C071900781C740AF275820112105F78DF
:0B0725001D7440F275820412109178E0
:0B0730001C7440F275820412105F7808
:05073B000774FFF2222B
:0E07400090F052E0FF53077FBF215590F05616
:0E074E00E0FEA3E0FF4E6006BE0147BF004480
:0A075C0090F053E0FFBF2002800A76
:05076600BF2102801616
:05076B00BF22328022D4
:07077000781A745EF20874B0
:0A077700F0F290000712102A801F14
:070781007818745EF20874A1
:0A078800F0F2900007121009800E35
:0C07920090F054E0FEA3E07805EEF212B7
:02079E00104BFE
:0107A0002236
:0107A1002235
:0107A2002234
:0C07A3007808E2F58208E2F58312046B8E
:0E07AF0090F05EE0FCA3E0FDA3E0FEA3E0FFFF
:0D07BD00BC4D1DBD011ABE0017BF00142069
:0507CA000311D203122F
:0E07CF0009F6AC82AD83AEF0FF90F031ECF095
:0107DD0022F9
:0A07DE0090F065E0FFBF10028005F7
:0507E800758200801A7B
:0E07ED0090DE0E7404F090DE14E0FF30E009A0
:0907FB0090DE16E0FFF582800398
:03080400758200FA
:0108070022CE
:0E08080090DE0E7404F090DE28E0FF90DE1605
:0C081600E0FE700890DE14E054FEFEF0DE
:05082200D2068F8222C6
:0A082700AE82AF83780A7912E2F383
:0B0831007813EEF208EFF2758204125B
:0E083C000A5E90DE16E0FF700890DE14E054B5
:03084A00FEFFF0BE
:01084D002288
:0E084E0090DE0E7404F090DE11E0FF4401F025
:08085C007440B50803D38001CC
:01086400C3D0
:050865009204920275EF
:05086A000800D2062287
:07086F00120AD63003191232
:0E08760009F6AC82AD83AEF090F031E0FFECFD
:0A088400C39FFC24B950031206C9FB
:0A088E0090F065E0FFBF1002800249
:02089800807965
:0B089A0090DE0E7404F0E508700B30D7
:0A08A500020B90DE11E0FF20E103DA
:0308AF0012084EDE
:0A08B20090DE0E7401F0780679075D
:0908BC00E2F5F0E3B5F002804E14
:0E08C50090DE11E0FF20E04690DE2274A1F0EC
:0E08D3007420F0E4F090DE22F090DE22F0902F
:0C08E100DE22F090DE227402F0E4F078D9
:0C08ED000690DE22E2F090DE22E4F090A3
:0C08F900DE11E04401F07806E2FF530736
:0A090500837806EFF27806E2FF782F
:04090F0007F2D20613
:0109130022C1
:0A09140090F065E0FFBF10028005BF
:05091E00758200802736
:0E09230090DE0E7404F090DE11E0FF30E11261
:09093100EF30E005758200801032
:09093A007440C39508F5828007A2
:070943007480C39508F582E2
:01094A00228A
:04094B00AE82AF8346
:0A094F00780BE260517440C3950874
:0A095900FD780BC3E29D5004780BFB
:02096300E2FDB3
:0A0965007815EDF27816EEF208EFB7
:0E096F00F2758204C007C006C005120A93D0BC
:0C097D0005D006D007ED2EFEE43FFF7809
:090989000BE2C39DF2ED2508F517
:0A099200087440B508B7C007C0069E
:09099C0012084ED006D00780AA13
:0109A500222F
:0B09A600E58290DE28F005087440B5E3
:0509B100080312084ECE
:0109B600221E
:0609B7007805E2F5822242
:0A09BD00AF827806E2547C4F780602
:0209C700F2221A
:0809C900AF827806E24FF22232
:0E1241001201000202000020FB1F002200002C
:04124F000102030194
:0E12530009024300020100C03209040000013C
:0E1261000202010005240020010424020205FF
:0E126F00240600010524010001070581030A81
:0E127D00000109040100020A00000007050438
:0B128B00024000000705840240000044
:011296000453
:04129700040309043F
:0E129B00260350006F006C006F006C007500A1
:0E12A900200043006F00720070006F007200A2
:0A12B7006100740069006F006E0012
:0C12C1000C0357006900780065006C0009
:0212CD00971276
:0212CF009B1270
:0212D100C11248
:0212D300E60330
:0712D5008025000000000865
:0C09D100C0E0C000C0D075D000780CE27F
:0E09DD002401F208E23400F208E23400F208CD
:0B09EB00E23400F2D0D0D000D0E032A7
:0C09F600A2BCE433FFC2BC780CE2FB089A
:0E0A0200E2FC08E2FD08E2FEEF24FF92BC8B4E
:070A1000828C838DF0EE22C1
:0B0A170075EDBBD2BC75EBFAD2AF222C
:040A2200AE82AF836E
:090A26008E048F051EBEFF011FA6
:0E0A2F00EC4D60227582FAC007C00612123527
:0E0A3D007582FA1212357582FA121235758220
:0A0A4B00F9121235D006D00780D151
:010A5500227E
:0804A2007820E84400600A79AB
:0304AA0000759347
:0604AD00F0E4F309D8FCA5
:0804B300783EE84400600C797A
:0B04BB000190F000E4F0A3D8FCD9FA97
:070A560075D23275D3F022C6
:0404F800C205C20671
:010A5D002276
:0E0A5E00AF82E4CF25E0CF33FE74202FFF746B
:0A0A6C00DE3EFE7812E2FD7813E290
:040A7600FB08E2FC9B
:0E0A7A00ED60131D8F828E83E0FA8B828C83D9
:080A8800F0A3AB82AC8380EA0D
:030A9000D2062269
:0E0A9300AF82E4CF25E0CF33FE74202FFF7436
:0A0AA100DE3EFE7815E2FD7816E255
:040AAB00FB08E2FC66
:0E0AAF00ED60141D8B828C83E0FAA3AB82AC49
:090ABD00838F828E83EAF080E948
:010AC600220D
:0C0AC700C20590DE017401F090DE0B749B
:030AD30007F02207
:0D0AD6001207024014AFBE53077F8FBE12FF
:080AE300070B90F065E4F0C27E
:040AEB0005020CFBF9
:0E0AEF0090F065E0FF701312071343BE800005
:0C0AFD0000000090F0657402F0120AC7BF
:0E0B090090DE06E0FF90DE02E0FEEF30E0023C
:020B1700D20505
:0E0B1900EF30E21690F0657404F090F066E4A0
:0C0B2700F0C007C006120AC7D006D007B5
:060B3300EF30E102C205F3
:070B3900EE20E003020CFBBB
:0C0B400090DE0EE4F090DE11E0FFD20623
:0E0B4C00EF30E40B90DE117480F090F066E460
:010B5A00F0AA
:0D0B5B00EF30E20990DE11E4F090F066F05A
:070B6800EF20E003020C91F5
:0A0B6F0090F066E0FEBE0102800374
:030B7900020C1754
:0E0B7C0090DE16E0FE90F05AE0FCA3E0FD8E45
:0C0B8A00027B00C3EC9AED9B50028C062D
:070B96007812EEF2781079ED
:0C0B9D0013E2F308E209F3758200C007C0
:0C0BA900C006120A5ED006D0077810E2E9
:0E0BB5002EF208E23400F290F05AE0FCA3E0C9
:0E0BC300FD7B0090F05AECC39EF0ED9BA3F07A
:0E0BD10090F05AE0FDA3E0FE4D600990DE11A9
:060BDF007440F0020C91CD
:0E0BE50090F052E054606007C0071207A3D0E2
:010BF30007FA
:0D0BF40090DE0EE4F090F066E0FE700990D7
:080C0100DE117468F0020C9191
:0E0C090090DE117448F090F066E4F0020C9159
:0B0C170090DE16E0FEBE086C7813743F
:070C220052F20874F0F278B1
:0C0C2900127408F2758200C007120A5E07
:0E0C3500D00790F066E4F090F052E05460704A
:0A0C430009C007120CFCD00780075F
:070C4D00C007120740D007A9
:0D0C540090DE0EE4F090F066E0FE70089077
:070C6100DE117460F0802930
:0E0C6800BE012690F05AE0FDA3E0FE4D6008AC
:080C760090DE117440F08013C0
:0D0C7E0090DE11744AF090F066E4F08006FC
:060C8B0090DE117440F040
:0D0C9100EF20E16690F066E0FEBE025E908E
:0E0C9E00F05AE0FDA3E0FEC3ED9420EE9400BA
:0B0CAC0050097F0A90F066E4F080041D
:040CB7007F027D201B
:070CBB007815EDF2781079C5
:0C0CC20016E2F308E209F3758200C00797
:0E0CCE00C005120A93D005D00790DE11EFF09A
:0B0CDC007810E22DF208E23400F290E4
:0E0CE700F05AE0FEA3E0FF7C0090F05AEEC34E
:060CF5009DF0EF9CA3F04E
:010CFB0022D6
:0A0CFC0090F05CE4F090F05DF090E1
:0B0D0600F053E0FF24F35003020FB194
:070D1100EF2F2F900D187366
:070D1800020EDB020F9D0239
:060D1F000FB1020F9D025E
:060D25000FB1020E1602E0
:060D2B000D3F020FB102B2
:060D31000E74020E3702F1
:060D37000E99020FB1024B
:020D3D000FA203
:0E0D3F0090F054E0FEA3E0FFFC7D00BC010537
:050D4D00BD000280134F
:080D5200BC0205BD0002802077
:080D5A00BC0305BD0002803B53
:030D6200020DE19E
:070D650078107441F20874DC
:0C0D6C0012F290F05A7412F0A3E4F002AE
:020D78000DEE7E
:060D7A00EE6003020FB160
:070D800078107453F20874AF
:0C0D870012F2901255E493FCA3E493FDDB
:0A0D930090F05AECF0A3EDF080514F
:0E0D9D008E047D00901296E493FB7A00C3EC66
:080DAB009BED9A4003020FB119
:0C0DB300E4CE25E0CE33FFEE24CDF58227
:0C0DBF00EF3412F583E493FEA3E493FFED
:0C0DCB007810EEF208EFF28E828F83E0C9
:0A0DD700FE90F05AF0A3E4F0800D46
:0B0DE1001207A190F066E0FF70030213
:020DEC000FB145
:0E0DEE0090F058E0FEA3E0FF90F05AE0FCA366
:0E0DFC00E0FDC3EE9CEF9D500890F05AEEF023
:030E0A00A3EFF063
:090E0D0090F0667402F0020FB1CE
:0E0E160090F054E0FEA3E0FF90DE00EEF0EE60
:060E240060047F0880025B
:020E2A007F0443
:090E2C0090F065EFF012104B028A
:020E35000FB1FB
:0E0E370090F054E0FEA3E0FFBE0005BF0002F5
:020E4500800823
:080E4700BE0121BF001E801155
:0E0E4F0090F065E0FF24F7501690F0657408EF
:030E5D00F0800E14
:0B0E600090F0657410F0120719800379
:030E6B00020FB1C2
:060E6E0012104B020FB14F
:0C0E740090F065E0FFBF10047F018002D9
:020E80007F00F1
:080E820090F05CEFF0781874A9
:0A0E8A005CF20874F0F2900001120F
:050E94001009020FB17E
:080E990090F065E0FFBF1000BE
:050EA1005003020FB137
:0B0EA60090F056E0FEA3E0FF7C537DBF
:0C0EB100128C828D83A3A3A3A3E493FD05
:0C0EBD007C00C3EE9DEF9C4003020FB1CF
:070EC9007818745CF2087454
:090ED000F0F29000011210090279
:020ED9000FB157
:0E0EDB0090F052E0541FFE7F00BE0005BF00E5
:030EE90002801470
:080EEC00BE0105BF0002802ECB
:090EF400BE0206BF0003020F6DEF
:030EFD00020F9B46
:090F000012070850047F01800271
:020F09007F0067
:080F0B0090F05CEFF07818741F
:0A0F13005CF20874F0F29000021284
:050F1D001009020FB1F4
:080F220090F065E0FFBF100034
:0E0F2A00500E90F056E0FEA3E0FF4E60030272
:020F38000FB1F7
:0B0F3A0090F056E0FEA3E0FF7C537D2A
:0C0F4500128C828D83A3A3A3A3E493FD70
:0B0F51007C00C3EE9DEF9C4002805529
:070F5C007818745CF20874C0
:0A0F6300F0F2900002121009804421
:0E0F6D0090F054E0FEA3E0FFEE540F6002800F
:010F7B000273
:020F7C008033C0
:080F7E0090F065E0FFBF1000D8
:040F8600500280276E
:070F8A007818745CF2087492
:0A0F9100F0F2900002121009801621
:020F9B008014C0
:050F9D0012104B800F53
:070FA2007818745CF208747A
:080FA900F0F2900002121009A1
:010FB100221D
:030FB200A2052273
:0C0FB500AF8CA2BD9207C2BD438C10AEF1
:060FC1008C5306FE8E8C2D
:0E0FC700758900C2C5D2BDAEBE74FC5E440189
:0E0FD500FE8EBE000000E5BE54036007D29001
:050FE300438701C290EC
:090FE800C2BDE58930E702C20533
:0C0FF100300509C007120708D00750CADD
:0C0FFD00E5BE30E6FB8F8CA20792BD22FF
:0E100900AE82AF8390F0667402F090F05AEE63
:0C101700F0A3EFF07818E2FE08E2FF788A
:0710230010EEF208EFF222CB
:0E102A00AE82AF8390F0667401F090F05AEE43
:0C103800F0A3EFF0781AE2FE08E2FF7867
:0710440010EEF208EFF222AA
:0E104B0090F0667401F090F05AE4F0A3F022E9
:0610590090F066E4F022B5
:0C105F00E58290DE0EF0781CE2FE7F00BF
:0E106B0074072EFEE43FFFC423CEC423541F9F
:0C1079006ECE541FCE6ECE30E40244E078
:0C10850090DE10EEF090DE127401F022FC
:0C109100E58290DE0EF0781DE2FE7F008C
:0E109D0074072EFEE43FFFC423CEC423541F6D
:0C10AB006ECE541FCE6ECE30E40244E046
:0C10B70090DE13EEF090DE157401F022C4
:0112DC000011
:0112DD000010
:02046B00E47338
:0204FC00C20834
:0510C30010060280157B
:0A10C80090DE0CE0FF781EF2200815
:0A10D2000AD20890DE0CE0FF781F40
:0110DC00F221
:0C10DD00120FB2400790F065E0FF7009B0
:0910E900AEFF5306EF8EFF805E9E
:0C10F200BF104030083890DE0CE0FF7E9C
:0C10FE0000781FE2FC7D00EFC39CFFEEB9
:0B110A009DFEEF30E60543FF1080075C
:07111500AFFF5307EF8FFF4E
:0C111C0090DE0CE0FF781ED3E29FF4FF91
:08112800249F5024C20880201E
:0511300043FF10801BCD
:0E1135001209F6AD83AEF0FFED035401FC602D
:061143000543FF108007C8
:07114900AFFF5307EF8FFF1A
:01115000227C
:0D11510090DF2E74FEF090DF097464F090C2
:0E115E00DF0A7425F090DF0BE4F090DF0F74D1
:0E116C0043F090DF107487F090DF07740AF0F4
:0E117A0090DF08E4F090DF0C741DF090DF0DA4
:0E11880074DEF090DF0E7473F090DF1A74B610
:0E119600F090DF1B7410F090DF15741DF090C8
:0E11A400DF16741CF090DF1774C7F090DF1890
:0E11B200E4F090DF1974B2F090DF1C74EAF0E4
:0E11C00090DF1D740AF090DF1EE4F090DF1F38
:0E11CE007411F090DF237488F090DF247431E8
:0E11DC00F090DF257409F090DF037404F090AA
:0611EA00DF047445F02251
:0A11F00090DF39E023540124FF22B0
:0B11FA0090DF39E0FF747F5FF5822278
:0E12050090DF3AE0FFC2D575F002EF30E7044B
:04121300B2D5F40458
:061217008430D502F4044E
:05121D0024B9F5822256
:03046D0075812175
:0A047000121222E582600302046606
:0412220075820022AF
:0B122600000000000212310000000078
:0412310000000000B9
:08123500E5826003D582EA2284
:00000001FF
