:0404000002046D3253
:01040B0032BE
:0104130032B6
:01041B0032AE
:0104230032A6
:01042B00329E
:010433003296
:01043B00328E
:010443003286
:01044B00327E
:010453003276
:01045B00326E
:03046300020B8AFF
:0704C600C2007800E4F278A7
:0804CD0001E4F27802E4F27888
:0A04D50003E4F208F27805E4F208EF
:0104DF00F22A
:0305080002046684
:0504660012077E80FE7C
:0E050B0075CB7075CF0075CD0075CE2475CC04
:0C05190024AFF15307DF8FF143F41822E8
:0E05250012127C90DF067480F090DF027410DA
:0D053300F090DF147414F090DF13E4F090EA
:0E054000F03C7413F07ED97F0074DF2FFE9024
:0C054E00F036EEF07ED990F037EEF07E33
:06055A00227FF08F0690E5
:07056000F038EEF07E227F6F
:0C056700F090F039EEF090DF02E0FF0FA2
:0E0573000F0F90F03BEFF090F03A7480F09094
:0C058100F03D7410F043D60275E1022238
:0E058D00AFFF5307FD8FFF63FF029000C812FF
:06059B000BDB7807E4F21F
:0605A1007807E2B44600F9
:0E05A700501763FF02120804120A2890006425
:0B05B500120BDB7807E22401F280E16A
:0805C000AFFF5307FD8FFF227E
:0E05C80012058D75F40075FE0075900075E447
:0E05D6000075CB0075EB0043FE8643FE60759A
:0E05E400F400D291D292D29775CD0075CF005F
:0505F200C295C2962233
:0C05F7007800C3E2F5F0747F95F0B39239
:0A0603000192917801C3E2F5F07452
:0A060D007F95F0B3920192927802FB
:0C061700C3E2F5F0747F95F0B3920192FD
:0206230097221C
:0B0625007801C3E2F5F0747F95F092BD
:0406300005920278B5
:0A06340002C3E2F5F0747F95F09226
:04063E0005920378A6
:0A06420000C3E2F5F0747F95F0921A
:04064C0005920420EF
:05065000020330030C61
:0C065500C295C29675CD6475CF64801903
:0C06610030040CD295D29675CD6475CF94
:03066D0064800A9C
:0A06700075CD0075CF00C295C2964B
:01067A00225D
:0C067B00120BAFAC82AD837803D3E29C7D
:0E068700F4B3FEB308E29DF4FFC3EE94D0EF8F
:0A069500940792079206500543FFF8
:03069F00028007CF
:0706A200AFFF5307FD8FFFBE
:0A06A9003000277805D3E29CF4B37B
:0E06B300FCB308E29DF4FDC3EC9464ED9400EA
:0706C100500543FF04801205
:0B06C800AFFF5307FB8FFFC20080074D
:0706D300AFFF5307FB8FFF8F
:0106DA0022FD
:0E06DB00E5E930E45E12131B504C90F023E072
:0C06E900FF90F026E0FE90F027E0FD906E
:0E06F500F028E0FC90F029E0FBBF0130BE01D0
:0A0703002D7800EDF27801ECF27899
:0B070D0002EBF2120BAFAC82AD837860
:0907180003ECF208EDF2D200122C
:0C0721000BAFAC82AD83AEF0FF7805ECAE
:04072D00F208EDF2EF
:0D073100AFE95307EF8FE943D60275E102EF
:01073E002298
:08073F00120BAF8582088583CF
:050747000985F00AF530
:0A074C000B7803E2FA08E2FBE4FE7A
:0A075600FFE508C39AFAE5099BFBD2
:0A076000E50A9EFEE50B9FFFC3743F
:0C076A00D09A74079B500C7800E4F278E1
:0707760001E4F27802E4F255
:01077D002259
:07077E001207F71205251216
:0A07850005C8120BAFAC82AD8378FB
:0C078F0003ECF208EDF2C291D292D29776
:0D079B009001F4120BDBD291C292D2979024
:0E07A80001F4120BDBD291D292C2979001F4B1
:0D07B600120BDBC291C292C2979001F412A7
:0E07C3000BDBD291D292D2979001F4120BDB95
:0C07D100120BAFAC82AD837803ECF20891
:0507DD00EDF212050B16
:0707E2001208041206DB12ED
:0607E900073F1205F712A4
:0807EF00062512067B80EC22B6
:06049C00E478FFF6D8FD34
:08047A007909E94400601B7AD6
:05048200019013FC785D
:0304870062759308
:0A048A00F0E493F2A308B8000205A5
:0804940093D9F4DAF27593FF2D
:0504E00078087480F2B1
:0707F70012081E120808128F
:0607FE000BD0120C0F22CB
:040804001208A9220B
:07080800AFBE5307FB8FBEDA
:0E080F00E5BE30E6FB75C68043BE0475C7002B
:01081D0022B8
:0A081E0075FF0075A00675F799221A
:0C082800120BAFAC82AD83AEF0FF78087D
:0E083400D3E29CF4FC24E65044E5FFC45401DA
:0C084200FF24FF9209400943FF1075825B
:04084E00021213601F
:0E085200AFF75307EF8FF7AFFF5307EF8FFF9E
:0C086000758201121360A2A4920843F7F5
:07086C001030090343FF10E7
:0C087300120BAFAC82AD83AEF0FF780832
:02087F00ECF299
:010881002254
:0E088200C2AF75D69F75820A12136075FF0013
:0E08900075FE0075FD0075F50075F40075F33A
:0B089E0000900064120BDB0200062239
:0E08A900E5FF20E20C75820A12136030A203F4
:0308B700120882A2
:0108BA00221B
:0608BB00120828A2082229
:0308C100A2A322CD
:0808C400AFFF5307FE8FFF2276
:0608CC00D2A043FF01224F
:0604E500750C00C20AC202
:0604EB000B7809E4F27831
:0904F1000AE4F2780B74FFF27EBC
:0404FA005B7F0978A3
:0604FE000CEEF208EFF223
:0C08D2007820740AF27582011212187866
:0B08DE00217440F275820412124A7867
:0B08E900207440F2758204121218788F
:0508F4000B74FFF2226D
:0E08F90090F056E0FF53077FBF215590F05A54
:0E090700E0FEA3E0FF4E6006BE0147BF0044C5
:0A09150090F057E0FFBF2002800AB7
:05091F00BF210280165B
:05092400BF2232802219
:07092900781E7462F20874ED
:0A093000F0F29000071211E3801F9F
:07093A00781C7462F20874DE
:0A094100F0F29000071211C2800EC0
:0C094B0090F058E0FEA3E07809EEF212F4
:02095700120488
:01095900227B
:01095A00227A
:01095B002279
:0C095C00780CE2F58208E2F58312046BCF
:0E09680090F062E0FCA3E0FDA3E0FEA3E0FF40
:0D097600BC4D1DBD011ABE0017BF001420AE
:050983000B11D20B1264
:0E0988000BAFAC82AD83AEF0FF90F035ECF01B
:01099600223E
:0A09970090F069E0FFBF1002800538
:0509A100758200801AC0
:0E09A60090DE0E7404F090DE14E0FF30E009E5
:0909B40090DE16E0FFF5828003DD
:0309BD0075820040
:0109C0002214
:0E09C10090DE0E7404F090DE28E0FF90DE164B
:0C09CF00E0FE700890DE14E054FEFEF024
:0509DB00D20E8F822204
:0A09E000AE82AF83780E7916E2F3C1
:0B09EA007817EEF208EFF2758204129D
:0E09F5000C1790DE16E0FF700890DE14E05440
:030A0300FEFFF003
:010A060022CD
:0E0A070090DE0E7404F090DE11E0FF4401F06A
:080A15007440B50C03D380010D
:010A1D00C315
:050A1E00920C920A7524
:050A23000C00D20E22C0
:070A2800120C8F300B1912B4
:0E0A2F000BAFAC82AD83AEF090F035E0FFEC83
:0A0A3D00C39FFC24B9500312088285
:0A0A470090F069E0FFBF100280028A
:020A51008079AA
:0B0A530090DE0E7404F0E50C700B3018
:0A0A5E000A0B90DE11E0FF20E10317
:030A6800120A0768
:0A0A6B0090DE0E7401F0780A790B9A
:090A7500E2F5F0E3B5F002804E59
:0E0A7E0090DE11E0FF20E04690DE2274A1F031
:0E0A8C007420F0E4F090DE22F090DE22F09074
:0C0A9A00DE22F090DE227402F0E4F0781E
:0C0AA6000A90DE22E2F090DE22E4F090E4
:0C0AB200DE11E04401F0780AE2FF530777
:0A0ABE0083780AEFF2780AE2FF786D
:040AC8000BF2D20E4D
:010ACC002207
:0A0ACD0090F069E0FFBF1002800501
:050AD70075820080277C
:0E0ADC0090DE0E7404F090DE11E0FF30E112A7
:090AEA00EF30E005758200801078
:090AF3007440C3950CF5828007E4
:070AFC007480C3950CF58224
:010B030022CF
:040B0400AE82AF838B
:0A0B0800780FE260517440C3950CB1
:0A0B1200FD780FC3E29D5004780F38
:020B1C00E2FDF8
:0A0B1E007819EDF2781AEEF208EFF4
:0E0B2800F2758204C007C006C005120C4CD046
:0C0B360005D006D007ED2EFEE43FFF784E
:090B42000FE2C39DF2ED250CF554
:0A0B4B000C7440B50CB7C007C006DB
:090B5500120A07D006D00780AA9D
:010B5E002274
:0B0B5F00E58290DE28F0050C7440B524
:050B6A000C03120A0754
:010B6F002263
:060B70007809E2F5822283
:0A0B7600AF82780AE2547C4F780A3F
:020B8000F2225F
:080B8200AF82780AE24FF22273
:0E1368001201000202000020FB1F0022000004
:04137600010203016C
:0E137A0009024300020100C032090400000114
:0E1388000202010005240020010424020205D7
:0E139600240600010524010001070581030A59
:0E13A400000109040100020A00000007050410
:0B13B20002400000070584024000001C
:0113BD00042B
:0413BE000403090417
:0E13C200260350006F006C006F006C00750079
:0E13D000200043006F00720070006F0072007A
:0A13DE006100740069006F006E00EA
:0C13E8000C0357006900780065006C00E1
:0213F400BE1326
:0213F600C21320
:0213F800E813F8
:0213FA00E60308
:0713FC00802500000000083D
:0C0B8A00C0E0C000C0D075D0007810E2C0
:0E0B96002401F208E23400F208E23400F20812
:0B0BA400E23400F2D0D0D000D0E032EC
:0C0BAF00A2BCE433FFC2BC7810E2FB08DB
:0E0BBB00E2FC08E2FD08E2FEEF24FF92BC8B94
:070BC900828C838DF0EE2207
:0B0BD00075EDBBD2BC75EBFAD2AF2272
:040BDB00AE82AF83B4
:090BDF008E048F051EBEFF011FEC
:0E0BE800EC4D60227582FAC007C00612136041
:0E0BF6007582FA1213607582FA12136075820E
:0A0C0400F9121360D006D00780D16A
:010C0E0022C3
:0804A2007822E84400600A79A9
:0304AA0000759347
:0604AD00F0E4F309D8FCA5
:0804B3007840E84400600C7978
:0B04BB000190F000E4F0A3D8FCD9FA97
:070C0F0075D23675D3F02207
:04050400C20DC20E54
:010C160022BB
:0E0C1700AF82E4CF25E0CF33FE74202FFF74B0
:0A0C2500DE3EFE7816E2FD7817E2CD
:040C2F00FB08E2FCE0
:0E0C3300ED60131D8F828E83E0FA8B828C831E
:080C4100F0A3AB82AC8380EA52
:030C4900D20E22A6
:0E0C4C00AF82E4CF25E0CF33FE74202FFF747B
:0A0C5A00DE3EFE7819E2FD781AE292
:040C6400FB08E2FCAB
:0E0C6800ED60141D8B828C83E0FAA3AB82AC8E
:090C7600838F828E83EAF080E98D
:010C7F002252
:0C0C8000C20D90DE017401F090DE0B74D8
:030C8C0007F0224C
:0D0C8F001208BB4014AFBE53077F8FBE128A
:080C9C0008C490F069E4F0C205
:040CA4000D020EB47B
:0E0CA80090F069E0FF70131208CC43BE80008C
:0C0CB60000000090F0697402F0120C8045
:0E0CC20090DE06E0FF90DE02E0FEEF30E00282
:020CD000D20D43
:0E0CD200EF30E21690F0697404F090F06AE4DE
:0C0CE000F0C007C006120C80D006D00740
:060CEC00EF30E102C20D31
:070CF200EE20E003020EB446
:0C0CF90090DE0EE4F090DE11E0FFD20E61
:0E0D0500EF30E40B90DE117480F090F06AE4A1
:010D1300F0EF
:0D0D1400EF30E20990DE11E4F090F06AF09B
:070D2100EF20E003020E4A7F
:0A0D280090F06AE0FEBE01028003B5
:030D3200020DD0DF
:0E0D350090DE16E0FE90F05EE0FCA3E0FD8E86
:0C0D4300027B00C3EC9AED9B50028C0672
:070D4F007816EEF27814792A
:0C0D560017E2F308E209F3758200C00701
:0C0D6200C006120C17D006D0077814E26F
:0E0D6E002EF208E23400F290F05EE0FCA3E00A
:0E0D7C00FD7B0090F05EECC39EF0ED9BA3F0BB
:0E0D8A0090F05EE0FDA3E0FE4D600990DE11EA
:060D98007440F0020E4A57
:0E0D9E0090F056E054606007C00712095CD068
:010DAC00073F
:0D0DAD0090DE0EE4F090F06AE0FE70099018
:080DBA00DE117468F0020E4A1C
:0E0DC20090DE117448F090F06AE4F0020E4AE0
:0B0DD00090DE16E0FEBE086C78177481
:070DDB0056F20874F0F278F3
:0C0DE200167408F2758200C007120C178E
:0E0DEE00D00790F06AE4F090F056E054607088
:0A0DFC0009C007120EB5D0078007EA
:070E0600C0071208F9D00734
:0D0E0D0090DE0EE4F090F06AE0FE700890B8
:070E1A00DE117460F0802975
:0E0E2100BE012690F05EE0FDA3E0FE4D6008ED
:080E2F0090DE117440F0801305
:0D0E370090DE11744AF090F06AE4F080063D
:060E440090DE117440F085
:0D0E4A00EF20E16690F06AE0FEBE025E90CF
:0E0E5700F05EE0FDA3E0FEC3ED9420EE9400FB
:0B0E650050097F0A90F06AE4F080045E
:040E70007F027D2060
:070E74007819EDF278147902
:0C0E7B001AE2F308E209F3758200C007D8
:0E0E8700C005120C4CD005D00790DE11EFF024
:0B0E95007814E22DF208E23400F29025
:0E0EA000F05EE0FEA3E0FF7C0090F05EEEC38B
:060EAE009DF0EF9CA3F093
:010EB400221B
:0A0EB50090F060E4F090F061F0901E
:0B0EBF00F057E0FF24F3500302116A1B
:070ECA00EF2F2F900ED173F2
:070ED1000210940211560209
:060ED800116A021156022E
:060EDE00116A020FCF02B1
:060EE4000EF802116A0283
:060EEA00102D020FF002C2
:060EF000105202116A021B
:020EF600115B8E
:0E0EF80090F058E0FEA3E0FFFC7D00BC010579
:050F0600BD0002801394
:080F0B00BC0205BD00028020BC
:080F1300BC0305BD0002803B98
:030F1B00020F9A28
:070F1E0078147468F20874F6
:0C0F250013F290F05E7412F0A3E4F002EE
:020F31000FA708
:060F3300EE600302116AEA
:070F39007814747AF20874C9
:0C0F400013F290137CE493FCA3E493FDF7
:0A0F4C0090F05EECF0A3EDF0805190
:0E0F56008E047D009013BDE493FB7A00C3EC83
:080F64009BED9A400302116AA3
:0C0F6C00E4CE25E0CE33FFEE24F4F58245
:0C0F7800EF3413F583E493FEA3E493FF31
:0C0F84007814EEF208EFF28E828F83E00A
:0A0F9000FE90F05EF0A3E4F0800D87
:0B0F9A0012095A90F06AE0FF70030299
:020FA500116ACF
:0E0FA70090F05CE0FEA3E0FF90F05EE0FCA3A3
:0E0FB500E0FDC3EE9CEF9D500890F05EEEF064
:030FC300A3EFF0A9
:090FC60090F06A7402F002116A55
:0E0FCF0090F058E0FEA3E0FF90DE00EEF0EEA2
:060FDD0060047F088002A1
:020FE3007F0489
:090FE50090F069EFF01212040211
:020FEE00116A86
:0E0FF00090F058E0FEA3E0FFBE0005BF000237
:020FFE00800869
:08100000BE0121BF001E80119A
:0E10080090F069E0FF24F7501690F06974082C
:03101600F0800E59
:0B10190090F0697410F01208D2800300
:0310240002116A4C
:0610270012120402116A1E
:0C102D0090F069E0FFBF10047F0180021A
:021039007F0036
:08103B0090F060EFF0781C74E6
:0A10430060F20874F0F29000011250
:05104D0011C202116A4E
:0810520090F069E0FFBF1000FF
:05105A00500302116AC1
:0B105F0090F05AE0FEA3E0FF7C7A7DD9
:0C106A00138C828D83A3A3A3A3E493FD49
:0C1076007C00C3EE9DEF9C400302116A59
:07108200781C7460F2087491
:09108900F0F29000011211C20204
:02109200116AE1
:0E10940090F056E0541FFE7F00BE0005BF0026
:0310A200028014B5
:0810A500BE0105BF0002802E10
:0910AD00BE0206BF000302112679
:0310B600021154D0
:0910B9001208C150047F018002FD
:0210C2007F00AD
:0810C40090F060EFF0781C745D
:0A10CC0060F20874F0F290000212C6
:0510D60011C202116AC5
:0810DB0090F069E0FFBF100076
:0E10E300500E90F05AE0FEA3E0FF4E600302B4
:0210F100116A82
:0B10F30090F05AE0FEA3E0FF7C7A7D45
:0C10FE00138C828D83A3A3A3A3E493FDB5
:0B110A007C00C3EE9DEF9C400280556E
:07111500781C7460F20874FD
:0A111C00F0F29000021211C28044AC
:0E11260090F058E0FEA3E0FFEE540F60028050
:0111340002B8
:02113500803305
:0811370090F069E0FFBF100019
:04113F0050028027B3
:07114300781C7460F20874CF
:0A114A00F0F29000021211C28016AC
:02115400801405
:05115600121204800FDD
:07115B00781C7460F20874B7
:08116200F0F29000021211C22C
:01116A002262
:03116B00A20D22B0
:0C116E00AF8CA2BD920FC2BD438C10AE2E
:06117A008C5306FE8E8C72
:0E118000758900C2C5D2BDAEBE74FC5E4401CE
:0E118E00FE8EBE000000E5BE54036007D29046
:05119C00438701C29031
:0911A100C2BDE58930E702C20D70
:0C11AA00300D09C0071208C1D00750CA60
:0C11B600E5BE30E6FB8F8CA20F92BD223C
:0E11C200AE82AF8390F06A7402F090F05EEEA1
:0C11D000F0A3EFF0781CE2FE08E2FF78CC
:0711DC0014EEF208EFF2220D
:0E11E300AE82AF8390F06A7401F090F05EEE81
:0C11F100F0A3EFF0781EE2FE08E2FF78A9
:0711FD0014EEF208EFF222EC
:0E12040090F06A7401F090F05EE4F0A3F02226
:0612120090F06AE4F022F6
:0C121800E58290DE0EF07820E2FE7F0000
:0E12240074072EFEE43FFFC423CEC423541FE4
:0C1232006ECE541FCE6ECE30E40244E0BD
:0C123E0090DE10EEF090DE127401F02241
:0C124A00E58290DE0EF07821E2FE7F00CD
:0E12560074072EFEE43FFFC423CEC423541FB2
:0C1264006ECE541FCE6ECE30E40244E08B
:0C12700090DE13EEF090DE157401F02209
:0114030000E8
:0114040000E7
:0D127C0090DF2E74FEF090DF097464F09096
:0E128900DF0A7425F090DF0BE4F090DF0F74A5
:0E12970043F090DF107487F090DF07740AF0C8
:0E12A50090DF08E4F090DF0C741DF090DF0D78
:0E12B30074DEF090DF0E7473F090DF1A74B6E4
:0E12C100F090DF1B7410F090DF15741DF0909C
:0E12CF00DF16741CF090DF1774C7F090DF1864
:0E12DD00E4F090DF1974B2F090DF1C74EAF0B8
:0E12EB0090DF1D740AF090DF1EE4F090DF1F0C
:0E12F9007411F090DF237488F090DF247431BC
:0E130700F090DF257409F090DF037404F0907D
:06131500DF047445F02224
:0A131B0090DF39E023540124FF2283
:0B13250090DF39E0FF747F5FF582224B
:0E13300090DF3AE0FFC2D575F002EF30E7041F
:04133E00B2D5F4042C
:061342008430D502F40422
:0513480024B9F582222A
:02046B00E47338
:03046D0075812175
:0A04700012134DE5826003020466DA
:04134D007582002283
:0B1351000000000002135C0000000020
:04135C00000000008D
:08136000E5826003D582EA2258
:00000001FF
