:0404000002046D3253
:01040B0032BE
:0104130032B6
:01041B0032AE
:0104230032A6
:01042B00329E
:010433003296
:01043B00328E
:010443003286
:01044B00327E
:010453003276
:01045B00326E
:030463000209C4C7
:0B04C6007800E4F208F208F208F27877
:0A04D10004E4F208F208F208F278E1
:0304DB0008E4F240
:0305060002046686
:0504660012057380FE89
:0E05090075CB7075CF0075CD0075CE2475CC06
:0C05170024AFF15307DF8FF143F41822EA
:0C0523001209E9AC82AD83AEF0FF780055
:0E052F00D3E29CF4B3FCB308E29DF4B3FDB339
:0E053D0008E29EF4B3FEB308E29FF4FFC3ECA5
:0E054B0094F4ED9401EE9400EF9400401A63D6
:0D055900FF021209E9AC82AD83AEF0FF781D
:0C05660000ECF208EDF208EEF208EFF2F3
:010572002266
:0E057300120631120A50AFFF5307FD8FFF63CF
:0C058100FF029000C8120A157809E4F28D
:06058D007809E2B446000B
:0E059300501763FF0212063E120862900064C9
:0B05A100120A157809E22401F280E143
:0E05AC00AFFF5307FD8FFF75F40075FE00755D
:0E05BA00900075E40075CB0075EB0043FE86E3
:0D05C80043FE2075F4007590FF9003E812CB
:0E05D5000A157590FD9003E8120A157590FB4B
:0D05E3009003E8120A1575907F9003E8124E
:0C05F0000A157590FF9001F4120A151214
:0E05FC0005097590DF75CD969007D0120A158F
:0E060A0075CD009003E8120A157590FF75CDAE
:0A061800969007D0120A1575CD0068
:0A06220012063E12086290006412F6
:05062C000A1580F22216
:06049C00E478FFF6D8FD34
:08047A007909E94400601B7AD6
:050482000190116578F6
:0304870051759319
:0A048A00F0E493F2A308B8000205A5
:0804940093D9F4DAF27593FF2D
:0504DE00780A7480F2B1
:0706310012065812064212E6
:060638000A0A120A492221
:04063E001206E3229B
:07064200AFBE5307FB8FBEA2
:0E064900E5BE30E6FB75C68043BE0475C700F3
:010657002280
:0A06580075FF0075A00675F79922E2
:0C0662001209E9AC82AD83AEF0FF780A0B
:0E066E00D3E29CF4FC24E65044E5FFC45401A2
:0C067C00FF24FF9201400943FF1075822B
:04068800021210C981
:0E068C00AFF75307EF8FF7AFFF5307EF8FFF66
:0C069A007582011210C9A2A4920043F75F
:0706A6001030010343FF10B7
:0C06AD001209E9AC82AD83AEF0FF780AC0
:0206B900ECF261
:0106BB00221C
:0E06BC00C2AF75D69F75820A1210C975FF0075
:0E06CA0075FE0075FD0075F50075F40075F302
:0B06D80000900064120A1502000622C8
:0E06E300E5FF20E20C75820A1210C930A20356
:0306F1001206BC32
:0106F40022E3
:0606F500120662A20022C1
:0306FB00A2A32295
:0806FE00AFFF5307FE8FFF223E
:06070600D2A043FF012216
:0604E300750800C202C210
:0604E90003780BE4F27839
:0904EF000CE4F2780D74FFF27EBA
:0404F800957F07786D
:0604FC000EEEF208EFF223
:0C070C007822740AF275820112105278F3
:0B071800237440F275820412108478F4
:0B072300227440F2758204121052781C
:05072E000D74FFF22232
:0E07330090F045E0FF53077FBF215590F0493D
:0E074100E0FEA3E0FF4E6006BE0147BF00448D
:0A074F0090F046E0FFBF2002800A90
:05075900BF2102801623
:05075E00BF22328022E1
:0707630078207451F20874C4
:0A076A00F0F290000712101D801F2E
:07077400781E7451F20874B5
:0A077B00F0F2900007120FFC800E50
:0C07850090F047E0FEA3E0780BEEF212CB
:02079100103E18
:010793002243
:010794002242
:010795002241
:0C079600780EE2F58208E2F58312046B95
:0E07A20090F051E0FCA3E0FDA3E0FEA3E0FF19
:0D07B000BC4D1DBD011ABE0017BF00142076
:0507BD000311D203123C
:0E07C20009E9AC82AD83AEF0FF90F024ECF0BC
:0107D0002206
:0A07D10090F058E0FFBF1002800511
:0507DB00758200801A88
:0E07E00090DE0E7404F090DE14E0FF30E009AD
:0907EE0090DE16E0FFF5828003A5
:0307F70075820008
:0107FA0022DC
:0E07FB0090DE0E7404F090DE28E0FF90DE1613
:0C080900E0FE700890DE14E054FEFEF0EB
:05081500D2068F8222D3
:0A081A00AE82AF8378107918E2F384
:0B0824007819EEF208EFF27582041262
:0E082F000A5190DE16E0FF700890DE14E054CF
:03083D00FEFFF0CB
:010840002295
:0E08410090DE0E7404F090DE11E0FF4401F032
:08084F007440B50803D38001D9
:01085700C3DD
:050858009204920275FC
:05085D000800D2062294
:07086200120AC9300319124C
:0E08690009E9AC82AD83AEF090F024E0FFEC24
:0A087700C39FFC24B950031206BC15
:0A08810090F058E0FFBF1002800263
:02088B00807972
:0B088D0090DE0E7404F0E508700B30E4
:0A089800020B90DE11E0FF20E103E7
:0308A200120841F8
:0A08A50090DE0E7401F0780C790D5E
:0908AF00E2F5F0E3B5F002804E21
:0E08B80090DE11E0FF20E04690DE2274A1F0F9
:0E08C6007420F0E4F090DE22F090DE22F0903C
:0C08D400DE22F090DE227402F0E4F078E6
:0C08E0000C90DE22E2F090DE22E4F090AA
:0C08EC00DE11E04401F0780CE2FF53073D
:0A08F80083780CEFF2780CE2FF7831
:040902000DF2D2061A
:0109060022CE
:0A09070090F058E0FFBF10028005D9
:05091100758200802743
:0E09160090DE0E7404F090DE11E0FF30E1126E
:09092400EF30E00575820080103F
:09092D007440C39508F5828007AF
:070936007480C39508F582EF
:01093D002297
:04093E00AE82AF8353
:0A0942007811E260517440C395087B
:0A094C00FD7811C3E29D50047811FC
:02095600E2FDC0
:0A095800781BEDF2781CEEF208EFB8
:0E096200F2758204C007C006C005120A86D0D6
:0C09700005D006D007ED2EFEE43FFF7816
:09097C0011E2C39DF2ED2508F51E
:0A098500087440B508B7C007C006AB
:09098F00120841D006D00780AA2D
:01099800223C
:0B099900E58290DE28F005087440B5F0
:0509A4000803120841E8
:0109A900222B
:0609AA00780BE2F5822249
:0A09B000AF82780CE2547C4F780C03
:0209BA00F22227
:0809BC00AF82780CE24FF22239
:0E10D1001201000202000020FB1F002200009E
:0410DF000102030106
:0E10E30009024300020100C0320904000001AE
:0E10F100020201000524002001042402020571
:0E10FF00240600010524010001070581030AF3
:0E110D00000109040100020A000000070504A9
:0B111B000240000007058402400000B5
:0111260004C4
:0411270004030904B0
:0E112B00260350006F006C006F006C00750012
:0E113900200043006F00720070006F00720013
:0A1147006100740069006F006E0083
:0C1151000C0357006900780065006C007A
:02115D00271158
:02115F002B1152
:0211610051112A
:02116300E603A1
:0711650080250000000008D6
:0C09C400C0E0C000C0D075D0007812E286
:0E09D0002401F208E23400F208E23400F208DA
:0B09DE00E23400F2D0D0D000D0E032B4
:0C09E900A2BCE433FFC2BC7812E2FB08A1
:0E09F500E2FC08E2FD08E2FEEF24FF92BC8B5C
:070A0300828C838DF0EE22CE
:0B0A0A0075EDBBD2BC75EBFAD2AF2239
:040A1500AE82AF837B
:090A19008E048F051EBEFF011FB3
:0E0A2200EC4D60227582FAC007C0061210C9A2
:0E0A30007582FA1210C97582FA1210C9758209
:0A0A3E00F91210C9D006D00780D1CC
:010A4800228B
:0804A2007824E84400600A79A7
:0304AA0000759347
:0604AD00F0E4F309D8FCA5
:0804B300782DE84400600C798B
:0B04BB000190F000E4F0A3D8FCD9FA97
:070A490075D22575D3F022E0
:04050200C205C20666
:010A50002283
:0E0A5100AF82E4CF25E0CF33FE74202FFF7478
:0A0A5F00DE3EFE7818E2FD7819E291
:040A6900FB08E2FCA8
:0E0A6D00ED60131D8F828E83E0FA8B828C83E6
:080A7B00F0A3AB82AC8380EA1A
:030A8300D2062276
:0E0A8600AF82E4CF25E0CF33FE74202FFF7443
:0A0A9400DE3EFE781BE2FD781CE256
:040A9E00FB08E2FC73
:0E0AA200ED60141D8B828C83E0FAA3AB82AC56
:090AB000838F828E83EAF080E955
:010AB900221A
:0C0ABA00C20590DE017401F090DE0B74A8
:030AC60007F02214
:0D0AC9001206F54014AFBE53077F8FBE121A
:080AD60006FE90F058E4F0C2A6
:040ADE0005020CEE13
:0E0AE20090F058E0FF701312070643BE80002C
:0C0AF00000000090F0587402F0120ABAE6
:0E0AFC0090DE06E0FF90DE02E0FEEF30E0024A
:020B0A00D20512
:0E0B0C00EF30E21690F0587404F090F059E4C7
:0C0B1A00F0C007C006120ABAD006D007CF
:060B2600EF30E102C20500
:070B2C00EE20E003020CEED5
:0C0B330090DE0EE4F090DE11E0FFD20630
:0E0B3F00EF30E40B90DE117480F090F059E47A
:010B4D00F0B7
:0D0B4E00EF30E20990DE11E4F090F059F074
:070B5B00EF20E003020C840F
:0A0B620090F059E0FEBE010280038E
:030B6C00020C0A6E
:0E0B6F0090DE16E0FE90F04DE0FCA3E0FD8E5F
:0C0B7D00027B00C3EC9AED9B50028C063A
:070B89007818EEF2781679EE
:0C0B900019E2F308E209F3758200C007C7
:0C0B9C00C006120A51D006D0077816E2FD
:0E0BA8002EF208E23400F290F04DE0FCA3E0E3
:0E0BB600FD7B0090F04DECC39EF0ED9BA3F094
:0E0BC40090F04DE0FDA3E0FE4D600990DE11C3
:060BD2007440F0020C84E7
:0E0BD80090F045E054606007C007120796D009
:010BE6000707
:0D0BE70090DE0EE4F090F059E0FE700990F1
:080BF400DE117468F0020C84AC
:0E0BFC0090DE117448F090F059E4F0020C8481
:0B0C0A0090DE16E0FEBE086C78197446
:070C150045F20874F0F278CB
:0C0C1C00187408F2758200C007120A511B
:0E0C2800D00790F059E4F090F045E054607071
:0A0C360009C007120CEFD007800779
:070C4000C007120733D007C3
:0D0C470090DE0EE4F090F059E0FE70089091
:070C5400DE117460F080293D
:0E0C5B00BE012690F04DE0FDA3E0FE4D6008C6
:080C690090DE117440F08013CD
:0D0C710090DE11744AF090F059E4F0800616
:060C7E0090DE117440F04D
:0D0C8400EF20E16690F059E0FEBE025E90A8
:0E0C9100F04DE0FDA3E0FEC3ED9420EE9400D4
:0B0C9F0050097F0A90F059E4F0800437
:040CAA007F027D2028
:070CAE00781BEDF2781679C6
:0C0CB5001CE2F308E209F3758200C0079E
:0E0CC100C005120A86D005D00790DE11EFF0B4
:0B0CCF007816E22DF208E23400F290EB
:0E0CDA00F04DE0FEA3E0FF7C0090F04DEEC375
:060CE8009DF0EF9CA3F05B
:010CEE0022E3
:0A0CEF0090F04FE4F090F050F09008
:0B0CF900F046E0FF24F35003020FA4BC
:070D0400EF2F2F900D0B7380
:070D0B00020ECE020F900260
:060D12000FA4020F900285
:060D18000FA4020E090207
:060D1E000D32020FA402D9
:060D24000E67020E2A0218
:060D2A000E8C020FA40272
:020D30000F951D
:0E0D320090F047E0FEA3E0FFFC7D00BC010551
:050D4000BD000280135C
:080D4500BC0205BD0002802084
:080D4D00BC0305BD0002803B60
:030D5500020DD4B8
:070D5800781674D1F2087453
:0C0D5F0010F290F04D7412F0A3E4F002CA
:020D6B000DE198
:060D6D00EE6003020FA47A
:070D7300781674E3F2087426
:0C0D7A0010F29010E5E493FCA3E493FD5C
:0A0D860090F04DECF0A3EDF0805169
:0E0D90008E047D00901126E493FB7A00C3ECE4
:080D9E009BED9A4003020FA433
:0C0DA600E4CE25E0CE33FFEE245DF582A4
:0C0DB200EF3411F583E493FEA3E493FFFB
:0C0DBE007816EEF208EFF28E828F83E0D0
:0A0DCA00FE90F04DF0A3E4F0800D60
:0B0DD40012079490F059E0FF7003023A
:020DDF000FA45F
:0E0DE10090F04BE0FEA3E0FF90F04DE0FCA38D
:0E0DEF00E0FDC3EE9CEF9D500890F04DEEF03D
:030DFD00A3EFF071
:090E000090F0597402F0020FA4F5
:0E0E090090F047E0FEA3E0FF90DE00EEF0EE7A
:060E170060047F08800268
:020E1D007F0450
:090E1F0090F058EFF012103E02B1
:020E28000FA415
:0E0E2A0090F047E0FEA3E0FFBE0005BF00020F
:020E3800800830
:080E3A00BE0121BF001E801162
:0E0E420090F058E0FF24F7501690F058740816
:030E5000F0800E21
:0B0E530090F0587410F012070C8003A0
:030E5E00020FA4DC
:060E610012103E020FA476
:0C0E670090F058E0FFBF10047F018002F3
:020E73007F00FE
:080E750090F04FEFF0781E74BD
:0A0E7D004FF20874F0F29000011229
:050E87000FFC020FA4A6
:080E8C0090F058E0FFBF1000D8
:050E94005003020FA451
:0B0E990090F049E0FEA3E0FF7CE37D49
:0C0EA400108C828D83A3A3A3A3E493FD14
:0C0EB0007C00C3EE9DEF9C4003020FA4E9
:070EBC00781E744FF2087468
:090EC300F0F2900001120FFC0294
:020ECC000FA471
:0E0ECE0090F045E0541FFE7F00BE0005BF00FF
:030EDC000280147D
:080EDF00BE0105BF0002802ED8
:090EE700BE0206BF0003020F6009
:030EF000020F8E60
:090EF3001206FB50047F0180028D
:020EFC007F0075
:080EFE0090F04FEFF0781E7434
:0A0F06004FF20874F0F2900002129E
:050F10000FFC020FA41C
:080F150090F058E0FFBF10004E
:0E0F1D00500E90F049E0FEA3E0FF4E6003028C
:020F2B000FA411
:0B0F2D0090F049E0FEA3E0FF7CE37DB4
:0C0F3800108C828D83A3A3A3A3E493FD7F
:0B0F44007C00C3EE9DEF9C4002805536
:070F4F00781E744FF20874D4
:0A0F5600F0F2900002120FFC80443C
:0E0F600090F047E0FEA3E0FFEE540F60028029
:010F6E000280
:020F6F008033CD
:080F710090F058E0FFBF1000F2
:040F7900500280277B
:070F7D00781E744FF20874A6
:0A0F8400F0F2900002120FFC80163C
:020F8E008014CD
:050F900012103E800F6D
:070F9500781E744FF208748E
:080F9C00F0F2900002120FFCBC
:010FA400222A
:030FA500A2052280
:0C0FA800AF8CA2BD9207C2BD438C10AEFE
:060FB4008C5306FE8E8C3A
:0E0FBA00758900C2C5D2BDAEBE74FC5E440196
:0E0FC800FE8EBE000000E5BE54036007D2900E
:050FD600438701C290F9
:090FDB00C2BDE58930E702C20540
:0C0FE400300509C0071206FBD00750CAF8
:0C0FF000E5BE30E6FB8F8CA20792BD220C
:0E0FFC00AE82AF8390F0597402F090F04DEE8B
:0C100A00F0A3EFF0781EE2FE08E2FF7891
:0710160016EEF208EFF222D2
:0E101D00AE82AF8390F0597401F090F04DEE6A
:0C102B00F0A3EFF07820E2FE08E2FF786E
:0710370016EEF208EFF222B1
:0E103E0090F0597401F090F04DE4F0A3F02210
:06104C0090F059E4F022CF
:0C105200E58290DE0EF07822E2FE7F00C6
:0E105E0074072EFEE43FFFC423CEC423541FAC
:0C106C006ECE541FCE6ECE30E40244E085
:0C10780090DE10EEF090DE127401F02209
:0C108400E58290DE0EF07823E2FE7F0093
:0E10900074072EFEE43FFFC423CEC423541F7A
:0C109E006ECE541FCE6ECE30E40244E053
:0C10AA0090DE13EEF090DE157401F022D1
:01116C000082
:01116D000081
:02046B00E47338
:03046D0075812076
:0A0470001210B6E582600302046674
:0410B600758200221D
:0B10BA00000000000210C50000000054
:0410C5000000000027
:0810C900E5826003D582EA22F2
:00000001FF
